:020000040800F2
:10000000101D0020D50000085D25000839230008D8
:1000100000000000000000000000000000000000E0
:10002000000000000000000000000000AD290008F2
:100030000000000000000000D92500084D2F000836
:10004000E7000008E700000851270008E700000863
:10005000E7000008B7020008C1020008CB02000850
:1000600000000000E7000008E7000008E7000008C3
:10007000E7000008E700000800000000E7000008B3
:1000800000000000E7000008000000000000000081
:10009000E700000800000000E7000008E700000893
:1000A000E7000008E7000008E70000084D360008F8
:1000B0005D360008E70000080000000000000000B6
:1000C0000348854600F0C2F8004800472145000873
:1000D000101D00200448804704480047FEE7FEE763
:1000E000FEE7FEE7FEE7FEE729300008C100000852
:1000F00030B50B46014600202022012409E00D46C0
:10010000D5409D4205D31D469540491B2546954047
:1001100040191546521E002DF1DC30BD70B500248B
:100120002546002801DA01244042002901DA012590
:100130004942FFF7DDFFAC4200D04042002C00D026
:10014000494270BDF0B51FB40646002082B0054696
:100150004024019100901BE0019922460F46304651
:1001600000F062F8049A059B801A994110D310465A
:100170001946224600F048F8361A8F410197224668
:1001800001200021009F00F03FF838184D410090F9
:100190002046641E0028DFDC019B00982946324679
:1001A00007B0F0BD10B5431A934209D283188818DE
:1001B00003E0401E01785B1E1970521EF9D210BD7B
:1001C00003460B439B0703D009E008C9121F08C070
:1001D000042AFAD203E00B780370401C491C521E1B
:1001E000F9D210BDD2B201E00270401C491EFBD210
:1001F00070470022F6E710B513460A460446194632
:10020000FFF7F0FF204610BD10B5202A04DB0146A1
:10021000203A9140002010BD914020239C1A0346B3
:10022000E3401943904010BD10B5202A04DB084676
:10023000203AD040002110BD0B46D340D0402024AE
:10024000A21A91400843194610BD0000064C012532
:10025000064E05E0E36807CC2B430C3C984710346E
:10026000B442F7D3FFF730FFB4560008D456000865
:10027000014605E0002001E0421CD0B26428FBDB0F
:100280000A46491E002AF5D170470000034801E0E4
:10029000411E88B20028FBDC704700006A1800008D
:1002A00000B50246134603E0FFF7F0FF581E83B285
:1002B000002BF9DC00BD10B5012000F0DBF810BD0B
:1002C00010B5082000F0D6F810BD10B50120C0020E
:1002D00000F0D0F810BD000070B504460D461F4870
:1002E000C16801208847012002F0E2FB00212420A0
:1002F00002F09EFCF721112002F09AFCE9B22220C4
:1003000002F096FC00210E2002F092FC00210D204C
:1003100002F08EFC11488168002088470F48016870
:1003200080208847002606E020780C4A116888471C
:10033000641C701C86B2AE42F6DB0848816801205E
:1003400088474021084602F073FC0021412002F05A
:100350006FFC032002F0ACFB70BD0000680D0020B4
:100360000EB5074909690091054949690191044998
:10037000496A0291019A00998918029A88180EBD5B
:100380004000F81F70B5044600252520005D0228B6
:1003900003D00420E063012549E0206800680E21B5
:1003A0008843216808602068006840084000216890
:1003B000086020492068884201D1012026E01D49BB
:1003C00014312068884201D110201FE019492831DA
:1003D0002068884201D1801518E016493C31206818
:1003E000884201D1801411E01249503120688842BE
:1003F00002D10120000409E00E49643120688842DE
:1004000002D10120000501E0012000060949083958
:10041000486001212520015500BF002124200155FD
:1004200000BFA06B002802D02046A16B8847284659
:1004300070BD00000800024010B504460120C00253
:10044000844208D102F074FC052000F065F9012017
:100450000649486106E0012C03D1012004490870D7
:1004600000E000BF05F040F810BD000000040140AE
:100470002000002010B504460548406920400028AF
:1004800004D0034844612046FFF7D6FF10BD0000AA
:100490000004014070B50346002200240020DAE089
:1004A000012696400D6835402C46002C77D04D68CB
:1004B000022D02D04D68122D15D1D508AE001D4673
:1004C0002035A8595507EE0E0F25B5400646AE4318
:1004D00030465607F60E0D69B5402843D508AD00E5
:1004E0001E46203670514D68012D08D04D68022DF2
:1004F00005D04D68112D02D04D68122D18D1986885
:1005000056000325B5400646AE4330465600CD683A
:10051000B540284398605868012595400646AE438B
:10052000304610264D6835402D09954028435860C7
:10053000186856000325B5400646AE4330460D798F
:10054000AD07AD0F5600B54028431860D868560077
:100550000325B5400646AE43304656008D68B5408B
:100560002843D860012636074D683540B54271D121
:100570003C4D6D6B012635433A4E75633A4D9608F6
:10058000B600A85995072E0F0F25B5400646AE4375
:10059000304605252D07AB4202D1002515E059E074
:1005A000324DAB4201D101250FE0314DAB4201D1BB
:1005B00002250AE02F4DAB4201D1032505E02E4D67
:1005C000AB4201D1052500E006259607360FB54060
:1005D0002843254D9608B600A851284D28680546A1
:1005E000A5432846012636044D683540B54202D160
:1005F000054625432846214D286068680546A543E1
:100600002846012676044D683540B54202D105469C
:1006100025432846194D6860A8680546A543284625
:10062000012636054D683540B54202D105462543C1
:100630002846124DA860E8680546A54328460126CD
:1006400076054D683540B54202D10546254328461A
:100650000A4DE860521C0D68D540002D00D01FE700
:1006600070BD00000010024008000140000400506E
:1006700000080050000C0050001C00500004014015
:10068000002A01D0816100E0816270470148006862
:10069000704700001400002002480068401C014917
:1006A000086070471400002010B509480068402118
:1006B00008430749086008460068022108430449C6
:1006C0000860032000F006F800F018F8002010BDC4
:1006D0000020024070B504467D21C900064800682C
:1006E000FFF706FD054601F0C9FB00222146501E1A
:1006F00000F01EF8002070BD0800002070470000C8
:1007000000BFC206D20E01219140024A116000BF13
:100710007047000080E100E000BFC206D20E012158
:100720009140024A116000BF7047000000E100E004
:1007300070B504460D4616462946204601F010FFC6
:1007400070BD0000F8B50446002600252021206871
:10075000084020287CD120680840202800D100BF14
:1007600000278148806B012109070840002805D136
:100770007D48806B08437C49886301277B4800687B
:10078000FF2101310840002816D17848006808434D
:1007900076490860FFF77AFF064606E0FFF776FF26
:1007A000801B642801D90320F8BD70480068FF2130
:1007B000013108400028F1D06B4800680321090589
:1007C0000840054660680840A8420DD009116068DD
:1007D0000840884208D16448006801214904084063
:1007E000002801D00120DFE75F4840300069032185
:1007F000090408400546002D3CD060680840A84226
:1008000038D0202120680840202833D15648403075
:1008100000690321090488430546534840300069B4
:100820000121C90408435049403108610846006964
:100830000121C90488434C494031086108460561DB
:1008400080152840002815D0FFF720FF064608E055
:1008500039E0FFF71BFF801B4549884201D903207F
:10086000A2E7414840300069012149020840400A9E
:100870000028EED000BF00BF0321090460680840D3
:1008800088420AD1384800680901884303221205CA
:100890006168114008433449086000BF3248403065
:1008A0000069032212046168114008432E49403157
:1008B000086100BF012F05D12B48806B8905884353
:1008C0002949886300BF2078C007C00F002809D0DD
:1008D00025484030C06880088000A168084322494C
:1008E0004031C860022120680840022809D11E4812
:1008F0004030C0680C218843E16808431A49403100
:10090000C86004212068084004280AD116484030F5
:10091000C068032189028843216908431249403194
:10092000C86008212068084008280AD10E484030D5
:10093000C068032109038843616908430A494031BB
:10094000C86080212068084080280AD106484030CD
:10095000C068032189048843A169084302494031E2
:10096000C860002020E70000001002400070004036
:100970008813000070B504460D46002676480068CE
:10098000C007C00FA8420ED273480068400840005C
:1009900028437149086008460068C007C00FA84294
:1009A00001D0012070BD022120680840022807D133
:1009B0006A48C068F0218843A16808436749C86055
:1009C0002078C007C00F00284CD06068022809D1E9
:1009D00062480068012149040840400C002824D1E5
:1009E0000120DFE76068032809D15C480068012125
:1009F00049060840400E002817D10120D2E7606860
:100A0000012808D1554800680421084080080028C2
:100A10000BD10120C6E75148006801214902084076
:100A2000400A002801D10120BCE74C48C06880087A
:100A30008000616808434949C860FFF727FE064601
:100A4000606802280FD107E0FFF720FE801B4449B1
:100A5000884201D90320A5E74048C0680C2108401E
:100A60000828F1D134E0606803280FD107E0FFF7D0
:100A70000DFE801B3A49884201D9032092E737488E
:100A8000C0680C2108400C28F1D121E060680128E1
:100A90000FD107E0FFF7FAFD801B3149884201D9E9
:100AA00003207FE72D48C0680C2108400428F1D1BD
:100AB0000EE007E0FFF7EAFD801B2949884201D9D3
:100AC00003206FE72548C0680C2108400028F1D1B9
:100AD00021480068C007C00FA8420ED91E48006810
:100AE0004008400028431C49086008460068C007C9
:100AF000C00FA84201D0012054E70421206808401B
:100B0000042808D11548C068072109028843E16814
:100B100008431249C860082120680840082809D104
:100B20000E48C0680721C90288432169C9000843EB
:100B30000A49C86000F044F80849C968F022114029
:100B40000909084A515CC840074908600320FFF7BB
:100B5000C1FD002026E700000020024000100240F6
:100B600088130000A4550008080000200148006810
:100B7000704700000800002000B5FFF7F7FF0549A7
:100B8000C968072212021140090A034A515CC84091
:100B900000BD000000100240B455000800B5FFF78A
:100BA000E5FF0549C9680722D2021140C90A034A74
:100BB000515CC84000BD000000100240B455000860
:100BC000FEB500250026002700240020019000909B
:100BD0002F48C5680C202840002847D0042804D09E
:100BE00008280ED00C2840D10EE0294800681021BA
:100BF0000840002802D02748009001E026480090D5
:100C000042E0264800903FE00F2080042840800CFE
:100C100023490E5C032080052840800D471C1C489A
:100C2000C068012109040840002807D01B4971430E
:100C300008463946FFF75CFA044614E01448006899
:100C400010210840002807D0124971430846394650
:100C5000FFF74EFA044606E00F497143084639464D
:100C6000FFF746FA044600940EE000BF08484068CB
:100C7000072149030840400B01900198401C0121C5
:100C80008140C803009000BF00BF0098FEBD000077
:100C90000010024000093D000024F40000127A0018
:100CA000BC550008F8B5044600252078C007C00FE1
:100CB00000287DD0FE48C0680C21084008280BD0D1
:100CC000FB48C06808400C2813D1F948C0680121CE
:100CD0000904084088420CD1F54800680121490404
:100CE0000840400C002863D06068002860D10120D3
:100CF000F8BD00BF012109046068884205D1EC48B5
:100D000000680843EA49086027E005210904606893
:100D100088420ED1E6480068012189040843E4496D
:100D2000086008460068012109040843E04908609A
:100D300013E0DF480068012109048843DC490860AA
:100D400008460068012109040840009000BFD84807
:100D5000006889008843D649086000BF60680028A1
:100D600013D0FFF793FC054606E0FFF78FFC401B0E
:100D7000642801D90320BBE7CD480068012149045C
:100D80000840400C0028F0D012E0FFF77FFC054639
:100D900006E0FFF77BFC401B642801D90320A7E78E
:100DA000C3480068012149040840400C0028F0D1E4
:100DB000022120680840022868D1BD48C0680C2183
:100DC000084004280BD0BA48C06808400C281DD140
:100DD000B748C068012109040840002816D1B4486A
:100DE0000068042108408008002804D0E068012839
:100DF00001D001207CE7AE4840681F2109028843EA
:100E0000216909020843AA4948603FE0E0680028D8
:100E100024D0A748006809218843E1680843A44911
:100E20000860FFF733FC054606E0FFF72FFC401B88
:100E3000022801D903205BE79D480068042108408F
:100E400080080028F1D09A4840681F210902884391
:100E50002169090208439649486017E094480068F0
:100E60004008400092490860FFF710FC054606E084
:100E7000FFF70CFC401B022801D9032038E78C48FF
:100E800000680421084080080028F1D11021206862
:100E90000840102860D18648C0680C21084000280E
:100EA0005BD183480068012149020840400A0028BC
:100EB00004D0A069002801D1012019E77C48216AEB
:100EC0004068072252031040814219D9206A01F07C
:100ED00085FB002801D001200AE7754840680721FA
:100EE00049038843216A08437149486008464068BD
:100EF0000002000A217F090608436D49486018E096
:100F00006B484068072149038843216A08436849C0
:100F10004860084640680002000A217F090608432D
:100F200063494860206A01F059FB002801D0012084
:100F3000DEE6206A400B401C01218140C8035C4969
:100F4000C968F022114009095A4A515CC8405A49FF
:100F500008600320FFF7BEFB49E0A06900282CD001
:100F600053480068FF210131084351490860FFF7E9
:100F70008DFB054606E0FFF789FB401B022801D9DF
:100F80000320B5E64A480068012149020840400AAA
:100F90000028F0D046484068072149038843216A69
:100FA000084343494860084640680002000A217F20
:100FB000090608433E49486019E03D480068FF21A2
:100FC000013188433A490860FFF760FB054606E0B7
:100FD000FFF75CFB401B022801D9032088E6344858
:100FE0000068012149020840400A0028F0D1082188
:100FF00020680840082839D1606900281BD02C4897
:101000004030006901210843294940310861FFF758
:101010003DFB054606E0FFF739FB401B022801D9DE
:10102000032065E62248403000690221084040085C
:101030000028F0D01AE01E48403000694008400007
:101040001B4940310861FFF721FB054606E0FFF729
:101050001DFB401B022801D9032049E614484030FB
:1010600000690221084040080028F0D104212068CE
:101070000840042877D100260D48806B8906084077
:10108000002805D10A48806B084309498863012676
:101090000A480068FF210131084000281ED1074896
:1010A0000068084305490860FFF7F0FA05460EE0BE
:1010B00000100240A4550008080000200070004005
:1010C000FFF7E4FA401B642801D9032010E67A48B0
:1010D0000068FF21013108400028F1D000BFFF2146
:1010E0000131A068884205D17448006908437349FA
:1010F000086130E0A06800280DD170480069FF2128
:10110000013188436D490861084600690915884323
:101110006A4908611FE005210902A06888420DD1D3
:10112000664800690121890208436449086108464C
:10113000006989150843614908610CE05F4800694E
:10114000FF21013188435D4908610846006909159E
:1011500088435A49086100BFA068002815D0FFF7EE
:1011600095FA054608E02FE0FFF790FA401B544936
:10117000884201D90320BBE550480069012149029A
:101180000840400A0028EFD013E0FFF77FFA054639
:1011900007E0FFF77BFA401B4949884201D9032049
:1011A000A6E546480069012149020840400A002896
:1011B000EFD1012E07D141484038806B3107884379
:1011C0003E494039886300BF606A002872D03B48BE
:1011D0004038C0680C2108400C2869D0606A022899
:1011E00048D1364840380068012109068843334910
:1011F00040390860FFF74AFA054606E0FFF746FA6D
:10120000401B022801D9032072E52C4840380068B1
:10121000012149060840400E0028EFD1E16AA06A8A
:101220000843216B084325494039C968FD2212044F
:101230009143084321494039C860084600680121AC
:10124000090608431D4940390860FFF71FFA0546A3
:1012500006E0FFF71BFA401B022801D9032047E5EF
:10126000164840380068012149060840400E002811
:10127000EFD01FE01148403800680121090688437B
:101280000E4940390860FFF701FA054606E0FFF70E
:10129000FDF9401B022801D9032029E50748403801
:1012A0000068012149060840400E0028EFD101E006
:1012B00001201DE500201BE50070004040100240A9
:1012C000881300007047024600231068034650331D
:1012D0008800C3181868704710B5002304682346B7
:1012E00050338C00E3181A6010BD000070B5A2B036
:1012F00006467E2102A8FEF77CFF17480068019091
:1013000001201649087008460078012822D102F011
:101310009FFF05460E206843C4B2FF2D0DD0224624
:101320000F4901A8FEF73EFF0123E022214601A854
:1013300003F06CFE02F0BCFB08E001206946087176
:1013400001230222194601A803F060FE0020034990
:10135000087000BF22B070BDB05600080100002028
:101360008E00002010B50446206880680121090322
:101370000840000B002811D02068C06809110840FF
:10138000000A00280AD02046FFF7B0FF2068C06896
:1013900080210840124908432168C860206880689D
:1013A000012149030840400B002811D02068C06883
:1013B00009110840400A00280AD02046FFF782FFA2
:1013C0002068C06880210840064908432168C86039
:1013D000012040040449486101212120015510BD2C
:1013E0007FFEFFFF7FFDFFFF0004014010B50446B4
:1013F000002C01D1012010BD2120005D002805D165
:10140000002120200155204600F054F8022121201F
:10141000015500BFCA2021684862532021684862F4
:1014200000BF204601F072F9002809D000BFFF205C
:101430002168486200BF0421212001550120DAE71C
:10144000206880681A4908402168886021696068BE
:101450000843A169084321688968084321688860B6
:101460002168E0680861206800692189090408434F
:10147000216808612068C068802188432168C860AD
:101480002068C06C800880002168C8646169E069D8
:1014900008432168C96C08432168C86400BFFF2065
:1014A0002168486200BF0121212001550020A2E7E8
:1014B000BFFF8FFF10B504460949206888420ED14E
:1014C000084800690121890408430649086100228F
:1014D00011460220FFF72CF90220FFF71DF910BD7D
:1014E0000028004040100240FEB504460D46164656
:1014F000002700200190009000BF2020005D0128FF
:1015000001D10220FEBD01212020015500BF022192
:1015100021200155002E2AD12068806840210840F2
:10152000002800D002E00020E87000BFE869002831
:1015300000D100E000BF287801F0DBF803046878F0
:1015400001F0D7F800020343A87801F0D2F8034372
:10155000E878000403432021485D01F0CAF8000642
:101560000343E86903436869034301932FE020685C
:10157000806840210840002804D0287801F0ACF8A9
:10158000019002E00020E87000BFE869002805D162
:101590002021485D01F0A0F8019005E02021485D80
:1015A00001F09AF8019000BF2878000469780902D8
:1015B0000843A9780843E978090408432021495DD4
:1015C00009060843E9690843696908430190A96964
:1015D00068680843009000BFCA2021684862532011
:1015E0002168486200BFFF210131686A884241D109
:1015F000206880688843216888602068C0688021EE
:1016000008404D4908432168C860FFF73FF8074686
:1016100015E0FFF73BF8C01B7D21C90088420ED9B9
:1016200000BFFF202168486200BF0321212001552F
:1016300000BF00212020015500BF032062E7206881
:10164000C068C007C00F0028E3D001982168C861B6
:1016500000982168486420688068FF2101310843B0
:101660002168886020688068012109030843216897
:10167000886043E02068806801214902884321682E
:1016800088602068C068802108402C490843216890
:10169000C860FEF7FBFF074615E0FEF7F7FFC01B2B
:1016A0007D21C90088420ED900BFFF202168486211
:1016B00000BF03212120015500BF0021202001553A
:1016C00000BF03201EE72068C068022108404008D0
:1016D0000028E2D001982168086200982168886497
:1016E00020688068012149020843216888602068D9
:1016F0008068012149030843216888601048006818
:101700000121490408430E49086008468068012108
:10171000490408430A49886000BFFF2021684862E5
:1017200000BF01212120015500BF002120200155CB
:1017300000BF0020E6E600007FFEFFFF7FFDFFFF09
:1017400000040140F8B504460D461646002700BFC8
:101750002020005D012801D10220F8BD01212020B8
:10176000015500BF022121200155002E09D16878C2
:1017700010210840102804D16878EF2108400A3071
:101780006870002E11D1E87800F0B3FF0304687888
:1017900000F0AFFF00020343A87800F0AAFF034364
:1017A0002878400303431F4612E0687800F094FF56
:1017B0000746A87800F090FF0746E87800046978AB
:1017C00009020843A97808432978490308430746D2
:1017D00000BFCA202168486253202168486200BFC8
:1017E000204600F093FF00280ED000BFFF202168A4
:1017F000486200BF04212120015500BF00212020A4
:10180000015500BF0120A8E7194838402168486009
:101810002068C068802188432168C860206880688B
:1018200020210840002813D1204600F0CDF80028E0
:101830000ED000BFFF202168486200BF0421212094
:10184000015500BF00212020015500BF012084E781
:1018500000BFFF202168486200BF012121200155FF
:1018600000BF00212020015500BF002075E70000C7
:101870003FFFFF00F8B504460D461646002700BF9F
:101880002020005D012801D10220F8BD0121202087
:10189000015500BF022121200155002E1BD12068D7
:1018A000806840210840002800D002E00020E87055
:1018B00000BF287800F01DFF0304687800F019FFCE
:1018C00000020343A87800F014FF0343E878000403
:1018D00003431F4618E02068806840210840002824
:1018E00004D0287800F0F8FE074602E00020E870F7
:1018F00000BF28780004697809020843A9780843E2
:10190000E97809040843074600BFCA2021684862F5
:1019100053202168486200BF204600F0F7FE0028EF
:101920000ED000BFFF202168486200BF04212120A3
:10193000015500BF00212020015500BF0120A4E770
:1019400020483840216808602068806801218904A7
:101950008843216888602969E868084321688968A4
:101960000843216888602068C06880218843216816
:10197000C8602068806820210840002813D12046D4
:1019800000F022F800280ED000BFFF202168486236
:1019900000BF04212120015500BF00212020015556
:1019A00000BF012071E700BFFF202168486200BF2F
:1019B00001212120015500BF00212020015500BF39
:1019C000002062E77F7F7F0070B504460025206815
:1019D000C068A02188432168C860FEF757FE05460D
:1019E00008E0FEF753FE401B7D21C900884201D963
:1019F000032070BD2068C068202108400028F0D076
:101A00000020F6E710B50446002C01D1012010BDDE
:101A10000221512001552068006840218843216837
:101A20000860204600F056F8002060650021512033
:101A3000015500BF5020015500BF0020E7E70146D7
:101A40005120405C704710B50446002C01D10120A4
:101A500010BD5120005D002805D100215020015506
:101A6000204600F038F80221512001552068006816
:101A70004021884321680860A16860680843E168E4
:101A80000843216908436169084301225202A169A0
:101A900011400843E1690843216A0843A16A0843E9
:101AA00021680860A069000C04210840616A0843AD
:101AB000216848602168E06A08612068C069910077
:101AC00088432168C86100206065012151200155CB
:101AD0000020BDE770477047F8B504460E4617462C
:101AE0001D46002000905120005D012803D05120A8
:101AF000005D222873D1002E03D0002F01D0002DCD
:101B000001D10120F8BD00BF5020005D012801D1A6
:101B10000220F7E701215020015500BF5120005D50
:101B2000012802D132215120015500206065A763B0
:101B3000A587E5872663A586E586A064E064012184
:101B40004903A06A88420DD100BF2068006888431D
:101B50002168086020680068012149030843216862
:101B6000086000BF2068006840210840402804D079
:101B7000206800680843216808600121C902E06804
:101B800088427DD16068002807D0FF210531606858
:101B900088420CD1E08E012809D1206B0088216891
:101BA000C860206B801C2063E08E401EE086E08EC3
:101BB000002820D101214903A06A884205D120686C
:101BC000006849100843216808600022012120466E
:101BD000069B00F0C5FD002802D0032092E738E103
:101BE0002068C068A16B0880A06B801CA063E08F98
:101BF000401EE087D7E035E0002202212046069B08
:101C000000F0AEFD002801D003207BE7206B0088A8
:101C10002168C860206B801C2063E08E401EE08637
:101C2000E08E00280AD101214903A06A884205D12B
:101C300020680068491008432168086000220121DB
:101C40002046069B00F08CFD002801D0032059E7B8
:101C50002068C068A16B0880A06B801CA063E08F27
:101C6000401EE087E08E0028C6D160680028C1D100
:101C7000002201212046069B00F072FD002800E0B2
:101C80000DE001D003203DE72068C068A16B08800B
:101C9000A06B801CA063E08F401EE08783E060683B
:101CA000002807D0FF210531606888420BD1E08E03
:101CB000012808D1216B481C206308782168C8607E
:101CC000E08E401EE086E08E00281CD101214903F1
:101CD000A06A884205D1206800684910084321683D
:101CE0000860002201212046069B00F039FD0028F3
:101CF00001D0032006E72068C068A16B0870E08F60
:101D0000401EE0874FE034E0002202212046069B7F
:101D100000F026FD002801D00320F3E6216B481CCB
:101D2000206308782168C860E08E401EE086E08E5F
:101D300000280AD101214903A06A884205D1206800
:101D400000684910084321680860002201212046EC
:101D5000069B00F005FD002801D00320D2E6206894
:101D6000C068C1B2A26B501CA0631170E08F401E0E
:101D7000E087E08E0028C7D16068002813D10022D8
:101D800001212046069B00F0EBFC002801D0032037
:101D9000B8E62068C068C1B2A26B501CA063117085
:101DA000E08F401EE08701214903A06A884213D1D9
:101DB000002201212046069B00F0D2FC002805D01D
:101DC000606D02210843606503209BE62068C068BF
:101DD00081B2009168460088012280212046069B3E
:101DE00000F0BEFC002805D0606D2021084360652E
:101DF000032087E60121512001554903A06A88424A
:101E000020D120688068102108400009002819D0DE
:101E1000606D02210843606500BF20680068090307
:101E2000884321680860206800680121490308434D
:101E30002168086000BF00BF00215020015500BF8D
:101E400001205FE600BF00215020015500BF0020A7
:101E500058E6022056E60000042806D10649096922
:101E600004221143044A116105E00349096904226F
:101E70009143014A1161704700E000E070B50446EB
:101E80002546681E0949884201D901200CE0681ED8
:101E9000074948610321081F00F062FB0020044944
:101EA000886107200861002070BD0000FFFFFF006F
:101EB00000E000E07047000010B504460020E06636
:101EC00009492068884205D1E12292000749084863
:101ED00000F020F907492068884204D13C220649D5
:101EE000064800F017F910BD00380140D00E002060
:101EF000E80D002000440040580E0020780D00201E
:101F0000F8B504462068C569206807682807000FEF
:101F10000090009800280BD120202840002807D0EE
:101F200020203840002803D0204601F080F9F8BD79
:101F300020688668009800287ED0F007C00F00282F
:101F400004D1FF20213038400028F5D0E807C00F29
:101F500000280BD0FF2001303840002806D0012097
:101F600021680862E06E01210843E06602202840F3
:101F700000280AD0F007C00F002806D002202168F0
:101F80000862E06E04210843E0660420284000282F
:101F90000AD0F007C00F002806D00420216808628C
:101FA000E06E02210843E0660820284000280ED099
:101FB00020203840002803D1F007C00F002806D0A9
:101FC000082021680862E06E08210843E066E06EA0
:101FD000002841D020202840002806D0202038406A
:101FE000002802D0204601F022F9E06E08210840C6
:101FF000002805D12068806840210840002826D0AC
:10200000204601F003F9206880684021084000283C
:1020100019D020688068884321688860606E002835
:102020000DD01A48616E8863606EFEF7ABF9002828
:1020300012D0606E816B00E00FE088470CE0204614
:10204000FFF73AFF08E02046FFF736FF04E020469E
:10205000FFF732FF0020E06669E701200005284015
:10206000002811D001208005304000280CD001202C
:102070000005216808622021692001556A20015568
:102080002046FFF717FF52E700BF50E7F531000881
:1020900010B50446002C01D1012010BDA069002814
:1020A00000D000E000BF6920005D002805D10021BC
:1020B00068200155204600F02CF8242169200155A4
:1020C000206800684008400021680860606A0028B5
:1020D00002D0204600F0DCFF204601F015F901286F
:1020E00000D1DAE7206840680921C90288432168E5
:1020F0004860206880682A218843216888602068B9
:1021000000680121084321680860204601F038F882
:10211000C3E7704710B503466A20C05C20286AD127
:10212000002901D0002A01D1012010BD012424037F
:102130009868A04208D11869002805D1C807C00FC7
:10214000002801D00120F0E700BF6820C05C012812
:1021500001D10220E9E701246820C45400BF596579
:102160005820C2525A20C25200BF24039868A0428D
:102170000AD11869002803D1204C5C20C45220E009
:10218000FF245C20C4521CE0986800280AD118691A
:10219000002803D1FF245C20C45212E07F245C207D
:1021A000C4520EE0012424079868A04209D118699E
:1021B000002803D17F245C20C45202E03F245C202D
:1021C000C45200BF0020D86622246A20C45400BF35
:1021D00000246820C45400BF18688068012420438C
:1021E0001C68A06018680068FF24213420431C6824
:1021F0002060002099E7022097E70000FF0100001F
:1022000010B504460C492068884208D101200B49CA
:10221000087102F045F80949086003F065F90849BA
:102220002068884206D101200649087102F038F87A
:102230000449086010BD0000004400404400002034
:10224000003801403C000020FEB504460D4616460D
:102250001F46002001906920005D20286AD1002DD2
:1022600001D0002E01D10120FEBD01210903A0688B
:10227000884208D12069002805D1E807C00F00284E
:1022800001D00120F0E700BF6820005D012801D1E6
:102290000220E9E701216820015500BF0020E06627
:1022A000212169200155FEF7F1F9019050200653D4
:1022B0005220065325E05220005B401E81B252207E
:1022C00001530097002280212046019B01F086F9EE
:1022D000002801D00320C7E701210903A068884234
:1022E0000BD12069002808D10295029D2888C005DD
:1022F000C00D21688862AD1C03E028786D1C216840
:1023000088625220005B0028D5D10097002240212E
:102310002046019B01F062F9002801D00320A3E7C9
:1023200020216920015500BF00216820015500BF10
:10233000002099E7022097E700BFFEE770B58AB05A
:1023400006460D46022D02DD01200AB070BD18219F
:102350002348FDF74EFF00243EE00C206043821925
:1023600007CA02AB07C36846007A0C2148431C49E0
:10237000401802A90EC90EC000BF1A48C06A022147
:1023800008431849C8620846C06A02210840019003
:1023900000BF00BF6A46108A059001200690002009
:1023A00007900320089005A90398FEF773F86A4682
:1023B000118A01220398FEF763F96A46907C00288F
:1023C00004D16946087A00F02BF803E06946087AE0
:1023D00000F00AF8601CC4B2AC42BEDB0020B4E7D7
:1023E000F80C00200010024010B504460C20604399
:1023F0000A494018008900280DD00C2262430B4680
:10240000D21811890C226243D21850680122FEF7BB
:1024100037F9002010BD0120FCE70000F80C002077
:1024200010B504460C2060430A4940180089002872
:102430000DD00C2262430B46D21811890C22624344
:10244000D21850680022FEF71BF9002010BD0120B1
:10245000FCE70000F80C002000B587B000BF214861
:10246000C06A022108431F49C8620846C06A0221A7
:102470000840019000BF00BF01200390049003209A
:1024800005900120029002A91748FEF703F80122E7
:1024900011461548FEF7F4F80220029002A91248EE
:1024A000FDF7F8FF0420029002A90F48FDF7F2FFA4
:1024B00001208002029002A90B48FDF7EBFF0120EA
:1024C000C00202900948039002A90748FDF7E2FF05
:1024D000002211460720FEF72BF90720FEF71CF912
:1024E00007B000BD001002400004005000001110B1
:1024F0001FB50B4B0FCB6C460FC4FFF7ADFF684603
:1025000002F088FC00F07EFB00F052FA00F0A8FB1D
:10251000122802D100F0ACFB01E000F0A8FB1FBDC7
:10252000A056000870B504460D460520FEF7E8F8F1
:1025300029462046FDF7D0FE01F012FA0648C07F7A
:10254000401CC1B20448C17701F0AAFE0249203103
:102550000860002070BD0000FC02002070470000F1
:1025600010B5002819DA1A4A03071B0F083B9B080D
:102570009B00D2588307DC0EFF23A3409A438B07AE
:102580001B0E8407E40EA3401A43114B0407240FCB
:10259000083CA408A4001A5118E00E4A03231B02A9
:1025A000D21883089B00D2588307DC0EFF23A34078
:1025B0009A438B071B0E8407E40EA3401A43054B76
:1025C000032424021B198408A4001A5110BD000022
:1025D0001CED00E000E100E07047000010B501468E
:1025E000002300222048C068F0242040002829D180
:1025F0001D48806B012424072040002806D01B487A
:1026000000680324E4022040034613E01648806B70
:10261000012424072043144CA063144800680324B9
:10262000E402204003461048806B01242407A043A5
:102630000D4CA0630320C002834203D1C00081423D
:1026400000D101220A480068400840001043084CAD
:10265000206020460068C007C00F904201D00120D2
:1026600010BD0020FCE70000001002400070004098
:102670000020024010B5012000F01AFA9F2111201D
:1026800000F0D6FAFF21242000F0D2FA00214020E9
:1026900000F0CEFA0021412000F0CAFA052000F037
:1026A00007FA0248C1680020884710BD680D002065
:1026B00010B5012000F0FCF9FF21112000F0B8FA5C
:1026C0000021402000F0B4FA0021412000F0B0FACF
:1026D000002000F0EDF910BD014600BFF0200840D9
:1026E00000110A23584302460807000F8018C0B2A1
:1026F00070470146002203E0521C08460A38C1B266
:102700000A29F9D21007000E0843704770B5044635
:1027100000252068C06840210840002815D1401ECF
:102720002168C860FDF7B2FF054608E0FDF7AEFF7F
:10273000401B7D21C900884201D9032070BD20685B
:10274000C068402108400028F0D00020F6E70000D3
:1027500010B50248FEF706FE10BD0000EC12002086
:10276000FFB581B004460E461D460027FDF78EFFDB
:102770000746039800283FD133E0681C002830D07A
:10278000002D04D0FDF782FFC01BA84229D9206884
:102790004068E02188432168486020680068402143
:1027A00088432168086001214903A06A88420DD14D
:1027B00000BF2068006888432168086020680068BE
:1027C0000121490308432168086000BF012151200D
:1027D000015500BF00215020015500BF032005B066
:1027E000F0BD206880683040B04201D1012000E097
:1027F00000200028C1D03DE032E0681C00282FD026
:10280000002D04D0FDF742FFC01BA84228D9206844
:102810004068E021884321684860206800684021C2
:1028200088432168086001214903A06A88420DD1CC
:1028300000BF20680068884321680860206800683D
:102840000121490308432168086000BF012151208C
:10285000015500BF00215020015500BF0320BEE7F5
:10286000206880683040B04201D1012000E00020A3
:102870000028C2D10020B2E710B50348FFF7C2F824
:1028800000F004F810BD0000100D002010B5124833
:10289000FFF7D5F800281DD110480F49086008211E
:1028A0000D48C161002181604161016181620721A0
:1028B000C1620021C16001620121490281610021E0
:1028C0004162FF2005300449486000F009F80248E1
:1028D000FFF7B9F810BD0000100D002000300140D6
:1028E00000B587B0142102A8FDF783FC00BF224881
:1028F000C06A012108432049C8620846C06AC0076F
:10290000C00F019000BF00BF00BF0846C06A012190
:1029100008431949C8620846C06AC007C00F019041
:1029200000BF00BF202002900220039001200490ED
:10293000032005900020069002A905200007FDF75E
:10294000A9FD80200290002006900220049002A998
:1029500005200007FDF79EFD4020029002A90520FA
:102960000007FDF797FD0448406B01210903084368
:102970000149486307B000BD00100240F8B50446A5
:102980000D46164600270748006833462A4621466A
:1029900000900548FFF7A0F80746002F01D0FFF789
:1029A0006BFFF8BD38000020100D002070470000BC
:1029B00010B5002000F07CF8802000F027F80120FE
:1029C00000F076F80021402000F032F9002141208B
:1029D00000F02EF900F094F8072000F0A7F802208C
:1029E00000F048F9012000F073F8002000F02FF803
:1029F000FF2000F07EF8044800F0C9F8012000F044
:102A000036F8FFF737FE10BDFF03000070B505462E
:102A1000012000F0DFF804466406640E20462843D7
:102A200004462146012000F003F970BD70B504464C
:102A30001D2000F0CFF805462846F121084061002E
:102A40000843C5B229461D2000F0F2F870BD70B5EC
:102A500004461D2000F0BEF805462846FE21084029
:102A60002043054629461D2000F0E2F870BD70B5F0
:102A70000446262000F0AEF805462846F721084017
:102A8000E1000843C5B22946262000F0D1F870BD08
:102A900070B50446312000F09DF805462846F8211F
:102AA0000840204305462946312000F0C1F870BD9A
:102AB00070B50546012000F08DF80446F82004406A
:102AC0002046284304462146012000F0B1F870BD9D
:102AD00070B504461E2000F07DF805462846FB210F
:102AE0000840A1000843C5B229461E2000F0A0F806
:102AF00070BD10B504462146222000F099F810BDA3
:102B000010B509484179062000F092F80648401DAA
:102B10004178072000F08CF80348401D8178082098
:102B200000F086F810BD00006C56000810B5044691
:102B300087214D2000F07CF80248015D092000F05B
:102B400077F810BD2456000870B504461D2000F02B
:102B500041F805462807000F21010843C5B2294660
:102B60001D2000F065F870BD70B504460320FFF726
:102B70008FFF1E2000F02EF805462807000F2101C8
:102B80000843C5B229461E2000F052F870BD38B582
:102B900004461E2000F01EF8694608701F2000F051
:102BA00019F80146684641700078FC210840210A66
:102BB000FC2291430843C1B2684601704470017819
:102BC0001E2000F035F8684641781F2000F030F8EC
:102BD00038BD000070B50446094881680020884768
:102BE0006006400E064A1168884705484168FF2084
:102BF000884705460248816801208847284670BDFD
:102C0000680D002010B50022012189020748FDF758
:102C100037FDC820FDF72CFB012291020348FDF788
:102C20002FFDFF20F530FDF723FB10BD0004005001
:102C300070B504460D460948816800208847802207
:102C400022431046054A116888470448016828460F
:102C50008847024881680120884770BD680D0020C0
:102C600010B54220FFF7B6FF0446204610BD70475E
:102C70007047000070B50446052C01DC204600E0DA
:102C8000052004460120FFF713FF022C01D0032C7E
:102C900004D100212620FFF7CBFF03E008212620E6
:102CA000FFF7C6FF022C03D0042C01D0052C12D153
:102CB00002213620FFF7BCFF7F213A20FFF7B8FF43
:102CC0003120FFF787FF05460120054329463120C3
:102CD000FFF7AEFF15E003213620FFF7A9FF3120F3
:102CE000FFF778FF05466D086D0029463120FFF794
:102CF0009FFF40212F20FFF79BFF00213020FFF78F
:102D000097FF61006118094A505CFFF71DFF6100E1
:102D10006118064A89184878FFF726FF6100611894
:102D2000024A89188878FFF781FE70BD8C5600082A
:102D300070B500251220FFF74DFF044640202040CB
:102D4000402830D11E20FFF745FF064604203040C2
:102D5000042825D100210D20FFF76AFF1320FFF77B
:102D600039FF2049087001211E4841701E488168C2
:102D7000002088471C4801680020884700BF07E002
:102D800019484168FF20884718494855681CC5B252
:102D900014480078A842F3DC134881680120884772
:102DA000FFF768FC18E008202040082804D102F052
:102DB0005DFBFFF75FFC0FE004202040042809D1F1
:102DC000E007C00F002802D0FFF754FC04E0FFF733
:102DD0006FFC01E0FFF74EFCFF211220FFF728FFF8
:102DE00070BD000020040020680D0020200300209A
:102DF0000FB470B505460E46002400BF20E0282021
:102E0000604311490858002819D110480068411939
:102E1000282060430C4A1150282060431146401876
:102E2000466028216143891808460830202206A9F7
:102E3000FDF7B8F9012070BC08BC04B01847641C49
:102E4000202CDCDB0020F6E7240400201800002002
:102E500070B58EB005460E461446684604761822B4
:102E600008A9FDF79FF931462846079B069AFFF708
:102E7000BFFF0EB070BD0000F0B587B0054600245E
:102E80003048056000BF59E0282060432E490858AB
:102E9000002852DD282060430858A8424DDA282037
:102EA00060434018036AC2698169406A6E460EC673
:102EB00003902820604324494018083006902820B9
:102EC00060434018406805900C21069841180A7824
:102ED00013464A78120213438A7812041343C978BE
:102EE00009060B43082141180E7832464E78360207
:102EF00032438E7836043243C97809060A4307798B
:102F0000394647793F02394387793F043943C679C7
:102F10003606314306463778384677783F023843DD
:102F2000B7783F043843F67836063043059EB047FD
:102F3000002128206043044A1150641C202CA3DB8C
:102F400007B0F0BD180000202404002010B506488A
:102F500000680A3004490860FDF79EFB02480068DB
:102F6000FFF78AFF10BD00001C00002030B599B0AB
:102F70002B48806B012109070843294988632948A8
:102F800000680321C90288430121C902401825496C
:102F90000860062007908815099001200A901020EB
:102FA0000B900220109000211191410412914105D3
:102FB000139107A8FDF776FE0120149003201590C9
:102FC0000020169017901890012114A8FDF7D2FC4C
:102FD00020200090C00201906846FDF7B3FB002856
:102FE00001D000BFFEE70E48403000690321C9024E
:102FF00088430B4940310861FDF7B8FD054664215F
:10300000FDF776F80446FEF739FF0420FEF724FFAB
:1030100000221146501EFDF78BFB19B030BD000099
:10302000001002400070004015480068FF21013187
:103030000843134908600846C0681249084010490F
:10304000C86008460068104908400D4908600846F5
:1030500080684008400088600846006801218904B3
:103060008843074908600846C068FD210904884371
:103070000349C86000200861C8030449886070479C
:10308000001002400C40FF88F6FFF6FE00ED00E065
:10309000818CC907C90F002908D00168496801223D
:1030A00052049143826A1143026851600222416ACC
:1030B0001140002907D001684968D2039143C26AD0
:1030C0001143026851600422416A1140002907D06F
:1030D0000168496812049143026B11430268516010
:1030E0000822416A1140002907D00168496812038B
:1030F0009143426B1143026851601022416A1140B2
:10310000002907D00168896812029143826B11433C
:10311000026891602022416A1140002907D00168AD
:10312000896812029143C26B114302689160402288
:10313000416A1140002915D0016849689203914302
:10314000026C11430268516001221205016C914228
:1031500008D101684968032252059143426C11432A
:10316000026851608022416A1140002907D001683D
:10317000496812039143826C1143026851607047A1
:1031800038B5044600250020E066FDF77FFA0546C5
:10319000206800680821084008280BD114482B46F5
:1031A000002289040090204600F018FA002801D07F
:1031B000032038BD206800680421084004280BD192
:1031C0000B482B46002209050090204600F006FA25
:1031D000002801D00320ECE72021692001556A2056
:1031E000015500BF00216820015500BF0020E0E725
:1031F000FFFFFF0170B50546AC6A00215A2001535C
:10320000522001532046FEF757FE70BD0168096841
:10321000FF222132914302681160016889684908E0
:1032200049000268916020226A210A547047F8B56B
:1032300004465C20075B6A20005D22283AD12068A2
:10324000406A85B201210903A06888420AD1206939
:10325000002807D1666D284638403080606D801C9C
:10326000606505E0F8B22840626D511C6165107020
:103270005A20005B401E81B25A200153002914D10C
:1032800020680068FF212131884321680860206898
:103290008068400840002168886020216A2001552C
:1032A0002046FEF7ADFF0020F8BD2046FEF7A8FF40
:1032B0000020F9E7206880690821084321688861B7
:1032C0000220F1E770B504460D460B48854207D150
:1032D0002278FF23F533611C0848FEF7B5FF09E0AB
:1032E0000748854206D12278FF23F533611C054843
:1032F000FEF7AAFF70BD000000380140E80D002075
:1033000000440040780D0020FEB50446002510263C
:1033100000200290A9492068884201D1012000E0E4
:103320000020002800D000E000BF2169A068084309
:1033300061690843E1690843054620680068A049BF
:103340000840284321680860206840680321090379
:103350008843E168084321684860A5699749206867
:10336000884201D1012000E00020002801D1206A1C
:103370000543206880680B2109028843284321689F
:10338000886000BF8F492068884217D18E48C06886
:103390008007800F002806D0012808D0022804D01A
:1033A000032808D105E0012607E0022605E00426EF
:1033B00003E0082601E0102600BF3AE083492068B8
:1033C000884217D18048C0680C210840002806D0E8
:1033D000042808D0082804D00C2808D105E00026CD
:1033E00007E0022605E0042603E0082601E0102697
:1033F00000BF1EE07149206888421AD17248C06837
:10340000032189020840002808D001218902401ABE
:1034100008D0401A04D0401A08D105E0002607E081
:10342000022605E0042603E0082601E0102600BF7E
:1034300000BF00BF61492068884201D1012000E03F
:103440000020002855D00025042E1AD004DC002EC0
:1034500007D0022E1CD108E0082E16D0102E17D14E
:1034600017E0FDF789FB054616E05748403800682D
:10347000102108400009002801D0554D00E0554DAD
:103480000AE0FDF79DFB054606E00125ED0303E09C
:1034900000BF0120029000BF00BF002D0AD060686D
:1034A00041004018A84203D860680003A84202D235
:1034B000012002907FE02846FF210131676800F07B
:1034C00095F9626852080023801859413A460191E3
:1034D0000090FCF737FE054603200002854205D325
:1034E0003D48854202D82068C56064E00120029012
:1034F00061E0042E42D006DC002E09D0012E14D04B
:10350000022E53D11EE0082E45D0102E4ED14EE093
:10351000FDF732FB61684908471838466168FCF7D7
:10352000E7FD80B22168C86044E0FDF737FB6168C1
:103530004908471838466168FCF7DAFD80B221680F
:10354000C86037E020484038006810210840000972
:10355000002809D061684A081D4BD018FCF7C8FD47
:1035600080B22168C86008E061684A08194BD01829
:10357000FCF7BEFD80B22168C8601BE0FDF720FBB0
:1035800061684908471838466168FCF7B1FD80B2A8
:103590002168C8600EE061684A080123DB03D01887
:1035A000FCF7A6FD80B22168C86003E000BF0120DF
:1035B000029000BF00BF0298FEBD0000004800401E
:1035C000F369FFEF00380140401002400044004022
:1035D00000093D000024F400FFFF0F00FFB581B09B
:1035E00004460D4617460A9E24E0701C002821D090
:1035F000002E05D0FDF74AF80499401AB04219D9B7
:1036000020680068FF21A131884321680860206894
:1036100080684008400021688860202169200155A9
:103620006A20015500BF00216820015500BF03201A
:1036300005B0F0BD2068C0692840A84201D1012032
:1036400000E00020B842D0D00020F1E710B50248D9
:10365000FEF756FC10BD0000E80D002010B5024832
:10366000FEF74EFC10BD0000780D002000B587B0BD
:1036700000BF5748C06A012108435549C86208463F
:10368000C06AC007C00F019000BF00BF00BF08465E
:10369000C06A012108434E49C8620846C06AC00793
:1036A000C00F019000BF00BF00BF0846C06A0121E3
:1036B00008434749C8620846C06AC007C00F019066
:1036C00000BF00BF00BF0846C06A0121084340494F
:1036D000C8620846C06AC007C00F019000BF00BFA3
:1036E0000846806B0121490408433949886308462C
:1036F000406B0121890308433549486301F0FEFE10
:103700000220039000200490022005900002029005
:103710000420069002A905200007FCF7BBFE082044
:1037200002900420069002A905200007FCF7B2FED3
:103730000120800202900420069002A905200007C3
:10374000FCF7A8FE2348244908604B20C0014860CC
:10375000002121488160C160016181610C214161CA
:10376000FEF796FC002801D000BFFEE71B481C496D
:103770000860E12000024860002119488160C160B2
:10378000016181610C214161FEF782FC002801D0BA
:1037900000BFFEE73C2213490F48FEF7BBFC0022A6
:1037A00002211C20FCF7C4FF1C20FCF7B5FFE1221E
:1037B00092000D490A48FEF7ADFC012202211B20B0
:1037C000FCF7B6FF1B20FCF7A7FF07B000BD000009
:1037D0000010024000440040780D002000380140F5
:1037E000E80D0020580E0020D00E0020F8B582B25F
:1037F0008BB2040C0D0C10465843002126465E4344
:10380000370C36048019794116466E43370C36045E
:103810008019794126466E438919F8BD30B4744643
:10382000641E2578641CAB4204D3635D5B00E3181F
:1038300030BC18471D46F8E702E008C8121F08C14F
:10384000002AFAD170477047002001E001C1121F21
:10385000002AFBD1704700000148807870470000C3
:103860002004002070B50546002432E00E2060439D
:103870001A49085C00282AD129780E206043174A8B
:10388000115469780E206043801841800E206043F7
:103890001146401880780002A978401881B20E20A5
:1038A0006043801841800E2161438918081D05225C
:1038B000E91CFCF777FC0E216143084A8918084689
:1038C0000930052229460831FCF76CFC03E0601C36
:1038D000C4B20A2CCADB00BF70BD00008E000020FD
:1038E00010B586B0044600211848FDF7ECFC1849D5
:1038F000884229D0E1786846017121794171617966
:103900008171002004900590012201A90F48FDF764
:10391000B1FF002801D000BFFEE701216846017019
:1039200061784170A17881702178C1700122694667
:103930000648FDF707FF002801D000BFFEE7044A54
:1039400000210248FDF7C8FC06B010BDEC120020B3
:10395000F2320000002101488170704720040020ED
:103960000021014881777047FC02002010B5044611
:10397000002C02D0012C0CD105E0002201210648C8
:10398000FCF77EFE06E0012211460348FCF778FEB4
:1039900000E000BF00BF10BD0004005010B5044699
:1039A000002C02D0012C16D10AE0002202210B4883
:1039B000FCF766FE012204210848FCF761FE0BE0DB
:1039C000012202210548FCF75BFE00220421034886
:1039D000FCF756FE00E000BF00BF10BD0004005021
:1039E000FFB5B5B007460E46CE2101A8FCF701FC95
:1039F0002C4800680090002400BF30460930C1B256
:103A0000684681708078041927480068010E68466E
:103A1000C170C0780419244800680002010E68468D
:103A2000017100790419204800680004010E6846FD
:103A30004171407904191C480068C1B2684681711F
:103A40008079041968463799C171407904190025B5
:103A50000AE0795D6A462846083011546946085CD8
:103A6000001984B2681CC5B2B542F2DB6A46294629
:103A70000831389850546946A81D085C001984B272
:103A80002112284609301154401C1454684680788D
:103A9000801CC2B2694605483E9B01F052FD39B018
:103AA000F0BD0000A0550008300000201C010020DF
:103AB00010B500240EE00E2060430849085C002881
:103AC00006D00E216143054A88180E21FCF791FBB0
:103AD000601CC4B20A2CEEDB10BD00008E0000207A
:103AE00010B5002408E00E2060430A49085C002855
:103AF00000D103E0601CC4B20A2CF4DB00BF002C30
:103B000007D0611E0E225143024A88180E21FCF78D
:103B100070FB10BD8E00002000B585B014216846F2
:103B2000FCF767FB01216846C170C1710822694634
:103B3000202001F0A5FA05B000BD03460A460B2A75
:103B400001DA10467047002109E0585CEF2804D1E3
:103B5000481C185C012800D103E0481C81B2914246
:103B6000F3DB00BF914201DB1046EBE70846E9E7D3
:103B700008B52949487800F0CDF800284BD02748EF
:103B8000007803282EDA244840780300FFF746FE29
:103B90000C28070B0828280F28151F19252800BFF7
:103BA00001F0BEF91DE0012001F0A4F919E01C4864
:103BB0000188012001F0E6F913E0012001F070F91D
:103BC0000FE096220021012001F0BCF909E0144920
:103BD0000888012101F046F903E001F077F900E0DF
:103BE00000BF16E00C48007801280DD0002000909E
:103BF0000C48017E684601700121417000231322A8
:103C0000022101F003FA00BF0020044908700249B4
:103C1000487000F095F808BD200000202400002026
:103C20002C000020740000207CB505460C460020C6
:103C300000900190012D28D0022D04D0032D0ED02C
:103C4000042D52D13EE02F48017E684601700021CC
:103C5000417001231322022101F0D8F946E02948DE
:103C6000007E1B2801D1694608702078002802D107
:103C70006946487002E0012069464870012313221A
:103C80000221684601F0C2F930E02078002811D105
:103C90000120694608700122B12001F0F1F9607835
:103CA00019490880084600780002A1784018164992
:103CB000088006E02720694608700122522001F0A2
:103CC000DFF913E00F48007E69460870207800286D
:103CD00001D1487002E00120694648700123132297
:103CE0000221684601F092F900E000BF00BF002009
:103CF0000649087048700649087000F0D1FA044976
:103D000048607CBD740000202C00002020000020B2
:103D10002400002010B50446072C01D0082C06D141
:103D200006494868FF21913101F0CCFB10BD0349E1
:103D30004868C82101F0C6FBF8E700002400002015
:103D400010B500F0ADFA0149486010BD2400002014
:103D500003460A46062A01DD00207047002106E0DE
:103D6000585C552801D10120F7E7481CC1B29142A7
:103D7000F6DB0020F1E7000010B54348C07D0300EA
:103D8000FFF74CFD0E7E08217E537E407E7E5D7ED9
:103D90007E72787E3C488038007800280DD13B49FF
:103DA00008703B484078012803D102203849487008
:103DB00008E000203649487004E03349803901208A
:103DC000FFF732FF5DE0304880380078002813D1DB
:103DD0002E4908702E484078022812D12C480078CD
:103DE000012805D10A202A494870FFF7A9FF08E0F9
:103DF00000202749487004E0234980390120FFF75B
:103E000013FF3EE020488038007800280CD11F497D
:103E100008701F480078022803D10021FFF704FF33
:103E200002E000201A4948702BE01748807D0528E1
:103E300004D1154980390120FFF7F6FE21E0124830
:103E40008038007800280BD112488189124801F08F
:103E5000B3F800200D49087006200D49487002E0B3
:103E600000200B4948700CE0074980390320FFF718
:103E7000DBFE06E0044980390420FFF7D5FE00E0B0
:103E800000BF00BF10BD0000B40C002024000020C3
:103E900020000020240C002024090020704700008E
:103EA00030B51448807B012822D11348407E401C45
:103EB000C1B211484176407E062819DC00200CE092
:103EC0000D4980390A5C0B498B898989491C094C49
:103ED000A1810A49CA54411C88B20749897D81429F
:103EE000EEDC0548407E062802D1002004494870D7
:103EF00030BD0000240C0020B40C00202409002058
:103F00002000002030B51148807B01281CD11048CA
:103F1000417E407E401CC2B20D484276062913DC29
:103F200000200CE00A4980390A5C08498B8989899C
:103F3000491C064CA1810749CA54411C88B2044956
:103F4000897D8142EEDC00BF30BD0000240C0020E2
:103F5000B40C00202409002010B50F490F48006858
:103F600001F0B0FA002815D00D480078002805D1DE
:103F7000FEF756FA01200A49087005E00020FEF716
:103F800033FA00200649087000F08AF903490860F6
:103F9000012010BD0020FCE7B80B00000400002049
:103FA0000200002010B572B6FCF77EFBFEF7DEFFC4
:103FB00000F0D4F8FEF76AFC00F012F8FFF756FBA9
:103FC00000F0E2FBFEF794FA00F09CF80248034987
:103FD000486162B610BD0000FFFF00000004014010
:103FE00000B585B012480089009001200190029030
:103FF000032003900E4948686946FCF74BFA0C4AC7
:10400000118950680022FCF73BFB0948808A009028
:1040100001200290064908696946FCF73BFA044A08
:10402000118950680022FCF72BFB05B000BD000091
:104030004C00002000B591B02F48304908600020A6
:1040400048607F212D488160FF21C160002101610E
:1040500041618161C161FDF7C9F9002801D000BF4C
:10406000FEE7152108A801743221417400218174F2
:1040700000200F90109001220CA92048FDF7FAFBB8
:10408000002801D000BFFEE7022108A80173042127
:104090004173082181731821C17301220BA91748AC
:1040A000FDF750FB002801D000BFFEE7144A0021B5
:1040B0001248FDF711F9152168460171352141714A
:1040C0000021817100200290049005900120C0071A
:1040D0000690002007900890012108A801710802AD
:1040E0000A90012201A90548FDF7FEF9002801D038
:1040F00000BFFEE711B000BD00280040EC12002018
:10410000F203000000B587B000BF1248C06A012169
:1041100008431049C8620846C06AC007C00F019032
:1041200000BF00BF01200290039004900020059082
:104130000948039002A905200007FCF7ABF900220B
:1041400011460520FCF7F4FA0520FCF7E5FA07B064
:1041500000BD0000001002400000111000B587B043
:104160001822054901A8FCF71DF8022101A8FEF755
:10417000E5F807B000BD00000C56000810B5FE20A1
:1041800007490870002048700846203001781E3822
:10419000FCF72FF8002102482030017010BD00000C
:1041A000D00C002070B50446002512E0662169435A
:1041B00008196421FCF71DF80021662068430019E6
:1041C0006030017166206843001960304171681CDD
:1041D000C5B2052DEADB0021FF20FF300155401C50
:1041E0000155401C015170BD10B5FFF7C7FF1048C5
:1041F000FFF7D8FF00200F4908700F490876FCF739
:10420000AFF80E49086000200D4908710D4908718A
:1042100000210D484176817596218038FBF7E9FF32
:1042200000210948C17500200849C87310BD00006D
:104230001C0100200000002074000020300000203D
:104240003C00002044000020B40C0020240C00207E
:1042500000210AE00E204843064A105C002802D0E4
:10426000481CC0B27047481CC1B20A29F2DBFF20CB
:10427000F8E700008E0000200FB400210CE066205B
:1042800048436A46801860300079002802D0002038
:1042900004B07047481CC1B20529F0DB0120F7E7E4
:1042A00001480068704700001C00002070B50446FB
:1042B0000E461546084804702030057002783146D5
:1042C0001E38FBF76FFF002003494870FFF7E8FF37
:1042D0000149486270BD0000D00C00200EB5194A9B
:1042E00007CA6B4607C31848007818380300FFF761
:1042F00095FA05040F13171B1F0003206946087069
:10430000002302220121684600F080FE00200EBD3D
:104310001920694608700CE01A206946087008E008
:104320001B206946087004E01C206946087000E004
:1043300000BF00BF002313220221684600F066FE82
:104340000020E4E7C8550008D00C0020FFB583B07A
:1043500005460E46002002900190052E02DAFF204D
:1043600007B0F0BD002435E0285DF52830D1E01C11
:10437000295C0198081880B20190042707E0E01931
:10438000295C0198081880B20190781CC7B2E01C23
:10439000285C001DB842F2DC601C285C0290029888
:1043A0000102A01C285C081880B2029002990198B2
:1043B00088420DD1E01C285C001DC1B20698017036
:1043C0000698027829190598FBF7ECFE2046C7E706
:1043D000601CC4B2301FA042C6DCFF20C0E701B59C
:1043E00082B0012201A902A8FEF7C8FA6846007946
:1043F0000EBD000010B5FEB0044601F06FF80028B5
:1044000004D0012041490870FFF7AAFA40484078DB
:10441000012804D100F064FC00213D4841703B4874
:104420000078002806D001282ED0022819D00328B1
:1044300067D140E0FF22F53236496846FBF7B2FE0D
:10444000344810380FC8FFF717FF002808D131484B
:10445000503001796038FEF765F802202B4908706A
:1044600050E02D4908684B21090101F02BF8002884
:1044700009D00520FCF750F901202849486123495B
:104480000870FFF76DFA3DE022485030407901286E
:1044900003D103201D49087006E000201B49087065
:1044A0001C48103800F0D2FCFFF754FAFFF7F8FE72
:1044B0001949086026E0184908684B21890101F074
:1044C00001F800280FD014482038C07F032807DBEC
:1044D000002111482038C177FF38E13800F0B6FCE0
:1044E00000200A490870FFF7B7F9002808D0FFF745
:1044F00031FA0848103800F0A9FC00200349087080
:1045000000E000BF00BF00207EB010BD1200002000
:10451000200400202C0100201C0300200004014086
:10452000FFF740FDFFF786FDFFF75EFE00205B49C9
:1045300008707D204001FBF7B3FE00F0D5FFFFF7C8
:10454000EBFAAAE0FFF708FD0020FFF753FF00F0A9
:10455000A7FF53480078012829D152494868524999
:1045600000F0B0FF002822D000F01CF9FF202D3011
:10457000FBF796FE00F0FAF8FF202D30FBF790FED7
:1045800000F010F9FF202D30FBF78AFE00F0EEF866
:10459000FF202D30FBF784FE00F004F9FF202D30C2
:1045A000FBF77EFE00F0E2F800203D4908703B4832
:1045B000407800282AD13948007800281FD03B488D
:1045C000807D002809D000F0EDF8002038490870FF
:1045D000FFF766FE364948601AE035494868FF2112
:1045E000F53100F06FFF002812D000F0BFF8002076
:1045F0002A490870FFF754FE2D49486008E02B480F
:10460000807D002804D100F0B1F801E0FFF7B0FA96
:104610002848007901280BD126490868142100F0A8
:1046200051FF002804D000202249087100F0C8F88A
:1046300021480078FE2820D01F49486AFF21F53123
:1046400000F040FF002818D01B48407803280CDAFF
:1046500019484078401C1849487020310A782039A0
:104660000878891C00F00CFD03E0FFF737FEFFF728
:1046700085FDFFF715FE10494862104800790128B2
:104680000BD10E4908681E2100F01CFF002804D041
:1046900000200A49087100F061F953E7200000206A
:1046A0000000002064000020881300004C0000205F
:1046B000240000203C000020D00C002044000020FA
:1046C0000FB400B587B0182101A8FBF792FD08A828
:1046D00000780300FFF7A2F8073F05132A303A3BA2
:1046E0003F0020490A88684682804988C1800021AD
:1046F0000172052201A9192000F0C2FC2CE0194921
:104700000A88684682804988C1800A221549091DA5
:104710000E30FBF747FD0121684641730021017609
:10472000152201A91A2000F0ABFC15E0002201A916
:10473000232000F0A5FC0FE0012069460871012349
:104740000222194601A800F061FC05E004E0012006
:104750000549087000E000BF00BF07B008BC04B006
:1047600018470000740000206400002010B5054ABE
:10477000918A10690022FBF783FF012101488175AE
:1047800010BD00004C00002010B5054A118950688A
:104790000122FBF775FF00200149887210BD00005F
:1047A0004C00002010B5054A918A10690122FBF7E0
:1047B00067FF00210148817510BD00004C000020FA
:1047C000F8B56148018B408B081A85B20026002499
:1047D00000200090002720215B4820308172E9B240
:1047E0005A48FFF7B5FA002820D059480078012828
:1047F00006D0022808D003280AD0042810D10BE0E4
:104800000120534948700CE008205149487008E0E5
:1048100009204F49487004E00B204D49487000BF03
:1048200000BF00BF00204B49087080E000BF294650
:104830004648FFF782F90646AE426DDA4349F01D5D
:10484000095C45488175807D0102404A3046083048
:10485000105C0818801EC1B23F488175304609308F
:1048600080B20090002408E0009800193749085CE5
:10487000394980390855601C84B23748807DA04290
:10488000F2DC3249B01D085C012806D002280AD0AB
:1048900007280ED0082818D111E001212E480176F2
:1048A000FFF7FCFA12E002212B480176FFF7F8FA35
:1048B0000CE0072128480176FFF75EFA06E00821A0
:1048C00025480176FFF71EFB00E000BF00BF22482D
:1048D000807D07460B37BD421ADD002405E03819FC
:1048E0001A49085C0855601C84B2E81BA042F6DC3B
:1048F000E81B84B204E0002014490855601C84B20F
:10490000AC42F8DBE81B85B200211348817504E056
:1049100000211148817501E000E088E700BF0E48E2
:10492000817D8038FBF765FC00210B48C175E121D2
:1049300089000648FBF75DFCE1229200034902482A
:104940004038FDF7E7FBF8BD280E0020D00E002010
:104950002000002024000020B40C002010B596B0E8
:10496000142111A8FBF745FC2021D2488172203880
:10497000027E408B101AC1B201AB02AACE48FFF7EB
:10498000E5FC0446FF2C2CD002A9201D085CE2287F
:1049900028D100F0A9FD02A9601D085C012802D001
:1049A00012281DD10EE0002211A9104600F068FB6C
:1049B000012010A9087101230222194611A800F054
:1049C00025FB0EE00120BD490870002211A9104608
:1049D00000F056FB0422BA49BA48FEF739FA00E063
:1049E00000BF58E102A9201D085CE02867D1B64944
:1049F0000876002010A90871012211A9E02000F01A
:104A00003FFB02A920461230085C00283AD103215E
:104A100010A80171AD480088011210A84171AB487F
:104A2000017810A8817102AA2046143011180522BD
:104A300011A80330FBF7B6FBA548017910A8017354
:104A400002A920462030095C10A8417302A9204623
:104A50001F30095C10A8817302A920461E30095C32
:104A600010A8C17302A920461D30095C10A801746A
:104A70000123E0220D2111A800F0C8FA11A8FEF7C9
:104A8000F1FE19E002A920461230085C9149087035
:104A900002AA601D111804228B48FBF783FB02AAAF
:104AA00020461430111805228B48FBF77BFB0322AC
:104AB00083491420FEF7CCF900F016FDEBE002A9C3
:104AC000201D085CB1280CD103227D49FF20F53060
:104AD000FEF7BEF981480078FE28EFD0FFF74EFBC5
:104AE000D9E07E4800781B2827D006DC18280BD098
:104AF00019287DD01A287CD1A3E01F287AD023283A
:104B000042D05228F7D1BDE002A9201D085C002840
:104B100009D1022010A9087101230222194611A807
:104B200000F074FA08E0032010A9087101230222A2
:104B3000194611A800F06AFAA6E06348007E26280C
:104B400006D101225E49FF20F530FEF781F99BE096
:104B50005E480088962800DA96E01B2010A90871AC
:104B600002A9201D085C002802D110A9487102E0AA
:104B7000012010A9487100231322022111A800F07E
:104B800045FA00F0B1FC7FE002A920460930085C3C
:104B90004F4908714C48007EE02831D14D480178DA
:104BA00010A8017104224849401DFBF7FBFA0522B9
:104BB000494912A80130FBF7F5FA4548017910A8D8
:104BC000817302A920460830095C10A8C17302A9AC
:104BD000E01D095C10A8017402A9A01D095C10A8C1
:104BE000417402A9601D095C10A88174012302E0D0
:104BF00007E048E045E0E0220F2111A800F006FAA6
:104C000042E03148007E262806D102222C49FF20AE
:104C1000F530FEF71DF937E0192010A9087102A937
:104C2000201D085C002802D110A9487102E0012073
:104C300010A9487100231322022111A800F0E6F9FF
:104C400022E02148007E262806D100201E49087651
:104C5000262010A9087102E01A2010A9087102A9E3
:104C6000201D085C002802D110A9487102E0012033
:104C700010A9487100231322022111A800F0C6F9DF
:104C800002E001E000E000BF00BF14480078FE2809
:104C900001D0FFF773FAFE20104908703C21064846
:104CA000FBF7A7FA3C22044902486038FDF732FAC4
:104CB00016B010BDD80D0020580E002000000020B6
:104CC000C1460008B80B0000740000202C00002032
:104CD000300000200C0000200D000020D00C00202F
:104CE00010B546480078A5287FD144484078A528CB
:104CF0007BD142488178FF3001300078801E8142AC
:104D000073D13E48C0783E490968090E88426CD18B
:104D10003A4800793A4909680902090E884264D183
:104D200036484079364909680904090E88425CD141
:104D30003248807932490968C9B2884255D100F0B9
:104D40008FFB2E48C079022806D0132816D02328BE
:104D500022D0E02847D11CE0062228490831294802
:104D6000FBF720FA2748FEF7BBFD0622234908314E
:104D7000182000F085F900F0B7FB35E022480078F4
:104D80000A38C1B21D48083000F014FA00F0ACFB3C
:104D90002AE0FEF7A5FE27E01848007A002820D177
:104DA0001A480078012813D1FFF7FCFCFF202D30B2
:104DB000FBF776FAFFF7DAFCFF202D30FBF770FAED
:104DC000FFF7F0FCFF202D30FBF76AFAFFF7CEFC6F
:104DD00000200E49087006220D49FF20F530FEF72D
:104DE00037F801E001E000BF00BF07480178034841
:104DF000FBF7FFF900210448017010BD20030020DB
:104E0000300000206C000020200400200000002062
:104E1000C14600080168002902D00B4A01681160F0
:104E20004168002902D0084A416851608168002920
:104E300002D0054A81689160C168002902D0024A07
:104E4000C168D16070470000680D002010B50446AD
:104E5000FF229932214666312046FBF7A3F9002054
:104E600010BD00007CB504460D460B4903C90191F5
:104E700000900121094801760C21C1752112684674
:104E8000417084702912C1700571052269460120A4
:104E900000F040F97CBD0000F0550008B40C002083
:104EA00038B504460748006800900121064801769D
:104EB0000921C1756846447002226946012000F04C
:104EC00029F938BDE4550008B40C002008B507489E
:104ED000006800900121064801760D21C17501226C
:104EE0006946104600F016F908BD0000F8550008A4
:104EF000B40C002038B50446074800680090012132
:104F0000064801760221C17568464470022269464E
:104F1000012000F0FFF838BDD8550008B40C00207F
:104F200008B5064800680090012105480176C17562
:104F300001226946104600F0EDF808BDD45500087E
:104F4000B40C00207CB506460C4615460B4903C937
:104F50000191009001210A4801760421C17568463B
:104F6000467021128170C4702912017145710622A8
:104F70006946012000F0CEF87CBD00000056000814
:104F8000B40C002038B505460C460948006800906E
:104F90000121084801760621C17568464570211235
:104FA0008170C47004226946012000F0B3F838BD56
:104FB000E8550008B40C0020FEB505460C460095E7
:104FC0002046E117490E09184904090E01912046AF
:104FD000E117490E0918C911C901611ACEB200279B
:104FE00009E080220220009900F094F800988030B7
:104FF0000090781CC7B201988742F2DB002E04D0E3
:1050000032460220009900F085F8FEBDFFB585B05C
:105010000C461D4605980290C82C27DDC821204665
:10502000FBF77CF8C0B20490C8212046FBF776F865
:10503000C8B20390002700260DE0781CC7B23B469B
:105040000095C821079A0298FEF7CAFC0298C8305A
:105050000290701CC6B204988642EEDB00230095D5
:10506000079A03990298FEF7BBFC06E0E1B2002321
:105070000095079A0598FEF7B3FC09B0F0BD000053
:10508000F0B5A7B006460F4614460025F520694640
:105090004871601CC1B201A801714671057940795F
:1050A000451900200AE03A5C01A90131431DCA54A8
:1050B000421D895C49198DB2411CC8B2A042F2DB85
:1050C000291201A88170C570601D6946087100F041
:1050D00028FA0022042105200007FBF7D1FA0A2054
:1050E000FBF7DEF80122042105200007FBF7C8FAD0
:1050F0006420FBF7D5F800F001FA054901A8FEF796
:10510000E1F8224639463046FFF7D0F827B0F0BD27
:1051100000440040F7B5A6B006461546962D02DDC0
:10512000012029B0F0BD012E04D120480078401C98
:105130001E49087028460B30C1B268460170EF2145
:10514000417001218170FF21C17001714171817134
:10515000C6713746A81C381887B2A81C0004010E77
:1051600068460172A81CC1B26846417200240CE076
:105170002798025D2046093000A901310A5427987A
:10518000005DC01987B2601CC4B2AC42F0DB3A12B9
:105190002046093000A901310A54401C0F5404492B
:1051A0006846FEF78FF80020BBE7000024000020CF
:1051B00000380140F0B587B004460D46182101A81B
:1051C000FBF717F820789F4908760846007E1A28D2
:1051D0007ED008DC02280DD003287FD0042879D0A7
:1051E000192878D192E01B2876D01C2875D0262863
:1051F000F7D1FEE0681E205C00282DD1681E205CDF
:105200009149C873E81E205C9049088008460078E0
:105210000102A81E205C08188C4908808A488089F1
:1052200009218901884202D00846874988810026E1
:105230000BE0701C215C844882898089401C824B71
:10524000988183488154701CC6B2281FB042F0DC9C
:1052500002208049087031E0681E205C012804D0DB
:10526000022806D0032816D10BE000207649888159
:1052700012E075488089C02802D0C0207249888118
:105280000AE071488089FF218131884202D00846B6
:105290006D49888100E000BF00BF00260BE0701C54
:1052A000215C694882898089401C674B98816848E5
:1052B0008154701CC6B2A81EB042F0DCFF206946C3
:1052C00008710023EE22012101A8FFF79FFEB5E03F
:1052D0002AE003E0A6E0B0E03CE074E06078EE286D
:1052E00006D1A078FF2803D104205A4908700CE0A9
:1052F000607856490880084600780002A178401876
:105300005249088003205349087097E00422611C29
:1053100001A8FAF747FF002069460872052201A993
:105320001920FFF7ADFE89E00422611C01A8FAF7FD
:1053300039FF0121684641730A22611C0E30FAF7D9
:1053400031FF002168460176152201A91A20FFF7D6
:1053500097FE73E00422611C01A8FAF723FF0020E6
:1053600069460872052201A91B20FFF789FE6079B2
:10537000FF2807D1A079FF2804D10020C04333497A
:1053800008801FE06078EE280CD1A078FF2809D1B2
:1053900031482E49088004202E49087000202F49EA
:1053A00008700FE0607929490880084600780002FB
:1053B000A17940182549088003202649087000205B
:1053C000264908703AE00422611C01A8FAF7EAFEB7
:1053D0000121684641730A22611C0E30FAF7E2FE91
:1053E000002168460176112201A91C20FFF748FE22
:1053F00024E00422611C1348FAF7D4FE0A22611C3F
:105400001048001DFAF7CEFE0E490A8868468280D1
:105410004988C18000210172052201A91B20FFF7E4
:105420002FFE0BE00420074908760A490870012284
:10543000611C1F20FFF724FE00E000BF00BF07B083
:10544000F0BD000074000020240C00202C0000207F
:105450002409002020000020FFEE0000240000208E
:10546000012101488170704720040020012101487A
:1054700081777047FC02002010B50749486807494A
:1054800000F020F8002805D0FEF70AFF0249486026
:105490000120087010BD00006400002010270000EB
:1054A00010B507480078002802D0012804D102E096
:1054B000FFF7E2FF01E000E000BF00BF10BD000009
:1054C00064000020024604480068801A884201D91E
:1054D000012070470020FCE71C0000200148807F6D
:1054E00070470000FC02002010B5FEF7D9FE02490B
:1054F00048600020087010BD6400002000B585B031
:1055000004200090022001900020029002200390CD
:1055100004200490694605200007FAF7BBFF05B098
:1055200000BD00B585B004200090012001900290DC
:1055300002200390694605200007FAF7ABFF05B08B
:1055400000BDFFB581B0054616461F46642E02DD3C
:10555000002005B0F0BD00241BE066206043401928
:1055600060300079002812D1662161434819324623
:105570000299FAF717FE6620604340196030067101
:10558000662060434019603047712046E1E7601CA7
:10559000C4B2052CE1DB0020DBE7000001000000C5
:1055A0005A5A00000000000000000000010203043D
:1055B00006070809000000000102030403040608AE
:1055C0000C10182030000000000100000000000056
:1055D00000000000010000000200000005000000C3
:1055E000080000000900000006000000070000009D
:1055F0000C000000000000000D000000030000008F
:1056000004000000000000001D0000000000000079
:1056100000040050400001000100000000040050A0
:10562000800001008080808386898C8F6680006680
:10563000C00067000067400067800067C000680026
:105640000068400068800068C00069000069400090
:1056500069800069C0006A00006A40006A80006AD0
:10566000C0006B00006B40006B80006BC0006C00E2
:10567000006C40006C80006CC0006D00006D40004C
:105680006D80006DC0006E00006E4000070C0108C8
:105690000B01090B010808020908020907020000B2
:1056A000DF430008DF4300086D3900089D3900081A
:1056B00001000000D4560008000000206400000033
:1056C000383800083857000864000020AC1C00007F
:1056D00048380008000000000000000080841E0020
:1056E00000000000000000000000000000000000BA
:1056F00000000000000000000000000000000000AA
:10570000000000000100000000000000E8030000AD
:105710000000000000000000000000000000000089
:105720000000000000000050020001000100000025
:0857300000040050000201001A
:04000005080000C12E
:00000001FF
