:020000040800F2
:10000000281A0020D50000086D1C0008BD19000842
:1000100000000000000000000000000000000000E0
:100020000000000000000000000000003520000873
:100030000000000000000000E91C0008DD250008A9
:10004000E7000008E7000008E7000008E7000008F4
:10005000E70000089B020008A5020008AF020008A4
:1000600000000000E7000008E7000008E7000008C3
:10007000E7000008E700000800000000E7000008B3
:1000800000000000E7000008000000000000000081
:10009000E700000800000000E7000008E700000893
:1000A000E7000008E7000008E7000008A52C0008AA
:1000B000B52C0008E7000008000000000000000068
:1000C0000348854600F0B4F8004800473D37000873
:1000D000281A00200448804704480047FEE7FEE74E
:1000E000FEE7FEE7FEE7FEE781260008C100000804
:1000F00030B50B46014600202022012409E00D46C0
:10010000D5409D4205D31D469540491B2546954047
:1001100040191546521E002DF1DC30BD70B500248B
:100120002546002801DA01244042002901DA012590
:100130004942FFF7DDFFAC4200D04042002C00D026
:10014000494270BDF0B51FB40646002082B0054696
:100150004024019100901BE0019922460F46304651
:1001600000F054F8049A059B801A994110D3104668
:100170001946224600F03AF8361A8F410197224676
:1001800001200021009F00F031F838184D41009007
:100190002046641E0028DFDC019B00982946324679
:1001A00007B0F0BD03460B439B0703D009E008C925
:1001B000121F08C0042AFAD203E00B780370401C17
:1001C000491C521EF9D27047D2B201E00270401CA5
:1001D000491EFBD270470022F6E710B513460A46C7
:1001E00004461946FFF7F0FF204610BD10B5202A3F
:1001F00004DB0146203A9140002010BD91402023AD
:100200009C1A0346E3401943904010BD10B5202AC4
:1002100004DB0846203AD040002110BD0B46D340F5
:10022000D0402024A21A91400843194610BD000076
:10023000064C0125064E05E0E36807CC2B430C3C39
:1002400098471034B442F7D3FFF73EFFB842000896
:10025000D8420008014605E0002001E0421CD0B26F
:100260006428FBDB0A46491E002AF5D170470000CE
:10027000034801E0411E88B20028FBDC7047000003
:100280006A18000000B50246134603E0FFF7F0FFCE
:10029000581E83B2002BF9DC00BD10B5012000F020
:1002A000D7F810BD10B5082000F0D2F810BD10B579
:1002B0000120C00200F0CCF810BD000070B504466B
:1002C0000D461F48C16801208847012001F034FF16
:1002D0000021242001F0F0FFF721112001F0ECFFB4
:1002E000E9B2222001F0E8FF00210E2001F0E4FF36
:1002F00000210D2001F0E0FF1148816800208847AF
:100300000F48016880208847002606E020780C4AC4
:1003100011688847641C701C86B2AE42F6DB084840
:100320008168012088474021084601F0C5FF00216F
:10033000412001F0C1FF032001F0FEFE70BD00006E
:100340009809002070B5044600252520005D02288C
:1003500003D00420E063012549E0206800680E21F5
:1003600088432168086020680068400840002168D0
:10037000086020492068884201D1012026E01D49FB
:1003800014312068884201D110201FE0194928311A
:100390002068884201D1801518E016493C31206858
:1003A000884201D1801411E01249503120688842FE
:1003B00002D10120000409E00E496431206888421E
:1003C00002D10120000501E0012000060949083999
:1003D000486001212520015500BF0021242001553E
:1003E00000BFA06B002802D02046A16B884728469A
:1003F00070BD00000800024010B504460120C00294
:10040000844205D101F0D8FF052000F07FF91AE001
:10041000012C14D103F0A2FE0B484078002812D121
:100420000948007800280ED00120074948700020B4
:100430000649087003F016F90449486003E0082CE7
:1004400001D103F08BFE10BD3000002034000020ED
:1004500010B50446054840692040002804D00348F0
:1004600044612046FFF7C8FF10BD000000040140B2
:1004700070B50346002200240020DAE001269640F1
:100480000D6835402C46002C77D04D68022D02D0E7
:100490004D68122D15D1D508AE001D462035A8593E
:1004A0005507EE0E0F25B5400646AE4330465607BB
:1004B000F60E0D69B5402843D508AD001E4620361E
:1004C00070514D68012D08D04D68022D05D04D6842
:1004D000112D02D04D68122D18D1986856000325B1
:1004E000B5400646AE4330465600CD68B540284379
:1004F00098605868012595400646AE433046102660
:100500004D6835402D0995402843586018685600BD
:100510000325B5400646AE4330460D79AD07AD0F15
:100520005600B54028431860D86856000325B540EA
:100530000646AE43304656008D68B5402843D86025
:10054000012636074D683540B54271D13C4D6D6B83
:10055000012635433A4E75633A4D9608B600A859C0
:1005600095072E0F0F25B5400646AE4330460525AC
:100570002D07AB4202D1002515E059E0324DAB42C8
:1005800001D101250FE0314DAB4201D102250AE036
:100590002F4DAB4201D1032505E02E4DAB4201D1D9
:1005A000052500E006259607360FB5402843254D62
:1005B0009608B600A851284D28680546A543284648
:1005C000012636044D683540B54202D10546254323
:1005D0002846214D286068680546A543284601261F
:1005E00076044D683540B54202D10546254328467C
:1005F000194D6860A8680546A543284601263605BA
:100600004D683540B54202D1054625432846124D76
:10061000A860E8680546A5432846012676054D688A
:100620003540B54202D10546254328460A4DE860CB
:10063000521C0D68D540002D00D01FE770BD000092
:100640000010024008000140000400500008005063
:10065000000C0050001C00500004014042694A4058
:1006600042617047002A01D0816100E081627047D9
:10067000024800680005000D704700000058014066
:10068000014800687047000024000020024800680C
:10069000401C0149086070472400002010B509483B
:1006A00000684021084307490860084600680221A5
:1006B000084304490860032000F006F800F018F829
:1006C000002010BD0020024070B504467D21C90005
:1006D00006480068FFF70CFD054600F011FF0022F8
:1006E0002146501E00F01EF8002070BD20000020A2
:1006F0007047000000BFC206D20E01219140024A9D
:10070000116000BF7047000080E100E000BFC2063A
:10071000D20E01219140024A116000BF70470000D3
:1007200000E100E070B504460D4616462946204615
:1007300001F09EFA70BD000070B504460D4600261B
:1007400076480068C007C00FA8420ED27348006800
:100750004008400028437149086008460068C00707
:10076000C00FA84201D0012070BD022120680840BE
:10077000022807D16A48C068F0218843A16808436D
:100780006749C8602078C007C00F00284CD0606857
:10079000022809D162480068012149040840400C40
:1007A000002824D10120DFE76068032809D15C48D4
:1007B0000068012149060840400E002817D1012099
:1007C000D2E76068012808D1554800680421084034
:1007D000800800280BD10120C6E75148006801219C
:1007E00049020840400A002801D10120BCE74C48DA
:1007F000C06880088000616808434949C860FFF705
:100800003FFF0646606802280FD107E0FFF738FF78
:10081000801B4449884201D90320A5E74048C068AD
:100820000C2108400828F1D134E0606803280FD17A
:1008300007E0FFF725FF801B3A49884201D90320D2
:1008400092E73748C0680C2108400C28F1D121E01C
:10085000606801280FD107E0FFF712FF801B3149C4
:10086000884201D903207FE72D48C0680C21084049
:100870000428F1D10EE007E0FFF702FF801B2949B1
:10088000884201D903206FE72548C0680C21084041
:100890000028F1D121480068C007C00FA8420ED936
:1008A0001E4800684008400028431C49086008466C
:1008B0000068C007C00FA84201D0012054E70421FE
:1008C00020680840042808D11548C068072109029B
:1008D0008843E16808431249C8600821206808403D
:1008E000082809D10E48C0680721C9028843216938
:1008F000C90008430A49C86000F044F80849C968BB
:10090000F02211400909084A515CC84007490860B3
:100910000320FFF7D9FE002026E700000020024058
:100920000010024088130000C6410008200000208B
:1009300001480068704700002000002000B5FFF764
:10094000F7FF0549C968072212021140090A034A44
:10095000515CC84000BD000000100240D6410008B4
:1009600000B5FFF7E5FF0549C9680722D20211402B
:10097000C90A034A515CC84000BD00000010024093
:10098000D6410008FEB500250026002700240020DF
:10099000019000902F48C5680C202840002847D0BF
:1009A000042804D008280ED00C2840D10EE0294895
:1009B000006810210840002802D02748009001E07C
:1009C0002648009042E0264800903FE00F20800437
:1009D0002840800C23490E5C032080052840800DB0
:1009E000471C1C48C068012109040840002807D0A2
:1009F0001B49714308463946FFF77AFB044614E069
:100A00001448006810210840002807D0124971439B
:100A100008463946FFF76CFB044606E00F49714370
:100A200008463946FFF764FB044600940EE000BF19
:100A300008484068072149030840400B019001988D
:100A4000401C01218140C803009000BF00BF0098F6
:100A5000FEBD00000010024000093D000024F4002B
:100A600000127A00DE410008F8B50446002520781F
:100A7000C007C00F00287DD0FE48C0680C21084088
:100A800008280BD0FB48C06808400C2813D1F9484F
:100A9000C06801210904084088420CD1F54800686B
:100AA000012149040840400C002863D060680028F8
:100AB00060D10120F8BD00BF0121090460688842AF
:100AC00005D1EC4800680843EA49086027E00521A1
:100AD0000904606888420ED1E64800680121890453
:100AE0000843E449086008460068012109040843F6
:100AF000E049086013E0DF480068012109048843E9
:100B0000DC4908600846006801210904084000909B
:100B100000BFD848006889008843D649086000BFF4
:100B20006068002813D0FFF7ABFD054606E0FFF72D
:100B3000A7FD401B642801D90320BBE7CD4800680E
:100B4000012149040840400C0028F0D012E0FFF7D2
:100B500097FD054606E0FFF793FD401B642801D989
:100B60000320A7E7C3480068012149040840400C5E
:100B70000028F0D1022120680840022868D1BD4831
:100B8000C0680C21084004280BD0BA48C06808404F
:100B90000C281DD1B748C06801210904084000286D
:100BA00016D1B4480068042108408008002804D009
:100BB000E068012801D001207CE7AE4840681F2191
:100BC00009028843216909020843AA4948603FE0B5
:100BD000E068002824D0A748006809218843E1681C
:100BE0000843A4490860FFF74BFD054606E0FFF700
:100BF00047FD401B022801D903205BE79D480068A0
:100C00000421084080080028F1D09A4840681F213C
:100C1000090288432169090208439649486017E0A0
:100C2000944800684008400092490860FFF728FD9A
:100C3000054606E0FFF724FD401B022801D90320EA
:100C400038E78C4800680421084080080028F1D16A
:100C5000102120680840102860D18648C0680C2107
:100C6000084000285BD18348006801214902084000
:100C7000400A002804D0A069002801D1012019E70A
:100C80007C48216A4068072252031040814219D9EA
:100C9000206A01F02BF8002801D001200AE77548EE
:100CA0004068072149038843216A08437149486025
:100CB000084640680002000A217F090608436D4982
:100CC000486018E06B484068072149038843216A5F
:100CD000084368494860084640680002000A217FCE
:100CE0000906084363494860206A00F0FFFF0028B6
:100CF00001D00120DEE6206A400B401C012181402A
:100D0000C8035C49C968F022114009095A4A515C7C
:100D1000C8405A4908600320FFF7D6FC49E0A069A3
:100D200000282CD053480068FF2101310843514965
:100D30000860FFF7A5FC054606E0FFF7A1FC401B95
:100D4000022801D90320B5E64A480068012149027A
:100D50000840400A0028F0D046484068072149036F
:100D60008843216A084343494860084640680002B6
:100D7000000A217F090608433E49486019E03D48C2
:100D80000068FF21013188433A490860FFF778FC89
:100D9000054606E0FFF774FC401B022801D903203A
:100DA00088E634480068012149020840400A0028CA
:100DB000F0D1082120680840082839D1606900284E
:100DC0001BD02C484030006901210843294940319B
:100DD0000861FFF755FC054606E0FFF751FC401B94
:100DE000022801D9032065E622484030006902212B
:100DF000084040080028F0D01AE01E484030006942
:100E0000400840001B4940310861FFF739FC0546A6
:100E100006E0FFF735FC401B022801D9032049E614
:100E20001448403000690221084040080028F0D1F1
:100E3000042120680840042877D100260D48806BE3
:100E400089060840002805D10A48806B08430949F3
:100E5000886301260A480068FF2101310840002804
:100E60001ED107480068084305490860FFF708FCE1
:100E700005460EE000100240C64100082000002098
:100E800000700040FFF7FCFB401B642801D90320E1
:100E900010E67A480068FF21013108400028F1D0AF
:100EA00000BFFF210131A068884205D17448006964
:100EB00008437349086130E0A06800280DD17048EC
:100EC0000069FF21013188436D49086108460069C6
:100ED000091588436A4908611FE005210902A068D5
:100EE00088420DD16648006901218902084364499E
:100EF00008610846006989150843614908610CE0EA
:100F00005F480069FF21013188435D490861084657
:100F10000069091588435A49086100BFA068002884
:100F200015D0FFF7ADFB054608E02FE0FFF7A8FB63
:100F3000401B5449884201D90320BBE55048006951
:100F4000012149020840400A0028EFD013E0FFF7D2
:100F500097FB054607E0FFF793FB401B4949884292
:100F600001D90320A6E5464800690121490208404D
:100F7000400A0028EFD1012E07D141484038806B4C
:100F8000310788433E494039886300BF606A0028C2
:100F900072D03B484038C0680C2108400C2869D00A
:100FA000606A022848D136484038006801210906A5
:100FB0008843334940390860FFF762FB054606E085
:100FC000FFF75EFB401B022801D9032072E52C4885
:100FD00040380068012149060840400E0028EFD142
:100FE000E16AA06A0843216B084325494039C96872
:100FF000FD2212049143084321494039C860084644
:1010000000680121090608431D4940390860FFF7BF
:1010100037FB054606E0FFF733FB401B022801D9EA
:10102000032047E51648403800680121490608407A
:10103000400E0028EFD01FE0114840380068012121
:10104000090688430E4940390860FFF719FB054639
:1010500006E0FFF715FB401B022801D9032029E514
:10106000074840380068012149060840400E002822
:10107000EFD101E001201DE500201BE500700040DC
:10108000401002408813000010B50446002C01D126
:10109000012010BD02215120015520680068402127
:1010A000884321680860204600F056F800206065FB
:1010B00000215120015500BF5020015500BF0020E4
:1010C000E7E701465120405C704710B50446002C0C
:1010D00001D1012010BD5120005D002805D1002163
:1010E00050200155204600F038F8022151200155CA
:1010F000206800684021884321680860A168606812
:101100000843E168084321690843616908430122F3
:101110005202A16911400843E1690843216A08436A
:10112000A16A084321680860A069000C04210840F6
:10113000616A0843216848602168E06A08612068A4
:10114000C069910088432168C86100206065012161
:10115000512001550020BDE770477047F8B504469F
:101160000E4617461D46002000905120005D0128C4
:1011700003D05120005D222873D1002E03D0002F10
:1011800001D0002D01D10120F8BD00BF5020005D2D
:10119000012801D10220F7E701215020015500BFAD
:1011A0005120005D012802D132215120015500203B
:1011B0006065A763A587E5872663A586E586A064A5
:1011C000E06401214903A06A88420DD100BF206874
:1011D000006888432168086020680068012149038D
:1011E00008432168086000BF20680068402108406B
:1011F000402804D020680068084321680860012165
:10120000C902E06888427DD16068002807D0FF21CC
:101210000531606888420CD1E08E012809D1206B2D
:1012200000882168C860206B801C2063E08E401E0F
:10123000E086E08E002820D101214903A06A88427F
:1012400005D1206800684910084321680860002221
:1012500001212046069B00F0C7FD002802D0032094
:1012600092E738E12068C068A16B0880A06B801C01
:10127000A063E08F401EE087D7E035E00022022126
:101280002046069B00F0B0FD002801D003207BE73C
:10129000206B00882168C860206B801C2063E08E72
:1012A000401EE086E08E00280AD101214903A06A91
:1012B000884205D120680068491008432168086009
:1012C000002201212046069B00F08EFD002801D05F
:1012D000032059E72068C068A16B0880A06B801CC0
:1012E000A063E08F401EE087E08E0028C6D16068D2
:1012F0000028C1D1002201212046069B00F074FD88
:10130000002800E00DE001D003203DE72068C06820
:10131000A16B0880A06B801CA063E08F401EE0875B
:1013200083E06068002807D0FF21053160688842AB
:101330000BD1E08E012808D1216B481C206308786E
:101340002168C860E08E401EE086E08E00281CD137
:1013500001214903A06A884205D12068006849102C
:10136000084321680860002201212046069B00F006
:101370003BFD002801D0032006E72068C068A16B70
:101380000870E08F401EE0874FE034E00022022129
:101390002046069B00F028FD002801D00320F3E63C
:1013A000216B481C206308782168C860E08E401ECD
:1013B000E086E08E00280AD101214903A06A884214
:1013C00005D12068006849100843216808600022A0
:1013D00001212046069B00F007FD002801D00320D4
:1013E000D2E62068C068C1B2A26B501CA063117025
:1013F000E08F401EE087E08E0028C7D1606800289B
:1014000013D1002201212046069B00F0EDFC0028AC
:1014100001D00320B8E62068C068C1B2A26B501C9E
:10142000A0631170E08F401EE08701214903A06A8C
:10143000884213D1002201212046069B00F0D4FCF3
:10144000002805D0606D02210843606503209BE6FB
:101450002068C06881B2009168460088012280211E
:101460002046069B00F0C0FC002805D0606D2021BE
:1014700008436065032087E6012151200155490397
:10148000A06A884220D120688068102108400009A5
:10149000002819D0606D02210843606500BF2068F4
:1014A00000680903884321680860206800680121FA
:1014B000490308432168086000BF00BF0021502095
:1014C000015500BF01205FE600BF002150200155FB
:1014D00000BF002058E6022056E60000042806D18E
:1014E0000649096904221143044A116105E00349D0
:1014F000096904229143014A1161704700E000E04C
:1015000070B504462546681E0949884201D9012064
:101510000CE0681E074948610321081F00F0A8FB82
:1015200000200449886107200861002070BD000088
:10153000FFFFFF0000E000E07047000010B5044628
:101540000020E06609492068884205D1E122920026
:101550000749084800F020F907492068884204D16B
:101560003C220649064800F017F910BD003801403A
:10157000080C0020200B002000440040900B0020AD
:10158000B00A0020F8B504462068C56920680768DD
:101590002807000F0090009800280BD12020284039
:1015A000002807D020203840002803D0204601F032
:1015B0006AF9F8BD20688668009800287ED0F00798
:1015C000C00F002804D1FF20213038400028F5D07A
:1015D000E807C00F00280BD0FF200130384000285A
:1015E00006D0012021680862E06E01210843E06610
:1015F0000220284000280AD0F007C00F002806D09B
:10160000022021680862E06E04210843E06604209D
:10161000284000280AD0F007C00F002806D0042078
:1016200021680862E06E02210843E0660820284035
:1016300000280ED020203840002803D1F007C00F2A
:10164000002806D0082021680862E06E08210843BF
:10165000E066E06E002841D020202840002806D017
:1016600020203840002802D0204601F00CF9E06E1E
:1016700008210840002805D12068806840210840E2
:10168000002826D0204601F0EDF82068806840212F
:101690000840002819D02068806888432168886045
:1016A000606E00280DD01A48616E8863606EFEF788
:1016B00049FE002812D0606E816B00E00FE0884781
:1016C0000CE02046FFF73AFF08E02046FFF736FF20
:1016D00004E02046FFF732FF0020E06669E70120C2
:1016E00000052840002811D0012080053040002846
:1016F0000CD00120000521680862202169200155D5
:101700006A2001552046FFF717FF52E700BF50E758
:101710004D28000810B50446002C01D1012010BD51
:10172000A069002800D000E000BF6920005D00280B
:1017300005D1002168200155204600F02CF8242115
:101740006920015520680068400840002168086051
:10175000606A002802D0204600F0C6FF204601F053
:10176000FFF8012800D1DAE7206840680921C902A2
:10177000884321684860206880682A21884321685E
:1017800088602068006801210843216808602046BD
:1017900001F022F8C3E7704710B503466A20C05C29
:1017A00020286AD1002901D0002A01D1012010BDD2
:1017B000012424039868A04208D11869002805D1A3
:1017C000C807C00F002801D00120F0E700BF682043
:1017D000C05C012801D10220E9E701246820C4543B
:1017E00000BF59655820C2525A20C25200BF24037C
:1017F0009868A0420AD11869002803D1204C5C20C7
:10180000C45220E0FF245C20C4521CE098680028E9
:101810000AD11869002803D1FF245C20C45212E0C9
:101820007F245C20C4520EE0012424079868A04263
:1018300009D11869002803D17F245C20C45202E03A
:101840003F245C20C45200BF0020D86622246A20B6
:10185000C45400BF00246820C45400BF18688068C6
:10186000012420431C68A06018680068FF2421340C
:1018700020431C682060002099E7022097E70000C1
:10188000FF01000010B504460C492068884208D1C9
:1018900001200B49087101F0E5FE0949086002F0DA
:1018A0005DFC08492068884206D10120064908717C
:1018B00001F0D8FE0449086010BD0000004400405B
:1018C0004C0000200038014044000020FEB50446D2
:1018D0000D4616461F46002001906920005D202815
:1018E0006AD1002D01D0002E01D10120FEBD0121C1
:1018F0000903A068884208D12069002805D1E807BB
:10190000C00F002801D00120F0E700BF6820005D73
:10191000012801D10220E9E701216820015500BF1B
:101920000020E066212169200155FEF7A9FE019003
:10193000502006535220065325E05220005B401EE3
:1019400081B2522001530097002280212046019B42
:1019500001F070F9002801D00320C7E70121090335
:10196000A06888420BD12069002808D10295029D09
:101970002888C005C00D21688862AD1C03E0287866
:101980006D1C216888625220005B0028D5D1009729
:10199000002240212046019B01F04CF9002801D093
:1019A0000320A3E720216920015500BF0021682002
:1019B000015500BF002099E7022097E700BFFEE72E
:1019C00070B58AB006460D46022D02DD01200AB030
:1019D00070BD18212348FEF7FEFB00243EE00C20DA
:1019E0006043821907CA02AB07C36846007A0C211C
:1019F00048431C49401802A90EC90EC000BF1A482E
:101A0000C06A022108431849C8620846C06A022118
:101A10000840019000BF00BF6A46108A059001206F
:101A20000690002007900320089005A90398FEF770
:101A30001FFD6A46118A01220398FEF713FE6A46CB
:101A4000907C002804D16946087A00F02BF803E066
:101A50006946087A00F00AF8601CC4B2AC42BEDBEA
:101A60000020B4E7280900200010024010B5044609
:101A70000C2060430A494018008900280DD00C2230
:101A800062430B46D21811890C226243D218506867
:101A90000122FEF7E7FD002010BD0120FCE7000059
:101AA0002809002010B504460C2060430A4940185C
:101AB000008900280DD00C2262430B46D2181189F0
:101AC0000C226243D21850680022FEF7CBFD0020A2
:101AD00010BD0120FCE700002809002010B50446D5
:101AE0000C20604309494018008900280CD00C22C2
:101AF00062430B46D21811890C226243D2185068F7
:101B0000FEF7ACFD002010BD0120FCE728090020F5
:101B100000B587B000BF2148C06A022108431F49B1
:101B2000C8620846C06A02210840019000BF00BF99
:101B3000012003900490032005900120029002A947
:101B40001748FEF795FC012211461548FEF78AFD5D
:101B50000220029002A91248FEF78AFC042002909B
:101B600002A90F48FEF784FC01208002029002A91E
:101B70000B48FEF77DFC0120C0020290094803904B
:101B800002A90748FEF774FC002211460720FEF761
:101B9000C9FD0720FEF7BAFD07B000BD00100240E6
:101BA00000040050000011101FB50B4B0FCB6C460A
:101BB0000FC4FFF7ADFF684602F05CF800F066FB6B
:101BC00000F03AFA00F090FB122802D100F094FBEA
:101BD00001E000F090FB1FBDA8420008FEB50546DD
:101BE0000C460020019000902E4600270520FEF7AD
:101BF00081FDFF2C09DC7D2212012146304601F0D7
:101C00007BFD002830D00120FEBDFF212046FEF7DD
:101C100085FAC0B20190FF212046FEF77FFAC8B2D4
:101C2000009000270CE07D221201FF21304601F0D8
:101C300063FD002801D00120E6E7FF36781CC7B21B
:101C400001988742EFDBC820FEF71CFB7D221201C2
:101C50003046009901F050FD002801D00120D3E763
:101C6000FF209130FEF70EFB0020CDE7704700000B
:101C700010B5002819DA1A4A03071B0F083B9B0806
:101C80009B00D2588307DC0EFF23A3409A438B07A7
:101C90001B0E8407E40EA3401A43114B0407240FC4
:101CA000083CA408A4001A5118E00E4A03231B02A2
:101CB000D21883089B00D2588307DC0EFF23A34071
:101CC0009A438B071B0E8407E40EA3401A43054B6F
:101CD000032424021B198408A4001A5110BD00001B
:101CE0001CED00E000E100E07047000010B5014687
:101CF000002300222048C068F0242040002829D179
:101D00001D48806B012424072040002806D01B4872
:101D100000680324E4022040034613E01648806B69
:101D2000012424072043144CA063144800680324B2
:101D3000E402204003461048806B01242407A0439E
:101D40000D4CA0630320C002834203D1C000814236
:101D500000D101220A480068400840001043084CA6
:101D6000206020460068C007C00F904201D00120CB
:101D700010BD0020FCE70000001002400070004091
:101D80000020024010B5012000F0D6F99F2111205B
:101D900000F092FAFF21242000F08EFA002140206A
:101DA00000F08AFA0021412000F086FA052000F0B8
:101DB000C3F90248C1680020884710BD9809002077
:101DC00010B5012000F0B8F9FF21112000F074FADD
:101DD0000021402000F070FA0021412000F06CFA50
:101DE000002000F0A9F910BDFFB581B004460E46F1
:101DF0001D460027FEF744FC0746039800283FD104
:101E000033E0681C002830D0002D04D0FEF738FCE9
:101E1000C01BA84229D920684068E0218843216876
:101E200048602068006840218843216808600121DB
:101E30004903A06A88420DD100BF2068006888432A
:101E4000216808602068006801214903084321686F
:101E5000086000BF01215120015500BF0021502022
:101E6000015500BF032005B0F0BD206880683040F8
:101E7000B04201D1012000E000200028C1D03DE0A7
:101E800032E0681C00282FD0002D04D0FEF7F8FBAC
:101E9000C01BA84228D920684068E02188432168F7
:101EA000486020680068402188432168086001215B
:101EB0004903A06A88420DD100BF206800688843AA
:101EC00021680860206800680121490308432168EF
:101ED000086000BF01215120015500BF00215020A2
:101EE000015500BF0320BEE7206880683040B04243
:101EF00001D1012000E000200028C2D10020B2E77B
:101F000010B50348FFF7C0F800F004F810BD00005A
:101F10004009002010B51248FFF7D3F800281DD162
:101F200010480F49086008210D48C16100218160F7
:101F30004161016181620721C1620021C1600162CA
:101F400001214902816100214162FF2005300449DD
:101F5000486000F009F80248FFF7B7F810BD00002C
:101F6000400900200030014000B587B0142102A8CC
:101F7000FEF731F900BF2248C06A01210843204919
:101F8000C8620846C06AC007C00F019000BF00BF0A
:101F900000BF0846C06A012108431949C8620846C3
:101FA000C06AC007C00F019000BF00BF2020029090
:101FB0000220039001200490032005900020069049
:101FC00002A905200007FEF753FA802002900020A6
:101FD00006900220049002A905200007FEF748FAA7
:101FE0004020029002A905200007FEF741FA0448AC
:101FF000406B0121090308430149486307B000BD54
:1020000000100240F8B504460D4616460027074862
:10201000006833462A46214600900548FFF79EF89F
:102020000746002F01D0FFF76BFFF8BD40000020EE
:10203000400900207047000010B5002000F07CF837
:10204000802000F027F8012000F076F800214020E1
:1020500000F032F90021412000F02EF900F094F850
:10206000072000F0A7F8042000F048F9012000F054
:1020700073F8002000F02FF8FF2000F07EF80448ED
:1020800000F0C9F8012000F036F8FFF77BFE10BD24
:10209000FF03000070B50546012000F0DFF804469C
:1020A0006406640E2046284304462146012000F0C1
:1020B00003F970BD70B504461D2000F0CFF8054649
:1020C0002846F121084061000843C5B229461D2079
:1020D00000F0F2F870BD70B504461D2000F0BEF8A7
:1020E00005462846FE2108402043054629461D2076
:1020F00000F0E2F870BD70B50446262000F0AEF89E
:1021000005462846F7210840E1000843C5B22946A4
:10211000262000F0D1F870BD70B50446312000F0E3
:102120009DF805462846F8210840204305462946E3
:10213000312000F0C1F870BD70B50546012000F0F7
:102140008DF80446F82004402046284304462146E2
:10215000012000F0B1F870BD70B504461E2000F0FB
:102160007DF805462846FB210840A1000843C5B27A
:1021700029461E2000F0A0F870BD10B50446214687
:10218000222000F099F810BD10B5094841790620C9
:1021900000F092F80648401D4178072000F08CF8C6
:1021A0000348401D8178082000F086F810BD00002B
:1021B0007442000810B5044687214D2000F07CF8D9
:1021C0000248015D092000F077F810BD2C4200089C
:1021D00070B504461D2000F041F805462807000FA1
:1021E00021010843C5B229461D2000F065F870BDE5
:1021F00070B504460320FFF78FFF1E2000F02EF875
:1022000005462807000F21010843C5B229461E20B4
:1022100000F052F870BD38B504461E2000F01EF8DC
:10222000694608701F2000F019F8014668464170A1
:102230000078FC210840210AFC2291430843C1B2E6
:1022400068460170447001781E2000F035F8684639
:1022500041781F2000F030F838BD000070B504460A
:1022600009488168002088476006400E064A1168C8
:10227000884705484168FF2088470546024881682D
:1022800001208847284670BD9809002010B500221B
:10229000012189020748FEF7E5F9C820FDF7DAFFBA
:1022A000012291020348FEF7DDF9FF20F530FDF72A
:1022B000D1FF10BD0004005070B504460D4609481A
:1022C000816800208847802222431046054A116811
:1022D00088470448016828468847024881680120E9
:1022E000884770BD9809002010B54220FFF7B6FF5F
:1022F0000446204610BD70477047000070B5044684
:10230000052C01DC204600E0052004460120FFF7F3
:1023100013FF022C01D0032C04D100212620FFF74B
:10232000CBFF03E008212620FFF7C6FF022C03D0D5
:10233000042C01D0052C12D102213620FFF7BCFF5E
:102340007F213A20FFF7B8FF3120FFF787FF0546CE
:102350000120054329463120FFF7AEFF15E0032198
:102360003620FFF7A9FF3120FFF778FF05466D08FB
:102370006D0029463120FFF79FFF40212F20FFF7F6
:102380009BFF00213020FFF797FF61006118094A89
:10239000505CFFF71DFF61006118064A89184878F4
:1023A000FFF726FF61006118024A89188878FFF755
:1023B00081FE70BD9442000870B500251220FFF721
:1023C0004DFF044640202040402830D11E20FFF71A
:1023D00045FF064604203040042825D100210D2069
:1023E000FFF76AFF1320FFF739FF22490870012128
:1023F0002048417020488168002088471E480168B5
:102400000020884700BF07E01B484168FF2088473D
:102410001A494855681CC5B216480078A842F3DC32
:102420001548816801208847FFF7ACFC1CE00820B4
:102430002040082808D101210E4881700020FFF7B4
:102440004DFBFFF79FFC0FE004202040042809D13A
:10245000E007C00F002802D0FFF794FC04E0FFF76C
:10246000AFFC01E0FFF78EFCFF211220FFF724FFF5
:1024700070BD0000A80A002098090020A8090020CB
:102480000FB470B505460E46002400BF20E028209A
:10249000604311490858002819D1104800684119B3
:1024A000282060430C4A11502820604311464018F0
:1024B000466028216143891808460830202206A971
:1024C000FDF770FE012070BC08BC04B01847641C06
:1024D000202CDCDB0020F6E7800300202800002011
:1024E00070B58EB005460E4614466846047618222E
:1024F00008A9FDF757FE31462846079B069AFFF7C5
:10250000BFFF0EB070BD0000F0B587B005460024D7
:102510003048056000BF59E0282060432E49085824
:10252000002852DD282060430858A8424DDA2820B0
:1025300060434018036AC2698169406A6E460EC6EC
:102540000390282060432449401808300690282032
:1025500060434018406805900C21069841180A789D
:1025600013464A78120213438A7812041343C97837
:1025700009060B43082141180E7832464E78360280
:1025800032438E7836043243C97809060A43077904
:10259000394647793F02394387793F043943C67941
:1025A0003606314306463778384677783F02384357
:1025B000B7783F043843F67836063043059EB04777
:1025C000002128206043044A1150641C202CA3DB06
:1025D00007B0F0BD280000208003002010B5064899
:1025E00000680A3004490860FEF750F802480068A5
:1025F000FFF78AFF10BD00002C00002030B593B01B
:102600001D48806B0121090708431B4988631B484B
:1026100000680321C90288430121C90240181749F3
:1026200008600220019001200490102005900220F3
:102630000A9000210B9141040C9141050D9101A8D4
:10264000FEF712FA01200E9003200F900020109048
:102650001190129001210EA8FEF76EF8FEF768F9AE
:1026600005466421FDF744FD0446FEF749FF0420BA
:10267000FEF734FF13B030BD001002400070004080
:1026800015480068FF2101310843134908600846D6
:10269000C068124908401049C860084600681049DF
:1026A00008400D490860084680684008400088607E
:1026B00008460068012189048843074908600846E4
:1026C000C068FD21090488430349C86000200861EF
:1026D000C803044988607047001002400C40FF881E
:1026E000F6FFF6FE00ED00E0818CC907C90F002956
:1026F00008D001684968012252049143826A11435B
:10270000026851600222416A1140002907D0016825
:102710004968D2039143C26A11430268516004229E
:10272000416A1140002907D00168496812049143A9
:10273000026B1143026851600822416A114000296E
:1027400007D00168496812039143426B1143026844
:1027500051601022416A1140002907D00168896840
:1027600012029143826B1143026891602022416AF8
:102770001140002907D00168896812029143C26B99
:102780001143026891604022416A1140002915D02E
:102790000168496892039143026C114302685160D9
:1027A00001221205016C914208D101684968032297
:1027B00052059143426C1143026851608022416A84
:1027C0001140002907D00168496812039143826CC7
:1027D000114302685160704738B504460025002057
:1027E000E066FDF74DFF05462068006808210840B7
:1027F00008280BD114482B4600228904009020465B
:1028000000F018FA002801D0032038BD20680068C5
:102810000421084004280BD10B482B46002209054F
:102820000090204600F006FA002801D00320ECE7D3
:102830002021692001556A20015500BF0021682030
:10284000015500BF0020E0E7FFFFFF0170B505461E
:10285000AC6A00215A200153522001532046FEF752
:102860006DFE70BD01680968FF2221329143026844
:102870001160016889684908490002689160202256
:102880006A210A547047F8B504465C20075B6A2049
:10289000005D22283AD12068406A85B201210903EF
:1028A000A06888420AD12069002807D1666D2846B1
:1028B00038403080606D801C606505E0F8B22840CB
:1028C000626D511C616510705A20005B401E81B220
:1028D0005A200153002914D120680068FF212131BA
:1028E00088432168086020688068400840002168AB
:1028F000886020216A2001552046FEF7C3FF002092
:10290000F8BD2046FEF7BEFF0020F9E72068806989
:1029100008210843216888610220F1E770B5044668
:102920000D460B48854207D12278FF23F533611C01
:102930000848FEF7CBFF09E00748854206D1227818
:10294000FF23F533611C0548FEF7C0FF70BD000092
:1029500000380140200B002000440040B00A002055
:10296000FEB504460025102600200290A9492068E3
:10297000884201D1012000E00020002800D000E0C2
:1029800000BF2169A068084361690843E169084301
:10299000054620680068A04908402843216808606F
:1029A00020684068032109038843E16808432168DF
:1029B0004860A56997492068884201D1012000E05C
:1029C0000020002801D1206A0543206880680B217F
:1029D0000902884328432168886000BF8F49206826
:1029E000884217D18E48C0688007800F002806D023
:1029F000012808D0022804D0032808D105E00126C8
:102A000007E0022605E0042603E0082601E0102680
:102A100000BF3AE083492068884217D18048C068E7
:102A20000C210840002806D0042808D0082804D02B
:102A30000C2808D105E0002607E0022605E0042660
:102A400003E0082601E0102600BF1EE0714920685F
:102A500088421AD17248C0680321890208400028C0
:102A600008D001218902401A08D0401A04D0401A27
:102A700008D105E0002607E0022605E0042603E071
:102A8000082601E0102600BF00BF00BF6149206892
:102A9000884201D1012000E00020002855D0002507
:102AA000042E1AD004DC002E07D0022E1CD108E020
:102AB000082E16D0102E17D117E0FDF73FFF054660
:102AC00016E05748403800681021084000090028E7
:102AD00001D0554D00E0554D0AE0FDF753FF054686
:102AE00006E00125ED0303E000BF0120029000BFD6
:102AF00000BF002D0AD0606841004018A84203D8EA
:102B000060680003A84202D2012002907FE02846BC
:102B1000FF210131676800F095F9626852080023CF
:102B2000801859413A4601910090FDF70BFB05468C
:102B300003200002854205D33D48854202D8206823
:102B4000C56064E00120029061E0042E42D006DC02
:102B5000002E09D0012E14D0022E53D11EE0082ED3
:102B600045D0102E4ED14EE0FDF7E8FE61684908D1
:102B7000471838466168FDF7BBFA80B22168C86023
:102B800044E0FDF7EDFE6168490847183846616882
:102B9000FDF7AEFA80B22168C86037E020484038BF
:102BA0000068102108400009002809D061684A081F
:102BB0001D4BD018FDF79CFA80B22168C86008E070
:102BC00061684A08194BD018FDF792FA80B2216863
:102BD000C8601BE0FDF7D6FE616849084718384613
:102BE0006168FDF785FA80B22168C8600EE061680F
:102BF0004A080123DB03D018FDF77AFA80B2216876
:102C0000C86003E000BF0120029000BF00BF02982F
:102C1000FEBD000000480040F369FFEF00380140AE
:102C2000401002400044004000093D000024F40030
:102C3000FFFF0F00FFB581B004460D4617460A9E00
:102C400024E0701C002821D0002E05D0FDF718FDCF
:102C50000499401AB04219D920680068FF21A131B7
:102C60008843216808602068806840084000216827
:102C700088602021692001556A20015500BF00218C
:102C80006820015500BF032005B0F0BD2068C06971
:102C90002840A84201D1012000E00020B842D0D055
:102CA0000020F1E710B50248FEF76CFC10BD0000F3
:102CB000200B002010B50248FEF764FC10BD000098
:102CC000B00A002000B587B000BF5748C06A012194
:102CD00008435549C8620846C06AC007C00F019042
:102CE00000BF00BF00BF0846C06A012108434E492B
:102CF000C8620846C06AC007C00F019000BF00BF8D
:102D000000BF0846C06A012108434749C862084617
:102D1000C06AC007C00F019000BF00BF00BF0846D7
:102D2000C06A012108434049C8620846C06AC0071A
:102D3000C00F019000BF00BF0846806B012149040D
:102D40000843394988630846406B012189030843D9
:102D50003549486301F010FA0220039000200490E6
:102D600002200590000202900420069002A905208E
:102D70000007FDF77DFB082002900420069002A9C1
:102D800005200007FDF774FB01208002029004205B
:102D9000069002A905200007FDF76AFB2348244995
:102DA00008604B20C0014860002121488160C1605B
:102DB000016181610C214161FEF7ACFC002801D06A
:102DC00000BFFEE71B481C490860E1200002486084
:102DD000002119488160C160016181610C2141615C
:102DE000FEF798FC002801D000BFFEE73C22134903
:102DF0000F48FEF7D1FC002202211C20FDF792FCB7
:102E00001C20FDF783FCE12292000D490A48FEF7E1
:102E1000C3FC012202211B20FDF784FC1B20FDF7CF
:102E200075FC07B000BD00000010024000440040E7
:102E3000B00A002000380140200B0020900B002039
:102E4000080C0020F8B582B28BB2040C0D0C1046B1
:102E50005843002126465E43370C360480197941D9
:102E600016466E43370C36048019794126466E4368
:102E70008919F8BD30B47446641E2578641CAB42D1
:102E800004D3635D5B00E31830BC18471D46F8E7C8
:102E900002E008C8121F08C1002AFAD17047704723
:102EA000002001E001C1121F002AFBD17047000081
:102EB000FFB5B5B007460E46CE2101A8FDF78BF948
:102EC000204800680090002500BFF01DC1B2684690
:102ED0008170807845191C48008801126846C170CD
:102EE000C078451918480088C1B268460171007958
:102EF000451968463799417140794519002409E020
:102F0000395D6A46A01D11546946085C401985B2B6
:102F1000601CC4B2B442F3DB6A46A11D3898505419
:102F20006946A01D085C401985B22912E01D1154A4
:102F3000401C155468468078811C6846FEF74EFE9A
:102F400039B0F0BDC04100080200002010B50446B1
:102F5000002C02D0012C0CD105E0002201210648F2
:102F6000FDF780FB06E0012211460348FDF77AFBDE
:102F700000E000BF00BF10BD0004005010B50446C3
:102F8000002C02D0012C16D10AE0002202210B48AD
:102F9000FDF768FB012204210848FDF763FB0BE005
:102FA000012202210548FDF75DFB002204210348B0
:102FB000FDF758FB00E000BF00BF10BD000400504B
:102FC00008B50020009013220121684601F046F860
:102FD00008BD000010B503488189034800F074FF64
:102FE00010BD00005403002054000020F0B587B04D
:102FF00004460E46182101A8FDF7EDF820781B289D
:1030000036D008DC02286ED003286DD019280BD0EA
:103010001A286AD116E01C284ED01F287ED02528F9
:1030200060D02628F5D161E00422611C01A8FDF7DB
:10303000B9F8002069460872052201A9192000F09C
:103040006DFFC4E00422611C01A8FDF7ABF801216B
:10305000684641730A22611C0E30FDF7A3F8002177
:1030600068460176152201A91A2000F057FFAEE04C
:103070000422611C01A8FDF795F80020694608723A
:103080002078052201A900F049FF6079FF2812D0BD
:10309000A079FF280FD060794E4908800846007853
:1030A0000002A17940184B49088009204A4948701C
:1030B00000204A49087000BF0422611C01A8FDF7E6
:1030C00071F80121684641730A22611C0E30FDF738
:1030D00069F8002168460176112201A91C2000F040
:1030E0001DFF74E073E020E05FE06FE026203C49C4
:1030F00008760422611C3A48FDF754F80A2221465A
:103100003748001DFDF74EF835490A886846828029
:103110004988C18000210172052200E004E001A974
:103120001B2000F0FBFE52E051E0701E205C0028E6
:1031300022D1F01E205C2749088008460078010251
:10314000B01E205C08182349088000250BE0681C8D
:10315000215C244882898089401C224B9881224826
:103160008154681CC5B2301FA842F0DC04201A4903
:1031700008700820487017E0701E205C012802D1FA
:1031800000201849888100250BE0681C215C154847
:1031900082898089401C134B988113488154681C94
:1031A000C5B2B01EA842F0DC11E060780949088081
:1031B000084600780002A1784018064908800920D6
:1031C0000549487000200549087000E000BF00BFB5
:1031D00007B0F0BD3C00002030000020340000208B
:1031E00064030020540300205400002003460A46D4
:1031F0000B2A01DA10467047002109E0585CEF28DD
:1032000004D1481C185C012800D103E0481C81B29D
:103210009142F3DB00BF914201DB1046EBE7084629
:10322000E9E7000010B52F49487800F065F800285C
:1032300056D02D480078052840DA2A484078030007
:10324000FFF718FE0F3A090D0A3A3A113617251BF7
:103250002B3A2E333A0000BF00F0A6FD2DE00120EE
:1032600000F08CFD29E021480188012000F0E8FDF4
:1032700023E0012000F058FD1FE0962200210120EC
:1032800000F0BEFDFF202D30FCF7FCFF15E01749D4
:103290000888012100F02AFD0FE000F05BFD00BF6F
:1032A0000421012000F092FD07E000F0E3FD04E0BE
:1032B000012000F0F3FD00BF00BF0FE000200A492D
:1032C0000870084948700A48C07D012803D00848A2
:1032D000C07D022802D102200649087000F022F8C1
:1032E00010BD000030000020340000203C00002011
:1032F000000900200000002010B50446072C01D072
:10330000082C06D106494868FF212D3100F0F2FE55
:1033100010BD03494868642100F0ECFEF8E70000A6
:103320003400002010B500F09DF90149486010BD3F
:103330003400002010B56248C07D0C2874D008DC31
:103340000300FFF797FD0AB9192C9A604D4E869934
:1033500087B9192869D008DC0D2867D00E286FD0EE
:103360000F286ED018286DD1A1E01D286BD01F2822
:103370006AD04728F7D19EE051488038007800286D
:103380000CD15049087050484078012803D10220E0
:103390004D49487002E000204B4948708DE0484894
:1033A0008038007800281AD146490870464840788D
:1033B000022811D144480078032809D10A20424943
:1033C0004870FF20F530FCF75DFFFFF7ABFF06E02C
:1033D00000203D49487002E000203B4948706CE005
:1033E0006BE037488038007800280BD135490870E9
:1033F00035480078042802D100F02AFC02E00020C1
:103400003149487059E02E48807D05281DD12C484F
:103410008038007800280AD12A49087005212848F8
:10342000803800F043FC07E028E041E033E005216C
:103430002348803800F03AFC00202349487007E018
:1034400033E033E038E034E034E000201E494870D7
:1034500033E032E01A4880380078002808D1FFF7BE
:10346000B9FD00201749087006201749487002E08E
:1034700000201549487020E01FE01EE01048803809
:103480000078002806D1FFF79BFD00200D49087049
:103490000D49487011E00A4880380078002803D1AF
:1034A000084908700849487007E006E005E004E0B4
:1034B00003E002E001E000E000BF00BF10BD00003B
:1034C00000090020340000203000002070477047C1
:1034D0007047000010B57D21C9000F48006800F05A
:1034E00009FE002815D00D480078002805D1FEF708
:1034F000D9FA01200949087005E00020FEF7B6FA64
:1035000000200649087000F0ADF80349086001206A
:1035100010BD0020FCE700000C0000200800002087
:1035200008B51048006800900F491048006800F086
:10353000E1FD002815D00E48007806280ADA02229C
:103540000121684600F08AFD09480078401C0849BE
:10355000087002E002200749087000F083F8034970
:10356000086008BDC4410008B80B0000140000202A
:10357000180000200000002010B572B6FDF78EF88C
:10358000FFF73CF800F062F8FEF7C4FC00F00AF820
:10359000FFF798FB00F05CF9FEF706FB00F02AF855
:1035A00062B610BD00B585B00220009001200190E8
:1035B0000020029003200390694605200007FCF7D5
:1035C00057FF0022022105200007FDF74BF80120DC
:1035D000000300900120029069460548FCF748FF6F
:1035E0000122022105200007FDF73CF805B000BDCF
:1035F0000004005000B587B000BF1248C06A012126
:1036000008431049C8620846C06AC007C00F01904D
:1036100000BF00BF0120029003900490002005909D
:103620000948039002A905200007FCF721FF0022AA
:1036300011460520FDF776F80520FDF767F807B07D
:1036400000BD000000100240000011100EB5044A39
:1036500007CA6B4607C301216846FEF7B1F90EBDE4
:103660002042000801480068704700002C0000203C
:103670000FB400B587B0182101A8FCF7ACFD08A86D
:10368000007801280DD116490A8868468280498849
:10369000C18000210172052201A9192000F03EFC21
:1036A00019E008A80078022815D10D490A88684653
:1036B00082804988C1800A220949091D0E30FCF721
:1036C00071FD01216846417300210176152201A98F
:1036D0001A2000F023FC07B008BC04B01847000013
:1036E0006403002001B582B0012201A902A8FEF7FF
:1036F00089FC684600790EBD70B505460E46144635
:1037000000210D488170FFF7ADFF0B49486031463D
:103710002846FCF7D3FD08E007494868214600F039
:10372000E9FC002801D0012070BD03488078002802
:10373000F2D00020F8E70000A80A0020FFF71CFFE5
:10374000FCF796FF36490880002036490871364953
:103750000871002135484176817596218038FCF743
:103760003AFD00213148C17503203149087000F04D
:10377000F5FC01202F49087050E0FFF7ABFE2D4803
:103780000078002806D0012807D002280BD0032893
:103790000AD105E000F09CFC07E0FFF7C1FE04E061
:1037A00000F0B4FC01E000E000BF00BF204800785A
:1037B00000280AD01E484078002804D000F050F8B5
:1037C000FFF730FD01E000F039F81B484078012890
:1037D00004D100F0DBF9002117484170124800794C
:1037E00001280BD1104908681E2100F083FC002835
:1037F00004D000200C49087100F0E0F80948007975
:1038000001280BD1074908681E2100F073FC00282D
:1038100004D000200349087100F02CF8ADE7000047
:1038200002000020440000204C000020000900207D
:103830003000002000000020A80A002010B500225F
:10384000012109030148FCF70DFF10BD00040050E1
:1038500010B50122022105200007FCF703FF10BD6F
:1038600010B5012211030248FCF7FCFE10BD000058
:1038700000040050F8B54E48018B408B081A85B201
:1038800000260024002000900027202148482030F6
:10389000817200BF29464748FFF7A8FC0646AE42A2
:1038A0006DDA4449F01D095C43488175807D010251
:1038B000404A30460830105C0818801EC1B23E48AD
:1038C00081753046093080B20090002408E00098ED
:1038D00000193849085C384980390855601C84B2A1
:1038E0003548807DA042F2DC3249B01D085C0128D9
:1038F00006D002280AD007280ED0082818D111E0D7
:1039000001212D480176FFF7E1FD12E002212A484E
:103910000176FFF7DCFD0CE0072127480176FFF771
:1039200009FD06E0082124480176FFF7D1FD00E0FB
:1039300000BF00BF2048807D07460B37BD421ADD1F
:10394000002405E038191B49085C0855601C84B246
:10395000E81BA042F6DCE81B84B204E00020154915
:103960000855601C84B2AC42F8DBE81B85B200212C
:103970001148817504E000210F48817501E000E0E5
:1039800088E700BF0C48817D8038FCF724FC0021CB
:103990000948C175E12189000648FCF71CFCE122B9
:1039A0009200044902484038FDF7F6FEF8BD0000D9
:1039B000600B0020080C00200009002010B5002436
:1039C0006A48017E408B081AC4B220216748203023
:1039D000817267480078F5287ED16548C078001D5F
:1039E000A04216D162480079E22813D1604840799C
:1039F000012802D0122808D103E001205D49087097
:103A000007E002205B49087003E002205949087072
:103A100000BF9EE056480079E0283BD15648007828
:103A2000401C55490870084600780328F1D1002051
:103A300008704F48807C002810D103204C494874FE
:103A40004E480088001288744C480078C874E02200
:103A500008214748113000F001FB18E04448807C01
:103A6000434908710846007D48720846407D8872C7
:103A70000846807DC8720846C07D08730846007EEF
:103A80004873E0220A213A48001D00F0E7FA00F0EE
:103A900065FB5EE036480079B12807D134484079AB
:103AA000002856D002203349087052E0344800788C
:103AB00018380300FFF7DEF90F0919252D394545A0
:103AC0003C45454545453A3B45002948C1780222D9
:103AD000001D00F0C3FA00E038E025480079002816
:103AE00002D10320234908702FE02648007E2628B3
:103AF00006D102222449FF202D30FEF7F1FC24E0FC
:103B000000BF2048007E262802D100201D490876EB
:103B100000BF1C48007E262806D101221A49FF203A
:103B20002D30FEF7DDFC10E000BF00BF00BF00BF7E
:103B30000F48C1781322001D00F090FA00F00EFB30
:103B400003E002200B49087000BF02E0022009498F
:103B5000087000200A490870012008723C220449BC
:103B600002484038FDF718FE10BD0000F00A0020A2
:103B7000900B002000000020100000203C000020DE
:103B80001C090020640300207136000810B52C4881
:103B90000078A52847D12A484078A52843D128484D
:103BA0008178FF3001300078801E814237D124486F
:103BB000C078244909880912884237D12048007901
:103BC00020490988C9B2884230D11D48407902286D
:103BD00004D013280BD023281CD113E00622184947
:103BE000891D182000F09AF900F0B8FA16E016487E
:103BF00000780838C1B21248801DFFF7F7F900F0CD
:103C0000ADFA0BE00E488079002802D102200F495E
:103C1000087003E002200D49087000BF06E0022092
:103C20000A49087002E00220084908700648017835
:103C30000348FCF7D0FA00210348017010BD0000D2
:103C4000A809002002000020A80A0020000000208F
:103C500008B506A00068009013220221684600F013
:103C6000FDF903200249087008BD000002000000B1
:103C7000300000200168002902D00B4A0168116061
:103C80004168002902D0084A4168516081680029D2
:103C900002D0054A81689160C168002902D0024AB9
:103CA000C168D160704700009809002038B504460B
:103CB0000D462078002811D10120694608700122A4
:103CC000B12000F02BF9607806490880084600789A
:103CD0000002A17840180349088002E0022002494E
:103CE000087038BD3C000020000000207CB5044670
:103CF0000D460B4903C90191009001210948017645
:103D00000C21C17521126846417084702912C1705E
:103D1000057105226946012000F050F97CBD0000C4
:103D2000044200080009002038B50446074800682E
:103D300000900121064801760921C175684644704A
:103D400002226946012000F039F938BDF841000827
:103D50000009002008B507480068009001210648C6
:103D600001760D21C17501226946104600F026F941
:103D700008BD00000C4200080009002038B50446C8
:103D80000748006800900121064801760221C175AC
:103D90006846447002226946012000F00FF938BDE0
:103DA000EC4100080009002008B5064800680090B2
:103DB000012105480176C17501226946104600F0CF
:103DC000FDF808BDE84100080009002038B50546A7
:103DD0000C46094800680090012108480176072137
:103DE000C1756846457021128170C470042269460D
:103DF000012000F0E3F838BD00420008000900206F
:103E00007CB506460C4615460B4903C90191009046
:103E100001210A4801760421C175684646702112C5
:103E20008170C47029120171457106226946012012
:103E300000F0C4F87CBD0000144200080009002016
:103E400038B505460C46094800680090012108482D
:103E500001760621C1756846457021128170C470D3
:103E600004226946012000F0A9F838BDFC41000891
:103E70000009002008B507480068009001210648A5
:103E800001761D21C17501226946104600F096F8A1
:103E900008BD00001C4200080009002038B5044697
:103EA0000748006800900121064801760821C17585
:103EB0006846447002226946012000F07FF838BD50
:103EC000F441000800090020FEB505460C460095A7
:103ED0002046E117490E09184904090E01912046B0
:103EE000E117490E0918C911C901611ACEB200279C
:103EF00009E080220220009900F060F800988030EC
:103F00000090781CC7B201988742F2DB002E04D0E3
:103F100032460220009900F051F8FEBDF0B5A7B07E
:103F200006460F461446002500F039F90022042108
:103F300005200007FCF796FB0A20FCF7A3F90122F5
:103F4000042105200007FCF78DFB6420FCF79AF99B
:103F500000F012F917480670FFF784FB1549486016
:103F600000200872F52069464871601CC1B201A8A2
:103F70000171467105794079451900200AE03A5CE3
:103F800001A90131431DCA54421D895C49198DB2F2
:103F9000411CC8B2A042F2DB291201A88170C57091
:103FA000601D69460871044901A8FEF7B7FC27B0F7
:103FB000F0BD00001C09002000440040F7B5A6B089
:103FC00006461546962D02DD012029B0F0BD012ED2
:103FD00004D120480078401C1E49087028460B3048
:103FE000C1B268460170EF21417001218170FF214B
:103FF000C170017141718171C6713746A81C3818B2
:1040000087B2A81C0004010E68460172A81CC1B248
:104010006846417200240CE02798025D2046093072
:1040200000A901310A542798005DC01987B2601CAD
:10403000C4B2AC42F0DB3A122046093000A901318B
:104040000A54401C0F5404496846FEF767FC0020E0
:10405000BBE700003400002000380140F7B584B011
:1040600007460C460197C82C29DDC8212046FCF7DD
:1040700055F8C0B20390C8212046FCF74FF8C8B2EB
:104080000290002600250CE0701CC6B23346C82101
:10409000069A0198FEF70CFF0198C8300190681C41
:1040A000C5B203988542EFDBFF20F530FCF7EAF854
:1040B0000023069A02990198FEF7FAFE05E0E1B2A4
:1040C00000233846069AFEF7F3FE07B0F0BD000065
:1040D00010B505490548006800F00CF8002802D02A
:1040E00002200349087010BD1027000004000020C2
:1040F00000000020024604480068801A884201D966
:10410000012070470020FCE72C00002008B50020AB
:1041100000900F484078052815DA0E490E480068CF
:10412000FFF7E8FF002808D0032201216846FFF7C7
:1041300095FFFFF797FA0849086005484078401C4A
:104140000349487002E002200149087008BD0000E0
:1041500000000020881300001C00002010B5FFF7AD
:1041600081FA0349086000200249087010BD000070
:10417000040000200000002000B585B0042000905D
:10418000022001900020029002200390042004905D
:10419000694605200007FCF76BF905B000BD00B5C6
:1041A00085B004200090012001900290022003902D
:1041B000694605200007FCF75BF905B000BD00006B
:1041C0005A5A000001000000000000000000010237
:1041D00003040607080900000000010203040304A9
:1041E00006080C101820300001000000020000003A
:1041F00005000000080000000900000006000000A3
:10420000070000000C000000000000000D0000008E
:104210000300000004000000000000001D0000007A
:1042200000000000000400508000010080808083B6
:1042300086898C8F66800066C0006700006740003A
:1042400067800067C0006800006840006880006800
:10425000C00069000069400069800069C0006A0010
:10426000006A40006A80006AC0006B00006B40007A
:104270006B80006BC0006C00006C40006C80006CB8
:10428000C0006D00006D40006D80006DC0006E00CC
:10429000006E4000070C01080B01090B0108080221
:1042A0000908020907020000E5360008E5360008A3
:1042B0004D2F00087D2F0008D84200080000002084
:1042C00054000000902E00082C43000854000020E9
:1042D000D4190000A02E000800000100000000001A
:1042E00000000000000000000000000000000000CE
:1042F000000000000000000080841E00000000009C
:1043000000000000000000000000000000000000AD
:104310000000000000000000E803000000000000B2
:0C43200000000000000000000000000091
:04000005080000C12E
:00000001FF
