:020000040800F2
:10000000181D0020D50000086D26000849240008AE
:1000100000000000000000000000000000000000E0
:10002000000000000000000000000000BD2A0008E1
:100030000000000000000000E92600085D30000814
:10004000E7000008E700000861280008E700000852
:10005000E7000008DB020008E5020008EF020008E4
:1000600000000000E7000008E7000008E7000008C3
:10007000E7000008E700000800000000E7000008B3
:1000800000000000E7000008000000000000000081
:10009000E700000800000000E7000008E700000893
:1000A000E7000008E7000008E70000085D370008E7
:1000B0006D370008E70000080000000000000000A5
:1000C0000348854600F0D4F8004800474948000836
:1000D000181D00200448804704480047FEE7FEE75B
:1000E000FEE7FEE7FEE7FEE739310008C100000841
:1000F00030B50B46014600202022012409E00D46C0
:10010000D5409D4205D31D469540491B2546954047
:1001100040191546521E002DF1DC30BD70B500248B
:100120002546002801DA01244042002901DA012590
:100130004942FFF7DDFFAC4200D04042002C00D026
:10014000494270BDF0B51FB40646002082B0054696
:100150004024019100901BE0019922460F46304651
:1001600000F074F8049A059B801A994110D3104648
:100170001946224600F05AF8361A8F410197224656
:1001800001200021009F00F051F838184D410090E7
:100190002046641E0028DFDC019B00982946324679
:1001A00007B0F0BD0549064A08685043054A801863
:1001B00008604008704701490860704764000020EB
:1001C0006D4EC6413930000010B5431A934209D232
:1001D0008318881803E0401E01785B1E1970521EB8
:1001E000F9D210BD03460B439B0703D009E008C9B1
:1001F000121F08C0042AFAD203E00B780370401CD7
:10020000491C521EF9D210BDD2B201E00270401C4E
:10021000491EFBD270470022F6E710B513460A4686
:1002200004461946FFF7F0FF204610BD10B5202AFE
:1002300004DB0146203A9140002010BD914020236C
:100240009C1A0346E3401943904010BD10B5202A84
:1002500004DB0846203AD040002110BD0B46D340B5
:10026000D0402024A21A91400843194610BD000036
:10027000064C0125064E05E0E36807CC2B430C3CF9
:1002800098471034B442F7D3FFF71EFF5C5B0008B9
:100290007C5B0008014605E0002001E0421CD0B272
:1002A0006428FBDB0A46491E002AF5D1704700008E
:1002B000034801E0411E88B20028FBDC70470000C3
:1002C0006A18000000B50246134603E0FFF7F0FF8E
:1002D000581E83B2002BF9DC00BD10B5012000F0E0
:1002E000DBF810BD10B5082000F0D6F810BD10B531
:1002F0000120C00200F0D0F810BD000070B5044627
:100300000D461F48C16801208847012002F058FCB3
:100310000021242002F014FDF721112002F010FD2D
:10032000E9B2222002F00CFD00210E2002F008FDAF
:1003300000210D2002F004FD11488168002088474B
:100340000F48016880208847002606E020780C4A84
:1003500011688847641C701C86B2AE42F6DB084800
:100360008168012088474021084602F0E9FC00210D
:10037000412002F0E5FC032002F022FC70BD0000E9
:100380006C0D00200EB507490969009105494969BE
:1003900001910449496A0291019A00998918029AC7
:1003A00088180EBD4000F81F70B5044600252520B2
:1003B000005D022803D00420E063012549E02068A5
:1003C00000680E21884321680860206800684008A2
:1003D00040002168086020492068884201D101203E
:1003E00026E01D4914312068884201D110201FE009
:1003F000194928312068884201D1801518E0164932
:100400003C312068884201D1801411E012495031FA
:100410002068884202D10120000409E00E496431BD
:100420002068884202D10120000501E00120000679
:1004300009490839486001212520015500BF0021E4
:100440002420015500BFA06B002802D02046A16BDC
:100450008847284670BD00000800024010B50446D9
:100460000120C002844208D102F0EAFC052000F01D
:1004700065F901200649486106E0012C03D10120FD
:100480000449087000E000BF05F056FA10BD0000F6
:10049000000401402000002010B5044605484069D2
:1004A0002040002804D0034844612046FFF7D6FFCF
:1004B00010BD00000004014070B503460022002476
:1004C0000020DAE0012696400D6835402C46002CCD
:1004D00077D04D68022D02D04D68122D15D1D50868
:1004E000AE001D462035A8595507EE0E0F25B54024
:1004F0000646AE4330465607F60E0D69B540284312
:10050000D508AD001E46203670514D68012D08D02B
:100510004D68022D05D04D68112D02D04D68122D69
:1005200018D1986856000325B5400646AE433046BC
:100530005600CD68B540284398605868012595401D
:100540000646AE43304610264D6835402D0995408D
:1005500028435860186856000325B5400646AE4348
:1005600030460D79AD07AD0F5600B54028431860F1
:10057000D86856000325B5400646AE4330465600BF
:100580008D68B5402843D860012636074D68354050
:10059000B54271D13C4D6D6B012635433A4E7563C2
:1005A0003A4D9608B600A85995072E0F0F25B5406D
:1005B0000646AE43304605252D07AB4202D1002545
:1005C00015E059E0324DAB4201D101250FE0314D2C
:1005D000AB4201D102250AE02F4DAB4201D10325E8
:1005E00005E02E4DAB4201D1052500E0062596071A
:1005F000360FB5402843254D9608B600A851284D22
:1006000028680546A5432846012636044D6835402E
:10061000B54202D1054625432846214D2860686829
:100620000546A5432846012676044D683540B54267
:1006300002D1054625432846194D6860A86805463D
:10064000A5432846012636054D683540B54202D1FE
:10065000054625432846124DA860E8680546A5438F
:100660002846012676054D683540B54202D105463B
:10067000254328460A4DE860521C0D68D540002DE0
:1006800000D01FE770BD00000010024008000140CC
:100690000004005000080050000C0050001C0050E6
:1006A00000040140002A01D0816100E081627047AE
:1006B00001480068704700001400002002480068EC
:1006C000401C0149086070471400002010B509481B
:1006D0000068402108430749086008460068022175
:1006E000084304490860032000F006F800F018F8F9
:1006F000002010BD0020024070B504467D21C900D5
:1007000006480068FFF7F4FC054601F03FFC0022B4
:100710002146501E00F01EF8002070BD0800002089
:100720007047000000BFC206D20E01219140024A6C
:10073000116000BF7047000080E100E000BFC2060A
:10074000D20E01219140024A116000BF70470000A3
:1007500000E100E070B504460D46164629462046E5
:1007600001F086FF70BD000010B502460020144B5A
:10077000186880088000034613431846104B186021
:100780001B680124640223430D4C236023461B682D
:100790001024A3430A4C23600A4B1B6904242343FF
:1007A000084C2361012901D130BF02E040BF20BFC6
:1007B00020BF044B1B690424A343024C236110BDDA
:1007C0000070004000ED00E0F8B50446002600256A
:1007D00020212068084020287CD12068084020285B
:1007E00000D100BF00278148806B01210907084024
:1007F000002805D17D48806B08437C498863012728
:100800007B480068FF2101310840002816D1784854
:100810000068084376490860FFF74AFF064606E08D
:10082000FFF746FF801B642801D90320F8BD7048FC
:100830000068FF21013108400028F1D06B480068B2
:10084000032109050840054660680840A8420DD00C
:10085000091160680840884208D164480068012195
:1008600049040840002801D00120DFE75F484030FC
:1008700000690321090408400546002D3CD060684A
:100880000840A84238D0202120680840202833D1D1
:1008900056484030006903210904884305465348FF
:1008A000403000690121C9040843504940310861C2
:1008B000084600690121C90488434C494031086158
:1008C0000846056180152840002815D0FFF7F0FE86
:1008D000064608E039E0FFF7EBFE801B45498842F9
:1008E00001D90320A2E741484030006901214902B3
:1008F0000840400A0028EED000BF00BF03210904D1
:100900006068084088420AD1384800680901884375
:10091000032212056168114008433449086000BF92
:1009200032484030006903221204616811400843D4
:100930002E494031086100BF012F05D12B48806B43
:10094000890588432949886300BF2078C007C00F04
:10095000002809D025484030C06880088000A16880
:10096000084322494031C86002212068084002281B
:1009700009D11E484030C0680C218843E168084313
:100980001A494031C86004212068084004280AD16F
:1009900016484030C0680321890288432169084312
:1009A00012494031C86008212068084008280AD14F
:1009B0000E484030C0680321090388436169084339
:1009C0000A494031C86080212068084080280AD147
:1009D00006484030C068032189048843A169084360
:1009E00002494031C860002020E7000000100240AA
:1009F000007000408813000070B504460D460026C4
:100A000076480068C007C00FA8420ED2734800683D
:100A10004008400028437149086008460068C00744
:100A2000C00FA84201D0012070BD022120680840FB
:100A3000022807D16A48C068F0218843A1680843AA
:100A40006749C8602078C007C00F00284CD0606894
:100A5000022809D162480068012149040840400C7D
:100A6000002824D10120DFE76068032809D15C4811
:100A70000068012149060840400E002817D10120D6
:100A8000D2E76068012808D1554800680421084071
:100A9000800800280BD10120C6E7514800680121D9
:100AA00049020840400A002801D10120BCE74C4817
:100AB000C06880088000616808434949C860FFF742
:100AC000F7FD0646606802280FD107E0FFF7F0FD4A
:100AD000801B4449884201D90320A5E74048C068EB
:100AE0000C2108400828F1D134E0606803280FD1B8
:100AF00007E0FFF7DDFD801B3A49884201D903205A
:100B000092E73748C0680C2108400C28F1D121E059
:100B1000606801280FD107E0FFF7CAFD801B31494B
:100B2000884201D903207FE72D48C0680C21084086
:100B30000428F1D10EE007E0FFF7BAFD801B294938
:100B4000884201D903206FE72548C0680C2108407E
:100B50000028F1D121480068C007C00FA8420ED973
:100B60001E4800684008400028431C4908600846A9
:100B70000068C007C00FA84201D0012054E704213B
:100B800020680840042808D11548C06807210902D8
:100B90008843E16808431249C8600821206808407A
:100BA000082809D10E48C0680721C9028843216975
:100BB000C90008430A49C86000F08AF80849C968B2
:100BC000F02211400909084A515CC84007490860F1
:100BD0000320FFF791FD002026E7000000200240DF
:100BE00000100240881300004C5A00080800002042
:100BF00008B51D480068FF21013108431A49086003
:100C00000846C06880088000C86008460068174928
:100C10000840154908600846006801210904084099
:100C2000009000BF10480068890088430E490860A2
:100C30000020C860084640680D4908400521490366
:100C4000401809494860084640681F210902884346
:100C50000121090340180449486000200861054843
:100C60000549086008BD000000100240F4FFF6FED0
:100C7000FF1FFF0080841E0008000020014800685C
:100C8000704700000800002000B5FFF7F7FF054996
:100C9000C968072212021140090A034A515CC84080
:100CA00000BD0000001002405C5A000800B5FFF7CC
:100CB000E5FF0549C9680722D2021140C90A034A63
:100CC000515CC84000BD0000001002405C5A0008A2
:100CD000FEB500250026002700240020019000908A
:100CE0002F48C5680C202840002847D0042804D08D
:100CF00008280ED00C2840D10EE0294800681021A9
:100D00000840002802D02748009001E026480090C3
:100D100042E0264800903FE00F2080042840800CED
:100D200023490E5C032080052840800D471C1C4889
:100D3000C068012109040840002807D01B497143FD
:100D400008463946FFF7D4F9044614E01448006811
:100D500010210840002807D012497143084639463F
:100D6000FFF7C6F9044606E00F49714308463946C5
:100D7000FFF7BEF9044600940EE000BF0848406843
:100D8000072149030840400B01900198401C0121B4
:100D90008140C803009000BF00BF0098FEBD000066
:100DA0000010024000093D000024F40000127A0007
:100DB000645A0008F8B5044600252078C007C00F23
:100DC00000287DD0FE48C0680C21084008280BD0C0
:100DD000FB48C06808400C2813D1F948C0680121BD
:100DE0000904084088420CD1F548006801214904F3
:100DF0000840400C002863D06068002860D10120C2
:100E0000F8BD00BF012109046068884205D1EC48A3
:100E100000680843EA49086027E005210904606882
:100E200088420ED1E6480068012189040843E4495C
:100E3000086008460068012109040843E049086089
:100E400013E0DF480068012109048843DC49086099
:100E500008460068012109040840009000BFD848F6
:100E6000006889008843D649086000BF6068002890
:100E700013D0FFF71DFC054606E0FFF719FC401BE9
:100E8000642801D90320BBE7CD480068012149044B
:100E90000840400C0028F0D012E0FFF709FC05469E
:100EA00006E0FFF705FC401B642801D90320A7E7F3
:100EB000C3480068012149040840400C0028F0D1D3
:100EC000022120680840022868D1BD48C0680C2172
:100ED000084004280BD0BA48C06808400C281DD12F
:100EE000B748C068012109040840002816D1B44859
:100EF0000068042108408008002804D0E068012828
:100F000001D001207CE7AE4840681F2109028843D8
:100F1000216909020843AA4948603FE0E0680028C7
:100F200024D0A748006809218843E1680843A44900
:100F30000860FFF7BDFB054606E0FFF7B9FB401B65
:100F4000022801D903205BE79D480068042108407E
:100F500080080028F1D09A4840681F210902884380
:100F60002169090208439649486017E094480068DF
:100F70004008400092490860FFF79AFB054606E0EA
:100F8000FFF796FB401B022801D9032038E78C4865
:100F900000680421084080080028F1D11021206851
:100FA0000840102860D18648C0680C2108400028FD
:100FB0005BD183480068012149020840400A0028AB
:100FC00004D0A069002801D1012019E77C48216ADA
:100FD0004068072252031040814219D9206A01F06B
:100FE00085FB002801D001200AE7754840680721E9
:100FF00049038843216A08437149486008464068AC
:101000000002000A217F090608436D49486018E084
:101010006B484068072149038843216A08436849AF
:101020004860084640680002000A217F090608431C
:1010300063494860206A01F059FB002801D0012073
:10104000DEE6206A400B401C01218140C8035C4958
:10105000C968F022114009095A4A515CC8405A49EE
:1010600008600320FFF748FB49E0A06900282CD066
:1010700053480068FF210131084351490860FFF7D8
:1010800017FB054606E0FFF713FB401B022801D9BA
:101090000320B5E64A480068012149020840400A99
:1010A0000028F0D046484068072149038843216A58
:1010B000084343494860084640680002000A217F0F
:1010C000090608433E49486019E03D480068FF2191
:1010D000013188433A490860FFF7EAFA054606E01D
:1010E000FFF7E6FA401B022801D9032088E63448BE
:1010F0000068012149020840400A0028F0D1082177
:1011000020680840082839D1606900281BD02C4885
:101110004030006901210843294940310861FFF747
:10112000C7FA054606E0FFF7C3FA401B022801D9BB
:10113000032065E62248403000690221084040084B
:101140000028F0D01AE01E484030006940084000F6
:101150001B4940310861FFF7ABFA054606E0FFF78F
:10116000A7FA401B022801D9032049E61448403061
:1011700000690221084040080028F0D104212068BD
:101180000840042877D100260D48806B8906084066
:10119000002805D10A48806B084309498863012665
:1011A0000A480068FF210131084000281ED1074885
:1011B0000068084305490860FFF77AFA05460EE023
:1011C000001002404C5A0008080000200070004047
:1011D000FFF76EFA401B642801D9032010E67A4815
:1011E0000068FF21013108400028F1D000BFFF2135
:1011F0000131A068884205D17448006908437349E9
:10120000086130E0A06800280DD170480069FF2116
:10121000013188436D490861084600690915884312
:101220006A4908611FE005210902A06888420DD1C2
:10123000664800690121890208436449086108463B
:10124000006989150843614908610CE05F4800693D
:10125000FF21013188435D4908610846006909158D
:1012600088435A49086100BFA068002815D0FFF7DD
:101270001FFA054608E02FE0FFF71AFA401B544911
:10128000884201D90320BBE5504800690121490289
:101290000840400A0028EFD013E0FFF709FA05469E
:1012A00007E0FFF705FA401B4949884201D90320AE
:1012B000A6E546480069012149020840400A002885
:1012C000EFD1012E07D141484038806B3107884368
:1012D0003E494039886300BF606A002872D03B48AD
:1012E0004038C0680C2108400C2869D0606A022888
:1012F00048D13648403800680121090688433349FF
:1013000040390860FFF7D4F9054606E0FFF7D0F949
:10131000401B022801D9032072E52C4840380068A0
:10132000012149060840400E0028EFD1E16AA06A79
:101330000843216B084325494039C968FD2212043E
:101340009143084321494039C8600846006801219B
:10135000090608431D4940390860FFF7A9F9054609
:1013600006E0FFF7A5F9401B022801D9032047E555
:10137000164840380068012149060840400E002800
:10138000EFD01FE01148403800680121090688436A
:101390000E4940390860FFF78BF9054606E0FFF774
:1013A00087F9401B022801D9032029E50748403866
:1013B0000068012149060840400E0028EFD101E0F5
:1013C00001201DE500201BE5007000404010024098
:1013D000881300007047024600231068034650330C
:1013E0008800C3181868704710B5002304682346A6
:1013F00050338C00E3181A6010BD000070B5A2B025
:1014000006467E2102A8FEF706FF174800680190F5
:1014100001201649087008460078012822D103F0FF
:10142000ABF805460E206843C4B2FF2D0DD022460E
:101430000F4901A8FEF7C8FE0123E022214601A8BA
:1014400003F0E4FF02F0BCFB08E0012069460871EC
:1014500001230222194601A803F0D8FF0020034906
:10146000087000BF22B070BD585B0008010000206A
:101470009200002010B5044620688068012109030D
:101480000840000B002811D02068C06809110840EE
:10149000000A00280AD02046FFF7B0FF2068C06885
:1014A00080210840124908432168C860206880688C
:1014B000012149030840400B002811D02068C06872
:1014C00009110840400A00280AD02046FFF782FF91
:1014D0002068C06880210840064908432168C86028
:1014E000012040040449486101212120015510BD1B
:1014F0007FFEFFFF7FFDFFFF0004014010B50446A3
:10150000002C01D1012010BD2120005D002805D153
:10151000002120200155204600F054F8022121200E
:10152000015500BFCA2021684862532021684862E3
:1015300000BF204601F072F9002809D000BFFF204B
:101540002168486200BF0421212001550120DAE70B
:10155000206880681A4908402168886021696068AD
:101560000843A169084321688968084321688860A5
:101570002168E0680861206800692189090408433E
:10158000216808612068C068802188432168C8609C
:101590002068C06C800880002168C8646169E069C7
:1015A00008432168C96C08432168C86400BFFF2054
:1015B0002168486200BF0121212001550020A2E7D7
:1015C000BFFF8FFF10B504460949206888420ED13D
:1015D000084800690121890408430649086100227E
:1015E00011460220FFF7B6F80220FFF7A7F810BD5A
:1015F0000028004040100240FEB504460D46164645
:10160000002700200190009000BF2020005D0128ED
:1016100001D10220FEBD01212020015500BF022181
:1016200021200155002E2AD12068806840210840E1
:10163000002800D002E00020E87000BFE869002820
:1016400000D100E000BF287801F0DBF803046878DF
:1016500001F0D7F800020343A87801F0D2F8034361
:10166000E878000403432021485D01F0CAF8000631
:101670000343E86903436869034301932FE020684B
:10168000806840210840002804D0287801F0ACF898
:10169000019002E00020E87000BFE869002805D151
:1016A0002021485D01F0A0F8019005E02021485D6F
:1016B00001F09AF8019000BF2878000469780902C7
:1016C0000843A9780843E978090408432021495DC3
:1016D00009060843E9690843696908430190A96953
:1016E00068680843009000BFCA2021684862532000
:1016F0002168486200BFFF210131686A884241D1F8
:10170000206880688843216888602068C0688021DC
:1017100008404D4908432168C860FEF7C9FF0746E5
:1017200015E0FEF7C5FFC01B7D21C90088420ED918
:1017300000BFFF202168486200BF0321212001551E
:1017400000BF00212020015500BF032062E7206870
:10175000C068C007C00F0028E3D001982168C861A5
:1017600000982168486420688068FF21013108439F
:101770002168886020688068012109030843216886
:10178000886043E02068806801214902884321681D
:1017900088602068C068802108402C49084321687F
:1017A000C860FEF785FF074615E0FEF781FFC01B06
:1017B0007D21C90088420ED900BFFF202168486200
:1017C00000BF03212120015500BF00212020015529
:1017D00000BF03201EE72068C068022108404008BF
:1017E0000028E2D001982168086200982168886486
:1017F00020688068012149020843216888602068C8
:101800008068012149030843216888601048006806
:101810000121490408430E490860084680680121F7
:10182000490408430A49886000BFFF2021684862D4
:1018300000BF01212120015500BF002120200155BA
:1018400000BF0020E6E600007FFEFFFF7FFDFFFFF8
:1018500000040140F8B504460D461646002700BFB7
:101860002020005D012801D10220F8BD01212020A7
:10187000015500BF022121200155002E09D16878B1
:1018800010210840102804D16878EF2108400A3060
:101890006870002E11D1E87800F0B3FF0304687877
:1018A00000F0AFFF00020343A87800F0AAFF034353
:1018B0002878400303431F4612E0687800F094FF45
:1018C0000746A87800F090FF0746E878000469789A
:1018D00009020843A97808432978490308430746C1
:1018E00000BFCA202168486253202168486200BFB7
:1018F000204600F093FF00280ED000BFFF20216893
:10190000486200BF04212120015500BF0021202092
:10191000015500BF0120A8E71948384021684860F8
:101920002068C068802188432168C860206880687A
:1019300020210840002813D1204600F0CDF80028CF
:101940000ED000BFFF202168486200BF0421212083
:10195000015500BF00212020015500BF012084E770
:1019600000BFFF202168486200BF012121200155EE
:1019700000BF00212020015500BF002075E70000B6
:101980003FFFFF00F8B504460D461646002700BF8E
:101990002020005D012801D10220F8BD0121202076
:1019A000015500BF022121200155002E1BD12068C6
:1019B000806840210840002800D002E00020E87044
:1019C00000BF287800F01DFF0304687800F019FFBD
:1019D00000020343A87800F014FF0343E8780004F2
:1019E00003431F4618E02068806840210840002813
:1019F00004D0287800F0F8FE074602E00020E870E6
:101A000000BF28780004697809020843A9780843D0
:101A1000E97809040843074600BFCA2021684862E4
:101A200053202168486200BF204600F0F7FE0028DE
:101A30000ED000BFFF202168486200BF0421212092
:101A4000015500BF00212020015500BF0120A4E75F
:101A50002048384021680860206880680121890496
:101A60008843216888602969E86808432168896893
:101A70000843216888602068C06880218843216805
:101A8000C8602068806820210840002813D12046C3
:101A900000F022F800280ED000BFFF202168486225
:101AA00000BF04212120015500BF00212020015545
:101AB00000BF012071E700BFFF202168486200BF1E
:101AC00001212120015500BF00212020015500BF28
:101AD000002062E77F7F7F0070B504460025206804
:101AE000C068A02188432168C860FEF7E1FD054673
:101AF00008E0FEF7DDFD401B7D21C900884201D9C9
:101B0000032070BD2068C068202108400028F0D064
:101B10000020F6E710B50446002C01D1012010BDCD
:101B20000221512001552068006840218843216826
:101B30000860204600F056F8002060650021512022
:101B4000015500BF5020015500BF0020E7E70146C6
:101B50005120405C704710B50446002C01D1012093
:101B600010BD5120005D002805D1002150200155F5
:101B7000204600F038F80221512001552068006805
:101B80004021884321680860A16860680843E168D3
:101B90000843216908436169084301225202A1698F
:101BA00011400843E1690843216A0843A16A0843D8
:101BB00021680860A069000C04210840616A08439C
:101BC000216848602168E06A08612068C069910066
:101BD00088432168C86100206065012151200155BA
:101BE0000020BDE770477047F8B504460E4617461B
:101BF0001D46002000905120005D012803D0512097
:101C0000005D222873D1002E03D0002F01D0002DBB
:101C100001D10120F8BD00BF5020005D012801D195
:101C20000220F7E701215020015500BF5120005D3F
:101C3000012802D132215120015500206065A7639F
:101C4000A587E5872663A586E586A064E064012173
:101C50004903A06A88420DD100BF2068006888430C
:101C60002168086020680068012149030843216851
:101C7000086000BF2068006840210840402804D068
:101C8000206800680843216808600121C902E068F3
:101C900088427DD16068002807D0FF210531606847
:101CA00088420CD1E08E012809D1206B0088216880
:101CB000C860206B801C2063E08E401EE086E08EB2
:101CC000002820D101214903A06A884205D120685B
:101CD000006849100843216808600022012120465D
:101CE000069B00F0C5FD002802D0032092E738E1F2
:101CF0002068C068A16B0880A06B801CA063E08F87
:101D0000401EE087D7E035E0002202212046069BF6
:101D100000F0AEFD002801D003207BE7206B008897
:101D20002168C860206B801C2063E08E401EE08626
:101D3000E08E00280AD101214903A06A884205D11A
:101D400020680068491008432168086000220121CA
:101D50002046069B00F08CFD002801D0032059E7A7
:101D60002068C068A16B0880A06B801CA063E08F16
:101D7000401EE087E08E0028C6D160680028C1D1EF
:101D8000002201212046069B00F072FD002800E0A1
:101D90000DE001D003203DE72068C068A16B0880FA
:101DA000A06B801CA063E08F401EE08783E060682A
:101DB000002807D0FF210531606888420BD1E08EF2
:101DC000012808D1216B481C206308782168C8606D
:101DD000E08E401EE086E08E00281CD101214903E0
:101DE000A06A884205D1206800684910084321682C
:101DF0000860002201212046069B00F039FD0028E2
:101E000001D0032006E72068C068A16B0870E08F4E
:101E1000401EE0874FE034E0002202212046069B6E
:101E200000F026FD002801D00320F3E6216B481CBA
:101E3000206308782168C860E08E401EE086E08E4E
:101E400000280AD101214903A06A884205D12068EF
:101E500000684910084321680860002201212046DB
:101E6000069B00F005FD002801D00320D2E6206883
:101E7000C068C1B2A26B501CA0631170E08F401EFD
:101E8000E087E08E0028C7D16068002813D10022C7
:101E900001212046069B00F0EBFC002801D0032026
:101EA000B8E62068C068C1B2A26B501CA063117074
:101EB000E08F401EE08701214903A06A884213D1C8
:101EC000002201212046069B00F0D2FC002805D00C
:101ED000606D02210843606503209BE62068C068AE
:101EE00081B2009168460088012280212046069B2D
:101EF00000F0BEFC002805D0606D2021084360651D
:101F0000032087E60121512001554903A06A884238
:101F100020D120688068102108400009002819D0CD
:101F2000606D02210843606500BF206800680903F6
:101F3000884321680860206800680121490308433C
:101F40002168086000BF00BF00215020015500BF7C
:101F500001205FE600BF00215020015500BF002096
:101F600058E6022056E60000042806D10649096911
:101F700004221143044A116105E00349096904225E
:101F80009143014A1161704700E000E070B50446DA
:101F90002546681E0949884201D901200CE0681EC7
:101FA000074948610321081F00F062FB0020044933
:101FB000886107200861002070BD0000FFFFFF005E
:101FC00000E000E07047000010B504460020E06625
:101FD00009492068884205D1E12292000749084852
:101FE00000F020F907492068884204D13C220649C4
:101FF000064800F017F910BD00380140D40E00204B
:10200000EC0D0020004400405C0E00207C0D002000
:10201000F8B504462068C569206807682807000FDE
:102020000090009800280BD120202840002807D0DD
:1020300020203840002803D0204601F080F9F8BD68
:1020400020688668009800287ED0F007C00F00281E
:1020500004D1FF20213038400028F5D0E807C00F18
:1020600000280BD0FF2001303840002806D0012086
:1020700021680862E06E01210843E06602202840E2
:1020800000280AD0F007C00F002806D002202168DF
:102090000862E06E04210843E0660420284000281E
:1020A0000AD0F007C00F002806D00420216808627B
:1020B000E06E02210843E0660820284000280ED088
:1020C00020203840002803D1F007C00F002806D098
:1020D000082021680862E06E08210843E066E06E8F
:1020E000002841D020202840002806D02020384059
:1020F000002802D0204601F022F9E06E08210840B5
:10210000002805D12068806840210840002826D09A
:10211000204601F003F9206880684021084000282B
:1021200019D020688068884321688860606E002824
:102130000DD01A48616E8863606EFEF735F900288D
:1021400012D0606E816B00E00FE088470CE0204603
:10215000FFF73AFF08E02046FFF736FF04E020468D
:10216000FFF732FF0020E06669E701200005284004
:10217000002811D001208005304000280CD001201B
:102180000005216808622021692001556A20015557
:102190002046FFF717FF52E700BF50E7053300085E
:1021A00010B50446002C01D1012010BDA069002803
:1021B00000D000E000BF6920005D002805D10021AB
:1021C00068200155204600F02CF824216920015593
:1021D000206800684008400021680860606A0028A4
:1021E00002D0204600F0DCFF204601F015F901285E
:1021F00000D1DAE7206840680921C90288432168D4
:102200004860206880682A218843216888602068A7
:1022100000680121084321680860204601F038F871
:10222000C3E7704710B503466A20C05C20286AD116
:10223000002901D0002A01D1012010BD012424036E
:102240009868A04208D11869002805D1C807C00FB6
:10225000002801D00120F0E700BF6820C05C012801
:1022600001D10220E9E701246820C45400BF596568
:102270005820C2525A20C25200BF24039868A0427C
:102280000AD11869002803D1204C5C20C45220E0F8
:10229000FF245C20C4521CE0986800280AD1186909
:1022A000002803D1FF245C20C45212E07F245C206C
:1022B000C4520EE0012424079868A04209D118698D
:1022C000002803D17F245C20C45202E03F245C201C
:1022D000C45200BF0020D86622246A20C45400BF24
:1022E00000246820C45400BF18688068012420437B
:1022F0001C68A06018680068FF24213420431C6813
:102300002060002099E7022097E70000FF0100000D
:1023100010B504460C492068884208D101200B49B9
:10232000087102F051F90949086003F005FB0849FA
:102330002068884206D101200649087102F044F95C
:102340000449086010BD0000004400404400002023
:10235000003801403C000020FEB504460D461646FC
:102360001F46002001906920005D20286AD1002DC1
:1023700001D0002E01D10120FEBD01210903A0687A
:10238000884208D12069002805D1E807C00F00283D
:1023900001D00120F0E700BF6820005D012801D1D5
:1023A0000220E9E701216820015500BF0020E06616
:1023B000212169200155FEF77BF901905020065339
:1023C0005220065325E05220005B401E81B252206D
:1023D00001530097002280212046019B01F086F9DD
:1023E000002801D00320C7E701210903A068884223
:1023F0000BD12069002808D10295029D2888C005CC
:10240000C00D21688862AD1C03E028786D1C21682E
:1024100088625220005B0028D5D10097002240211D
:102420002046019B01F062F9002801D00320A3E7B8
:1024300020216920015500BF00216820015500BFFF
:10244000002099E7022097E700BFFEE770B58AB049
:1024500006460D46022D02DD01200AB070BD18218E
:102460002348FDF7D8FE00243EE00C20604382198B
:1024700007CA02AB07C36846007A0C2148431C49CF
:10248000401802A90EC90EC000BF1A48C06A022136
:1024900008431849C8620846C06A022108400190F2
:1024A00000BF00BF6A46108A0590012006900020F8
:1024B00007900320089005A90398FDF7FDFF6A46E1
:1024C000118A01220398FEF7EDF86A46907C0028F5
:1024D00004D16946087A00F02BF803E06946087ACF
:1024E00000F00AF8601CC4B2AC42BEDB0020B4E7C6
:1024F000FC0C00200010024010B504460C20604384
:102500000A494018008900280DD00C2262430B466E
:10251000D21811890C226243D21850680122FEF7AA
:10252000C1F8002010BD0120FCE70000FC0C0020D9
:1025300010B504460C2060430A4940180089002861
:102540000DD00C2262430B46D21811890C22624333
:10255000D21850680022FEF7A5F8002010BD012017
:10256000FCE70000FC0C002000B587B000BF21484C
:10257000C06A022108431F49C8620846C06A022196
:102580000840019000BF00BF012003900490032089
:1025900005900120029002A91748FDF78DFF012246
:1025A00011461548FEF77EF80220029002A9124853
:1025B000FDF782FF0420029002A90F48FDF77CFF7F
:1025C00001208002029002A90B48FDF775FF01204F
:1025D000C00202900948039002A90748FDF76CFF6A
:1025E000002211460720FEF7B5F80720FEF7A6F8EF
:1025F00007B000BD001002400004005000001110A0
:102600001FB50B4B0FCB6C460FC4FFF7ADFF6846F1
:1026100002F000FE00F07EFB00F052FA00F0A8FB92
:10262000122802D100F0ACFB01E000F0A8FB1FBDB6
:10263000485B000870B504460D460520FEF772F8A9
:1026400029462046FDF75AFE01F012FA0648C07FDF
:10265000401CC1B20448C17701F0B6FF02492031E5
:102660000860002070BD00000003002070470000DB
:1026700010B5002819DA1A4A03071B0F083B9B08FC
:102680009B00D2588307DC0EFF23A3409A438B079D
:102690001B0E8407E40EA3401A43114B0407240FBA
:1026A000083CA408A4001A5118E00E4A03231B0298
:1026B000D21883089B00D2588307DC0EFF23A34067
:1026C0009A438B071B0E8407E40EA3401A43054B65
:1026D000032424021B198408A4001A5110BD000011
:1026E0001CED00E000E100E07047000010B501467D
:1026F000002300222048C068F0242040002829D16F
:102700001D48806B012424072040002806D01B4868
:1027100000680324E4022040034613E01648806B5F
:10272000012424072043144CA063144800680324A8
:10273000E402204003461048806B01242407A04394
:102740000D4CA0630320C002834203D1C00081422C
:1027500000D101220A480068400840001043084C9C
:10276000206020460068C007C00F904201D00120C1
:1027700010BD0020FCE70000001002400070004087
:102780000020024010B5012000F01AFA9F2111200C
:1027900000F0D6FAFF21242000F0D2FA00214020D8
:1027A00000F0CEFA0021412000F0CAFA052000F026
:1027B00007FA0248C1680020884710BD6C0D002050
:1027C00010B5012000F0FCF9FF21112000F0B8FA4B
:1027D0000021402000F0B4FA0021412000F0B0FABE
:1027E000002000F0EDF910BD014600BFF0200840C8
:1027F00000110A23584302460807000F8018C0B290
:1028000070470146002203E0521C08460A38C1B254
:102810000A29F9D21007000E0843704770B5044624
:1028200000252068C06840210840002815D1401EBE
:102830002168C860FDF73CFF054608E0FDF738FF5A
:10284000401B7D21C900884201D9032070BD20684A
:10285000C068402108400028F0D00020F6E70000C2
:1028600010B50248FEF706FE10BD0000F012002071
:10287000FFB581B004460E461D460027FDF718FF40
:102880000746039800283FD133E0681C002830D069
:10289000002D04D0FDF70CFFC01BA84229D92068E9
:1028A0004068E02188432168486020680068402132
:1028B00088432168086001214903A06A88420DD13C
:1028C00000BF2068006888432168086020680068AD
:1028D0000121490308432168086000BF01215120FC
:1028E000015500BF00215020015500BF032005B055
:1028F000F0BD206880683040B04201D1012000E086
:1029000000200028C1D03DE032E0681C00282FD014
:10291000002D04D0FDF7CCFEC01BA84228D92068AA
:102920004068E021884321684860206800684021B1
:1029300088432168086001214903A06A88420DD1BB
:1029400000BF20680068884321680860206800682C
:102950000121490308432168086000BF012151207B
:10296000015500BF00215020015500BF0320BEE7E4
:10297000206880683040B04201D1012000E0002092
:102980000028C2D10020B2E710B50348FFF7C2F813
:1029900000F004F810BD0000140D002010B512481E
:1029A000FFF7D5F800281DD110480F49086008210D
:1029B0000D48C1610021816041610161816207218F
:1029C000C1620021C16001620121490281610021CF
:1029D0004162FF2005300449486000F009F80248D0
:1029E000FFF7B9F810BD0000140D002000300140C1
:1029F00000B587B0142102A8FDF70DFC00BF2248E6
:102A0000C06A012108432049C8620846C06AC0075D
:102A1000C00F019000BF00BF00BF0846C06A01217F
:102A200008431949C8620846C06AC007C00F019030
:102A300000BF00BF202002900220039001200490DC
:102A4000032005900020069002A905200007FDF74D
:102A500033FD80200290002006900220049002A9FD
:102A600005200007FDF728FD4020029002A905205F
:102A70000007FDF721FD0448406B012109030843CD
:102A80000149486307B000BD00100240F8B5044694
:102A90000D46164600270748006833462A46214659
:102AA00000900548FFF7A0F80746002F01D0FFF778
:102AB0006BFFF8BD38000020140D002070470000A7
:102AC00010B5002000F07CF8802000F027F80120ED
:102AD00000F076F80021402000F032F9002141207A
:102AE00000F02EF900F094F8072000F0A7F802207B
:102AF00000F048F9012000F073F8002000F02FF8F2
:102B0000FF2000F07EF8044800F0C9F8012000F032
:102B100036F8FFF737FE10BDFF03000070B505461D
:102B2000012000F0DFF804466406640E20462843C6
:102B300004462146012000F003F970BD70B504463B
:102B40001D2000F0CFF805462846F121084061001D
:102B50000843C5B229461D2000F0F2F870BD70B5DB
:102B600004461D2000F0BEF805462846FE21084018
:102B70002043054629461D2000F0E2F870BD70B5DF
:102B80000446262000F0AEF805462846F721084006
:102B9000E1000843C5B22946262000F0D1F870BDF7
:102BA00070B50446312000F09DF805462846F8210E
:102BB0000840204305462946312000F0C1F870BD89
:102BC00070B50546012000F08DF80446F820044059
:102BD0002046284304462146012000F0B1F870BD8C
:102BE00070B504461E2000F07DF805462846FB21FE
:102BF0000840A1000843C5B229461E2000F0A0F8F5
:102C000070BD10B504462146222000F099F810BD91
:102C100010B509484179062000F092F80648401D99
:102C20004178072000F08CF80348401D8178082087
:102C300000F086F810BD0000145B000810B50446D3
:102C400087214D2000F07CF80248015D092000F04A
:102C500077F810BDCC5A000870B504461D2000F06E
:102C600041F805462807000F21010843C5B229464F
:102C70001D2000F065F870BD70B504460320FFF715
:102C80008FFF1E2000F02EF805462807000F2101B7
:102C90000843C5B229461E2000F052F870BD38B571
:102CA00004461E2000F01EF8694608701F2000F040
:102CB00019F80146684641700078FC210840210A55
:102CC000FC2291430843C1B2684601704470017808
:102CD0001E2000F035F8684641781F2000F030F8DB
:102CE00038BD000070B50446094881680020884757
:102CF0006006400E064A1168884705484168FF2073
:102D0000884705460248816801208847284670BDEB
:102D10006C0D002010B50022012189020748FDF743
:102D2000C1FCC820FDF7B6FA012291020348FDF765
:102D3000B9FCFF20F530FDF7ADFA10BD00040050DE
:102D400070B504460D4609488168002088478022F6
:102D500022431046054A11688847044801682846FE
:102D60008847024881680120884770BD6C0D0020AB
:102D700010B54220FFF7B6FF0446204610BD70474D
:102D80007047000070B50446052C01DC204600E0C9
:102D9000052004460120FFF713FF022C01D0032C6D
:102DA00004D100212620FFF7CBFF03E008212620D5
:102DB000FFF7C6FF022C03D0042C01D0052C12D142
:102DC00002213620FFF7BCFF7F213A20FFF7B8FF32
:102DD0003120FFF787FF05460120054329463120B2
:102DE000FFF7AEFF15E003213620FFF7A9FF3120E2
:102DF000FFF778FF05466D086D0029463120FFF783
:102E00009FFF40212F20FFF79BFF00213020FFF77D
:102E100097FF61006118094A505CFFF71DFF6100D0
:102E20006118064A89184878FFF726FF6100611883
:102E3000024A89188878FFF781FE70BD345B00086C
:102E400070B500251220FFF74DFF044640202040BA
:102E5000402830D11E20FFF745FF064604203040B1
:102E6000042825D100210D20FFF76AFF1320FFF76A
:102E700039FF2049087001211E4841701E488168B1
:102E8000002088471C4801680020884700BF07E0F1
:102E900019484168FF20884718494855681CC5B241
:102EA00014480078A842F3DC134881680120884761
:102EB000FFF768FC18E008202040082804D102F041
:102EC000FBFCFFF75FFC0FE004202040042809D141
:102ED000E007C00F002802D0FFF754FC04E0FFF722
:102EE0006FFC01E0FFF74EFCFF211220FFF728FFE7
:102EF00070BD0000240400206C0D0020240300207D
:102F00000FB470B505460E46002400BF20E028200F
:102F1000604311490858002819D110480068411928
:102F2000282060430C4A1150282060431146401865
:102F3000466028216143891808460830202206A9E6
:102F4000FDF742F9012070BC08BC04B01847641CAE
:102F5000202CDCDB0020F6E72804002018000020ED
:102F600070B58EB005460E461446684604761822A3
:102F700008A9FDF729F931462846079B069AFFF76D
:102F8000BFFF0EB070BD0000F0B587B0054600244D
:102F90003048056000BF59E0282060432E4908589A
:102FA000002852DD282060430858A8424DDA282026
:102FB00060434018036AC2698169406A6E460EC662
:102FC00003902820604324494018083006902820A8
:102FD00060434018406805900C21069841180A7813
:102FE00013464A78120213438A7812041343C978AD
:102FF00009060B43082141180E7832464E783602F6
:1030000032438E7836043243C97809060A43077979
:10301000394647793F02394387793F043943C679B6
:103020003606314306463778384677783F023843CC
:10303000B7783F043843F67836063043059EB047EC
:10304000002128206043044A1150641C202CA3DB7B
:1030500007B0F0BD180000202804002010B5064875
:1030600000680A3004490860FDF728FB0248006840
:10307000FFF78AFF10BD00001C00002030B599B09A
:103080002B48806B01210907084329498863294897
:1030900000680321C90288430121C902401825495B
:1030A0000860062007908815099001200A901020DA
:1030B0000B900220109000211191410412914105C2
:1030C000139107A8FDF776FE0120149003201590B8
:1030D0000020169017901890012114A8FDF78CFC81
:1030E00020200090C00201906846FDF76DFB00288B
:1030F00001D000BFFEE70E48403000690321C9023D
:1031000088430B4940310861FDF7B8FD054664214D
:10311000FCF7EEFF0446FEF739FF0420FEF724FF1C
:1031200000221146501EFDF715FB19B030BD0000FE
:10313000001002400070004015480068FF21013176
:103140000843134908600846C068124908401049FE
:10315000C86008460068104908400D4908600846E4
:1031600080684008400088600846006801218904A2
:103170008843074908600846C068FD210904884360
:103180000349C86000200861C8030449886070478B
:10319000001002400C40FF88F6FFF6FE00ED00E054
:1031A000818CC907C90F002908D00168496801222C
:1031B00052049143826A1143026851600222416ABB
:1031C0001140002907D001684968D2039143C26ABF
:1031D0001143026851600422416A1140002907D05E
:1031E0000168496812049143026B114302685160FF
:1031F0000822416A1140002907D00168496812037A
:103200009143426B1143026851601022416A1140A0
:10321000002907D00168896812029143826B11432B
:10322000026891602022416A1140002907D001689C
:10323000896812029143C26B114302689160402277
:10324000416A1140002915D00168496892039143F1
:10325000026C11430268516001221205016C914217
:1032600008D101684968032252059143426C114319
:10327000026851608022416A1140002907D001682C
:10328000496812039143826C114302685160704790
:1032900038B5044600250020E066FDF709FA05462A
:1032A000206800680821084008280BD114482B46E4
:1032B000002289040090204600F018FA002801D06E
:1032C000032038BD206800680421084004280BD181
:1032D0000B482B46002209050090204600F006FA14
:1032E000002801D00320ECE72021692001556A2045
:1032F000015500BF00216820015500BF0020E0E714
:10330000FFFFFF0170B50546AC6A00215A2001534A
:10331000522001532046FEF757FE70BD0168096830
:10332000FF222132914302681160016889684908CF
:1033300049000268916020226A210A547047F8B55A
:1033400004465C20075B6A20005D22283AD1206891
:10335000406A85B201210903A06888420AD1206928
:10336000002807D1666D284638403080606D801C8B
:10337000606505E0F8B22840626D511C616510700F
:103380005A20005B401E81B25A200153002914D1FB
:1033900020680068FF212131884321680860206887
:1033A0008068400840002168886020216A2001551B
:1033B0002046FEF7ADFF0020F8BD2046FEF7A8FF2F
:1033C0000020F9E7206880690821084321688861A6
:1033D0000220F1E770B504460D460B48854207D13F
:1033E0002278FF23F533611C0848FEF7B5FF09E09A
:1033F0000748854206D12278FF23F533611C054832
:10340000FEF7AAFF70BD000000380140EC0D00205F
:10341000004400407C0D0020FEB504460025102627
:1034200000200290A9492068884201D1012000E0D3
:103430000020002800D000E000BF2169A0680843F8
:1034400061690843E1690843054620680068A049AE
:103450000840284321680860206840680321090368
:103460008843E168084321684860A5699749206856
:10347000884201D1012000E00020002801D1206A0B
:103480000543206880680B2109028843284321688E
:10349000886000BF8F492068884217D18E48C06875
:1034A0008007800F002806D0012808D0022804D009
:1034B000032808D105E0012607E0022605E00426DE
:1034C00003E0082601E0102600BF3AE083492068A7
:1034D000884217D18048C0680C210840002806D0D7
:1034E000042808D0082804D00C2808D105E00026BC
:1034F00007E0022605E0042603E0082601E0102686
:1035000000BF1EE07149206888421AD17248C06825
:10351000032189020840002808D001218902401AAD
:1035200008D0401A04D0401A08D105E0002607E070
:10353000022605E0042603E0082601E0102600BF6D
:1035400000BF00BF61492068884201D1012000E02E
:103550000020002855D00025042E1AD004DC002EAF
:1035600007D0022E1CD108E0082E16D0102E17D13D
:1035700017E0FDF789FB054616E05748403800681C
:10358000102108400009002801D0554D00E0554D9C
:103590000AE0FDF79DFB054606E00125ED0303E08B
:1035A00000BF0120029000BF00BF002D0AD060685C
:1035B00041004018A84203D860680003A84202D224
:1035C000012002907FE02846FF210131676800F06A
:1035D00095F9626852080023801859413A460191D2
:1035E0000090FCF7AFFD054603200002854205D39D
:1035F0003D48854202D82068C56064E00120029001
:1036000061E0042E42D006DC002E09D0012E14D039
:10361000022E53D11EE0082E45D0102E4ED14EE082
:10362000FDF732FB61684908471838466168FCF7C6
:103630005FFD80B22168C86044E0FDF737FB616838
:103640004908471838466168FCF752FD80B2216886
:10365000C86037E020484038006810210840000961
:10366000002809D061684A081D4BD018FCF740FDBE
:1036700080B22168C86008E061684A08194BD01818
:10368000FCF736FD80B22168C8601BE0FDF720FB27
:1036900061684908471838466168FCF729FD80B21F
:1036A0002168C8600EE061684A080123DB03D01876
:1036B000FCF71EFD80B22168C86003E000BF012056
:1036C000029000BF00BF0298FEBD0000004800400D
:1036D000F369FFEF00380140401002400044004011
:1036E00000093D000024F400FFFF0F00FFB581B08A
:1036F00004460D4617460A9E24E0701C002821D07F
:10370000002E05D0FCF7D4FF0499401AB04219D915
:1037100020680068FF21A131884321680860206883
:103720008068400840002168886020216920015598
:103730006A20015500BF00216820015500BF032009
:1037400005B0F0BD2068C0692840A84201D1012021
:1037500000E00020B842D0D00020F1E710B50248C8
:10376000FEF756FC10BD0000EC0D002010B502481D
:10377000FEF74EFC10BD00007C0D002000B587B0A8
:1037800000BF5748C06A012108435549C86208462E
:10379000C06AC007C00F019000BF00BF00BF08464D
:1037A000C06A012108434E49C8620846C06AC00782
:1037B000C00F019000BF00BF00BF0846C06A0121D2
:1037C00008434749C8620846C06AC007C00F019055
:1037D00000BF00BF00BF0846C06A0121084340493E
:1037E000C8620846C06AC007C00F019000BF00BF92
:1037F0000846806B0121490408433949886308461B
:10380000406B0121890308433549486302F0CAF837
:1038100002200390002004900220059000020290F4
:103820000420069002A905200007FCF745FE0820A9
:1038300002900420069002A905200007FCF73CFE38
:103840000120800202900420069002A905200007B2
:10385000FCF732FE2348244908604B20C001486031
:10386000002121488160C160016181610C214161B9
:10387000FEF796FC002801D000BFFEE71B481C495C
:103880000860E12000024860002119488160C160A1
:10389000016181610C214161FEF782FC002801D0A9
:1038A00000BFFEE73C2213490F48FEF7BBFC002295
:1038B00002211C20FCF74EFF1C20FCF73FFFE122F9
:1038C00092000D490A48FEF7ADFC012202211B209F
:1038D000FCF740FF1B20FCF731FF07B000BD0000E4
:1038E00000100240004400407C0D002000380140E0
:1038F000EC0D00205C0E0020D40E0020F8B582B242
:103900008BB2040C0D0C10465843002126465E4332
:10391000370C36048019794116466E43370C36044D
:103920008019794126466E438919F8BD30B4744632
:10393000641E2578641CAB4204D3635D5B00E3180E
:1039400030BC18471D46F8E702E008C8121F08C13E
:10395000002AFAD170477047002001E001C1121F10
:10396000002AFBD1704700000148807870470000B2
:103970002404002070B50546002432E00E20604388
:103980001A49085C00282AD129780E206043174A7A
:10399000115469780E206043801841800E206043E6
:1039A0001146401880780002A978401881B20E2094
:1039B0006043801841800E2161438918081D05224B
:1039C000E91CFCF701FC0E216143084A89180846EE
:1039D0000930052229460831FCF7F6FB03E0601C9C
:1039E000C4B20A2CCADB00BF70BD000092000020E8
:1039F00010B586B0044600211848FDF7ECFC1849C4
:103A0000884229D0E1786846017121794171617954
:103A10008171002004900590012201A90F48FDF753
:103A2000B1FF002801D000BFFEE701216846017008
:103A300061784170A17881702178C1700122694656
:103A40000648FDF707FF002801D000BFFEE7044A43
:103A500000210248FDF7C8FC06B010BDF01200209E
:103A6000F2320000002101488170704724040020D8
:103A700000210148817770470003002010B50446FB
:103A8000002C02D0012C0CD105E0002201210648B7
:103A9000FCF708FE06E0012211460348FCF702FE8F
:103AA00000E000BF00BF10BD0004005010B5044688
:103AB000002C02D0012C16D10AE0002202210B4872
:103AC000FCF7F0FD012204210848FCF7EBFD0BE0B8
:103AD000012202210548FCF7E5FD002204210348EC
:103AE000FCF7E0FD00E000BF00BF10BD0004005087
:103AF000FFB5B5B007460E46CE2101A8FCF78BFBFB
:103B00002C4800680090002400BF30460930C1B244
:103B1000684681708078041927480068010E68465D
:103B2000C170C0780419244800680002010E68467C
:103B3000017100790419204800680004010E6846EC
:103B40004171407904191C480068C1B2684681710E
:103B50008079041968463799C171407904190025A4
:103B60000AE0795D6A462846083011546946085CC7
:103B7000001984B2681CC5B2B542F2DB6A46294618
:103B80000831389850546946A81D085C001984B261
:103B90002112284609301154401C1454684680787C
:103BA000801CC2B2694605483E9B01F01EFF39B039
:103BB000F0BD0000485A000830000020200100201D
:103BC00010B500240EE00E2060430849085C002870
:103BD00006D00E216143054A88180E21FCF71BFB15
:103BE000601CC4B20A2CEEDB10BD00009200002065
:103BF00010B5002408E00E2060430A49085C002844
:103C000000D103E0601CC4B20A2CF4DB00BF002C1E
:103C100007D0611E0E225143024A88180E21FCF77C
:103C2000FAFA10BD9200002000B585B01421684654
:103C3000FCF7F1FA01216846C170C171082269469A
:103C4000202001F01DFC05B000BD000010B50548A6
:103C50000068042108430349086001210846FCF775
:103C600083FD10BD0070004030B5A1B07E2101A8D9
:103C7000FCF7D1FA3E4800680090FCF7B9FF3D48D8
:103C8000FDF748FF3C480069400840003A49086198
:103C90000020FEF731FC0120FEF72EFC00F024FF8F
:103CA00000F030FF00F0AAFA01F050FE00F0BEFB79
:103CB0003248806B01210907084330498863084670
:103CC000806B090488432D4988630846C06B012135
:103CD00008432A49C8630846C06B022108432749A4
:103CE000C8630846C06B042108432449C8632348BD
:103CF0004030806809040843204940318860084604
:103D00004068012108431D4940314860FFF79EFF8C
:103D100000F0DCFA00F0FCFB01F00EFE1848007821
:103D2000012822D100F028FC05460E206843C4B2C9
:103D3000FF2D0DD0224613496846FCF745FA0123B2
:103D4000E0222146684601F061FBFFF739FF08E0F9
:103D5000012069460870012302221946684601F0D5
:103D600055FB00200649087000BF21B030BD00009F
:103D7000445A0008140D002000E000E0001002404A
:103D8000010000209200002003460A460B2A01DAB7
:103D900010467047002109E0585CEF2804D1481C08
:103DA000185C012800D103E0481C81B29142F3DB8A
:103DB00000BF914201DB1046EBE70846E9E700004F
:103DC00008B52949487800F0D1F800284BD0274899
:103DD000007803282EDA244840780300FFF7A6FD78
:103DE0000C28070B0828280F28151F19252800BFA5
:103DF00001F096FA1DE0012001F07CFA19E01C4860
:103E00000188012001F0BEFA13E0012001F048FA18
:103E10000FE096220021012001F094FA09E01449F4
:103E20000888012101F01EFA03E001F04FFA00E0DA
:103E300000BF16E00C48007801280DD0002000904B
:103E40000C48017E68460170012141700023132255
:103E5000022101F0DBFA00BF00200449087002498A
:103E6000487000F099F808BD2000002024000020D0
:103E70002C000020780000207CB505460C46002070
:103E800000900190012D28D0022D04D0032D0ED0DA
:103E9000042D56D13EE03148017E68460170002174
:103EA000417001231322022101F0B0FA4AE02B48AD
:103EB000007E1B2801D1694608702078002802D1B5
:103EC0006946487002E001206946487001231322C8
:103ED0000221684601F09AFA34E02078002811D1D6
:103EE0000120694608700122B12001F0C9FA60780A
:103EF0001B490880084600780002A178401818493C
:103F0000088006E02720694608700122522001F04F
:103F1000B7FA17E01148007E69460870207800283B
:103F200001D1487002E00120694648700B48007ECC
:103F3000042805D0012313220221684601F066FA05
:103F400000E000BF00BF0020064908704870064925
:103F5000087000F039FB044948607CBD78000020FF
:103F60002C000020200000202400002010B5044672
:103F7000072C01D0082C06D106494868FF21913151
:103F800001F0C8FC10BD03494868C82101F0C2FC1B
:103F9000F8E700002400002010B500F015FB0149EF
:103FA000486010BD2400002003460A46062A01DDB1
:103FB00000207047002106E0585C552801D10120FF
:103FC000F7E7481CC1B29142F6DB0020F1E70000A0
:103FD00010B54348C07D0300FFF7A8FC0E7E082102
:103FE0007E537E407E7E5D7E7E72787E3C48803849
:103FF000007800280DD13B4908703B4840780128E3
:1040000003D102203849487008E000203649487042
:1040100004E0334980390120FFF72EFF5DE030488E
:1040200080380078002813D12E4908702E48407837
:10403000022812D12C480078012805D10A202A49EB
:104040004870FFF7A9FF08E000202749487004E006
:10405000234980390120FFF70FFF3EE020488038D8
:10406000007800280CD11F4908701F4800780228EA
:1040700003D10021FFF700FF02E000201A49487039
:104080002BE01748807D052804D11549803901208F
:10409000FFF7F2FE21E012488038007800280BD1AB
:1040A00012488189124801F087F900200D490870F3
:1040B00006200D49487002E000200B4948700CE0D2
:1040C000074980390320FFF7D7FE06E0044980390D
:1040D0000420FFF7D1FE00E000BF00BF10BD0000CC
:1040E000B80C00202400002020000020280C002014
:1040F000280900207047000030B51448807B012853
:1041000022D11348407E401CC1B211484176407E06
:10411000062819DC00200CE00D4980390A5C0B49A7
:104120008B898989491C094CA1810A49CA54411CBF
:1041300088B20749897D8142EEDC0548407E062829
:1041400002D100200449487030BD0000280C002036
:10415000B80C0020280900202000002030B51148AC
:10416000807B01281CD11048417E407E401CC2B299
:104170000D484276062913DC00200CE00A498039FC
:104180000A5C08498B898989491C064CA181074929
:10419000CA54411C88B20449897D8142EEDC00BFCB
:1041A00030BD0000280C0020B80C00202809002099
:1041B00010B50F490F48006801F0ACFB002815D07E
:1041C0000D480078002805D1FEF7B2F901200A4910
:1041D000087005E00020FEF78FF9002006490870FE
:1041E00000F0F2F903490860012010BD0020FCE74F
:1041F000B80B0000040000200200002000B587B0CA
:1042000000BF2D48C06A012108432B49C8620846F7
:10421000C06AC007C00F019000BF00BF27480290CE
:1042200003200390002004900320059002A905209C
:104230000007FCF741F92048C06A400840001E49C9
:10424000C86200BF0846C06A022108431A49C86212
:104250000846C06A02210840019000BF00BF00BFAD
:104260001548C06A042108431349C8620846C06A59
:1042700004210840019000BF00BF114802900320B4
:104280000390002004900320059002A90D48FCF73C
:1042900013F90948C06A022188430749C86202A984
:1042A0000948FCF709F90448C06A04218843024917
:1042B000C86207B000BD000000100240FF9FFFFF72
:1042C000FFFF0000000400500008005010B572B657
:1042D000FCF7FCF9FEF7D2FE00F0D4F8FEF75EFB27
:1042E00000F012F8FFF74AFA00F01AFCFEF788F91E
:1042F00000F09CF802480349486162B610BD000016
:10430000FFFF00000004014000B585B0124800899D
:104310000090012001900290032003900E4948680C
:104320006946FCF7C9F80C4A118950680022FCF76D
:10433000B9F90948808A009001200290064908696D
:104340006946FCF7B9F8044A118950680022FCF765
:10435000A9F905B000BD00004C00002000B591B0E7
:104360002F4830490860002048607F212D48816037
:10437000FF21C1600021016141618161C161FDF7DF
:10438000BDF8002801D000BFFEE7152108A8017480
:10439000322141740021817400200F90109001227D
:1043A0000CA92048FDF7EEFA002801D000BFFEE777
:1043B000022108A801730421417308218173182187
:1043C000C17301220BA91748FDF744FA002801D058
:1043D00000BFFEE7144A00211248FDF705F8152139
:1043E00068460171352141710021817100200290E0
:1043F000049005900120C0070690002007900890C7
:10440000012108A8017108020A90012201A90548AA
:10441000FDF7F2F8002801D000BFFEE711B000BDA3
:1044200000280040F0120020F203000000B587B021
:1044300000BF1248C06A012108431049C8620846FB
:10444000C06AC007C00F019000BF00BF01200290EA
:1044500003900490002005900948039002A90520CC
:104460000007FCF729F8002211460520FCF772F935
:104470000520FCF763F907B000BD00000010024002
:104480000000111000B587B01822054901A8FBF7FC
:104490009BFE022101A8FDF7D9FF07B000BD000077
:1044A000B45A000810B5FE20074908700020487073
:1044B0000846203001781E38FBF7ADFE0021024887
:1044C0002030017010BD0000D40C002070B50446EF
:1044D000002512E06621694308196421FBF79BFE61
:1044E000002166206843001960300171662068432E
:1044F000001960304171681CC5B2052DEADB00214E
:10450000FF20FF300155401C0155401C015170BD7A
:1045100010B5FFF7C7FF1048FFF7D8FF00200F497D
:1045200008700F490876FBF72DFF0E490860002040
:104530000D4908710D49087100210D4841768175BA
:1045400096218038FBF767FE00210948C1750020DD
:104550000849C87310BD00002001002000000020A1
:1045600078000020300000203C00002044000020A3
:10457000B80C0020280C002000210AE00E2048433F
:10458000064A105C002802D0481CC0B27047481C84
:10459000C1B20A29F2DBFF20F8E7000092000020F8
:1045A0000FB400210CE0662048436A468018603052
:1045B0000079002802D0002004B07047481CC1B226
:1045C0000529F0DB0120F7E701480068704700008B
:1045D0001C00002070B504460E46154608480470BD
:1045E00020300570027831461E38FBF7EDFD0020C3
:1045F00003494870FFF7E8FF0149486270BD0000B9
:10460000D40C00200EB5194A07CA6B4607C31848D8
:10461000007818380300FFF789F905040F13171BFA
:104620001F0003206946087000230222012168460A
:1046300000F0ECFE00200EBD1920694608700CE069
:104640001A206946087008E01B206946087004E0DB
:104650001C206946087000E000BF00BF0023132241
:104660000221684600F0D2FE0020E4E7705A0008FC
:10467000D40C0020FFB583B005460E460020029002
:104680000190052E02DAFF2007B0F0BD002435E0CE
:10469000285DF52830D1E01C295C0198081880B20B
:1046A0000190042707E0E019295C0198081880B2FE
:1046B0000190781CC7B2E01C285C001DB842F2DCF7
:1046C000601C285C029002980102A01C285C08185B
:1046D00080B202900299019888420DD1E01C285CBA
:1046E000001DC1B206980170069802782919059834
:1046F000FBF76AFD2046C7E7601CC4B2301FA0422A
:10470000C6DCFF20C0E701B582B0012201A902A8E2
:10471000FEF7BCF9684600790EBD000010B5FEB08A
:10472000044601F003F9002804D001204149087033
:10473000FFF79EF940484078012804D100F0D0FCF2
:1047400000213D4841703B480078002806D00128F0
:104750002ED0022819D0032867D140E0FF22F5327D
:1047600036496846FBF730FD344810380FC8FFF76C
:1047700017FF002808D13148503001796038FDF723
:1047800059FF02202B49087050E02D4908684B2141
:10479000090101F0BFF8002809D00520FBF7CEFF82
:1047A00001202849486123490870FFF761F93DE07D
:1047B000224850304079012803D103201D49087058
:1047C00006E000201B4908701C48103800F03EFD30
:1047D000FFF748F9FFF7F8FE1949086026E0184985
:1047E00008684B21890101F095F800280FD0144882
:1047F0002038C07F032807DB002111482038C1770B
:10480000FF38E13800F022FD00200A490870FFF768
:10481000ABF8002808D0FFF725F90848103800F059
:1048200015FD00200349087000E000BF00BF002014
:104830007EB010BD120000202404002030010020B2
:104840002003002000040140FFF740FDFFF786FD34
:10485000FFF75EFE6E490868FBF7ADFCFBF7A2FCB4
:1048600005466521FBF75AFC8CB23C212046FBF73C
:1048700055FC0F460A213846FBF750FC07013C2146
:104880002046FBF74BFC0807000F3818C5B23C2147
:104890002046FBF743FC801CC6B22946304600F098
:1048A000DFFF00205B4908707D204001FBF70AFD17
:1048B00001F042F8AAE0FFF77BFC0020FFF72EFF93
:1048C00001F014F854480078012829D15349486868
:1048D000534901F01FF8002822D000F02FF9FF20E3
:1048E0002D30FBF7EFFC00F00DF9FF202D30FBF72A
:1048F000E9FC00F023F9FF202D30FBF7E3FC00F08A
:1049000001F9FF202D30FBF7DDFC00F017F9FF2047
:104910002D30FBF7D7FC00F0F5F800203E49087079
:104920003C48407800282AD13A48007800281FD017
:104930003C48807D002809D000F000F900203A4969
:104940000870FFF741FE384948601AE03649486868
:10495000FF21F53100F0DEFF002812D000F0D2F880
:1049600000202C490870FFF72FFE2F49486008E00F
:104970002C48807D002804D100F0C4F801E0FFF746
:104980001FFA2A48007901280BD128490868142108
:1049900000F0C0FF002804D000202449087100F076
:1049A000DBF823480078FE2820D02149486AFF21FF
:1049B000F53100F0AFFF002818D01D4840780328DB
:1049C0000CDA1B484078401C1949487020310A789D
:1049D00020390878891C00F053FD03E0FFF712FE30
:1049E000FFF760FDFFF7F0FD1149486211480079BB
:1049F00001280BD10F490868322100F08BFF0028F5
:104A000004D000200B49087100F074F953E700004E
:104A1000300000202000002000000020680000205E
:104A2000881300004C000020240000203C000020DF
:104A3000D40C0020440000200FB400B587B018212A
:104A400001A8FBF7E8FB08A800780300FEF76EFF5B
:104A5000074105132A303A3D410021490A8868463A
:104A600082804988C18000210172052201A9192094
:104A700000F006FD2EE01A490A88684682804988BF
:104A8000C1800A221649091D0E30FBF79DFB01214A
:104A90006846417300210176152201A91A2000F011
:104AA000EFFC17E0002201A9232000F0E9FC11E04F
:104AB00001206946087101230222194601A800F06D
:104AC000A5FC07E0FFF7B0F804E0012005490870F5
:104AD00000E000BF00BF07B008BC04B018470000EA
:104AE000780000206800002010B5054A1189506840
:104AF0000022FBF7D7FD01200149887210BD00009C
:104B00004C00002010B5054A918A10690022FBF77D
:104B1000C9FD01210148817510BD00004C00002035
:104B200010B5054A118950680122FBF7BBFD002032
:104B30000149887210BD00004C00002010B5054AE4
:104B4000918A10690122FBF7ADFD002101488175B2
:104B500010BD00004C000020F8B56148018B408B6F
:104B6000081A85B20026002400200090002720218A
:104B70005B4820308172E9B25A48FFF715FA0028E5
:104B800020D059480078012806D0022808D00328F0
:104B90000AD0042810D10BE00120534948700CE0E2
:104BA00008205149487008E009204F49487004E046
:104BB0000B204D49487000BF00BF00BF00204B498B
:104BC000087080E000BF29464648FFF7DDF806463A
:104BD000AE426DDA4349F01D095C45488175807D20
:104BE0000102404A30460830105C0818801EC1B2ED
:104BF0003F4881753046093080B20090002408E0BB
:104C0000009800193749085C394980390855601CFB
:104C100084B23748807DA042F2DC3249B01D085C86
:104C2000012806D002280AD007280ED0082818D15B
:104C300011E001212E480176FFF75CFA12E0022113
:104C40002B480176FFF758FA0CE007212848017637
:104C5000FFF7BEF906E0082125480176FFF77EFA46
:104C600000E000BF00BF2248807D07460B37BD42F1
:104C70001ADD002405E038191A49085C0855601C43
:104C800084B2E81BA042F6DCE81B84B204E00020FA
:104C900014490855601C84B2AC42F8DBE81B85B2AD
:104CA00000211348817504E000211148817501E05D
:104CB00000E088E700BF0E48817D8038FBF7ABFA43
:104CC00000210B48C175E12189000648FBF7A3FAD2
:104CD000E1229200034902484038FDF7A3FAF8BDEB
:104CE0002C0E0020D40E00202000002024000020E4
:104CF000B80C002010B596B0142111A8FBF78BFA60
:104D00002021EB4881722038027E408B101AC1B2FC
:104D100001AB02AAE748FFF7ADFC0446FF2C28D000
:104D200002A9201D085CE22824D100F005FE02A99A
:104D3000601D085C012802D0122819D10AE0002267
:104D400011A9104600F09CFB0522DB491420FEF758
:104D500007F90EE00120D9490870002211A9104678
:104D600000F08EFB0422D449D548FEF7F9F800E0A4
:104D700000BF8CE102A9201D085CE0286AD1D1495E
:104D80000876002010A90871012211A9E02000F086
:104D900077FB02A920461230085C00283DD1032190
:104DA00010A80171C8480088011210A84171C648B6
:104DB000017810A8817102AA20461430111805222A
:104DC00011A80330FBF700FAC048017910A801735D
:104DD00002A920462030095C10A8417302A9204690
:104DE0001F30095C10A8817302A920461E30095C9F
:104DF00010A8C17302A920461D30095C10A80174D7
:104E00000123E0220D2111A800F000FB0020B04991
:104E1000087011A8FEF7AEFD19E002A92046123075
:104E2000085CAB49087002AA601D11180422A5484D
:104E3000FBF7CAF902AA2046143011180522A5482A
:104E4000FBF7C2F903229C491420FEF789F800F011
:104E500073FD1CE102A9201D085CB1280ED10320BE
:104E60009B490870032294491420FEF779F89A4868
:104E70000078FE28EDD0FFF715FB08E19648007892
:104E80001F287DD008DC18280DD0192879D01A28C1
:104E900078D01B2877D11FE0202875D0232842D056
:104EA0005228F7D1D8E002A9201D085C002809D1BA
:104EB000022010A9087101230222194611A800F04E
:104EC000A5FA08E0032010A908710123022219465F
:104ED00011A800F09BFAD3E07A48007E262806D17C
:104EE00001227549FF20F530FEF73AF8C8E0764810
:104EF0000088962800DAC3E01B2010A9087102A9D7
:104F0000201D085C002802D110A9487102E0012090
:104F100010A9487100231322022111A800F076FA8B
:104F200000F00AFDACE002A920460930085C6749A0
:104F3000087167480078032836D06548017810A8C2
:104F4000017104225F49401DFBF73EF905226149CA
:104F500012A80130FBF738F95C48017910A8817379
:104F600002A920460830095C10A8C17302A9E01DFF
:104F7000095C10A8017402A9A01D095C10A804E036
:104F800053E012E031E07AE067E0417402A9601D6D
:104F9000095C10A881740123E0220F2111A800F000
:104FA00035FA00204A4908706AE04648007E262803
:104FB00006D102224049FF20F530FDF7D1FF5FE026
:104FC000192010A9087102A9201D085C002802D12F
:104FD00010A9487102E0012010A948710023132292
:104FE000022111A800F012FA4AE03648007E262875
:104FF00006D1002033490876262010A9087102E066
:105000001A2010A9087102A9201D085C002802D1ED
:1050100010A9487102E0012010A948710023132251
:10502000022111A800F0F2F92AE0042010A9087169
:1050300002A9201D085C002804D110A94871FEF7C0
:10504000F3FD02E0012010A948710123132202217F
:1050500011A800F0DBF913E012E01A48007E0428E2
:1050600003D101201D49087008E0012010A9087132
:1050700001230222194611A800F0C8F900E000BF80
:1050800000BF15480078FE2801D0FFF70BFAFE207C
:1050900011490870684601790648FBF7BCF83C22C4
:1050A000044903486038FDF7BDF816B010BD000094
:1050B000DC0D00205C0E0020394A000800000020B2
:1050C000B80B0000780000202C00002030000020E9
:1050D0000C0000200D000020D40C002068000020EF
:1050E00010B546480078A5287FD144484078A528C7
:1050F0007BD142488178FF3001300078801E8142A8
:1051000073D13E48C0783E490968090E88426CD187
:105110003A4800793A4909680902090E884264D17F
:1051200036484079364909680904090E88425CD13D
:105130003248807932490968C9B2884255D100F0B5
:10514000B5FB2E48C079022806D0132816D0232894
:1051500022D0E02847D11CE00622284908312948FE
:10516000FBF732F82748FEF743FC062223490831B3
:10517000182000F085F900F0DFFB35E022480078C8
:105180000A38C1B21D48083000F014FA00F0D4FB10
:105190002AE0FEF72DFD27E01848007A002820D1EC
:1051A0001A480078012813D1FFF7C8FCFF202D30E2
:1051B000FBF788F8FFF7A6FCFF202D30FBF782F8FD
:1051C000FFF7BCFCFF202D30FBF77CF8FFF79AFCC3
:1051D00000200E49087006220D49FF20F530FDF72A
:1051E000BFFE01E001E000BF00BF074801780348AF
:1051F000FBF711F800210448017010BD24030020C2
:105200003000002070000020240400200000002056
:10521000394A00080168002902D00B4A0168116070
:105220004168002902D0084A41685160816800291C
:1052300002D0054A81689160C168002902D0024A03
:10524000C168D160704700006C0D002010B50446A5
:10525000FF229932214666312046FAF7B5FF002039
:1052600010BD00007CB504460D460B4903C90191F1
:1052700000900121094801760C21C1752112684670
:10528000417084702912C1700571052269460120A0
:1052900000F040F97CBD0000985A0008B80C0020CE
:1052A00038B5044607480068009001210648017699
:1052B0000921C1756846447002226946012000F048
:1052C00029F938BD8C5A0008B80C002008B50748E9
:1052D000006800900121064801760D21C175012268
:1052E0006946104600F016F908BD0000A05A0008F3
:1052F000B80C002038B5044607480068009001212A
:10530000064801760221C17568464470022269464A
:10531000012000F0FFF838BD805A0008B80C0020CA
:1053200008B5064800680090012105480176C1755E
:1053300001226946104600F0EDF808BD7C5A0008CD
:10534000B80C00207CB506460C4615460B4903C92F
:105350000191009001210A4801760421C175684637
:10536000467021128170C4702912017145710622A4
:105370006946012000F0CEF87CBD0000A85A000864
:10538000B80C002038B505460C4609480068009066
:105390000121084801760621C17568464570211231
:1053A0008170C47004226946012000F0B3F838BD52
:1053B000905A0008B80C0020FEB505460C46009532
:1053C0002046E117490E09184904090E01912046AB
:1053D000E117490E0918C911C901611ACEB2002797
:1053E00009E080220220009900F094F800988030B3
:1053F0000090781CC7B201988742F2DB002E04D0DF
:1054000032460220009900F085F8FEBDFFB585B058
:105410000C461D4605980290C82C27DDC821204661
:10542000FAF77CFEC0B20490C8212046FAF776FE57
:10543000C8B20390002700260DE0781CC7B23B4697
:105440000095C821079A0298FEF752FB0298C830CF
:105450000290701CC6B204988642EEDB00230095D1
:10546000079A03990298FEF743FB06E0E1B2002396
:105470000095079A0598FEF73BFB09B0F0BD0000C8
:10548000F0B5A7B006460F4614460025F52069463C
:105490004871601CC1B201A801714671057940795B
:1054A000451900200AE03A5C01A90131431DCA54A4
:1054B000421D895C49198DB2411CC8B2A042F2DB81
:1054C000291201A88170C570601D6946087100F03D
:1054D0007CFA0022042105200007FBF7E3F80A20EC
:1054E000FAF7F0FE0122042105200007FBF7DAF8A5
:1054F0006420FAF7E7FE00F055FA054901A8FDF728
:1055000069FF224639463046FFF764F827B0F0BD00
:1055100000440040F7B5A6B006461546962D02DDBC
:10552000012029B0F0BD012E04D120480078401C94
:105530001E49087028460B30C1B268460170EF2141
:10554000417001218170FF21C17001714171817130
:10555000C6713746A81C381887B2A81C0004010E73
:1055600068460172A81CC1B26846417200240CE072
:105570002798025D2046093000A901310A54279876
:10558000005DC01987B2601CC4B2AC42F0DB3A12B5
:105590002046093000A901310A54401C0F54044927
:1055A0006846FDF717FF0020BBE70000240000203D
:1055B00000380140F0B587B004460D46182101A817
:1055C000FAF729FE20789F4908760846007E1A28B7
:1055D0007ED008DC02280DD003287FD0042879D0A3
:1055E000192878D192E01B2876D01C2875D026285F
:1055F000F7D1FEE0681E205C00282DD1681E205CDB
:105600009149C873E81E205C9049088008460078DC
:105610000102A81E205C08188C4908808A488089ED
:1056200009218901884202D00846874988810026DD
:105630000BE0701C215C844882898089401C824B6D
:10564000988183488154701CC6B2281FB042F0DC98
:1056500002208049087031E0681E205C012804D0D7
:10566000022806D0032816D10BE000207649888155
:1056700012E075488089C02802D0C0207249888114
:105680000AE071488089FF218131884202D00846B2
:105690006D49888100E000BF00BF00260BE0701C50
:1056A000215C694882898089401C674B98816848E1
:1056B0008154701CC6B2A81EB042F0DCFF206946BF
:1056C00008710023EE22012101A8FFF79FFEB5E03B
:1056D0002AE003E0A6E0B0E03CE074E06078EE2869
:1056E00006D1A078FF2803D104205A4908700CE0A5
:1056F000607856490880084600780002A178401872
:105700005249088003205349087097E00422611C25
:1057100001A8FAF759FD002069460872052201A97F
:105720001920FFF7ADFE89E00422611C01A8FAF7F9
:105730004BFD0121684641730A22611C0E30FAF7C5
:1057400043FD002168460176152201A91A20FFF7C2
:1057500097FE73E00422611C01A8FAF735FD0020D2
:1057600069460872052201A91B20FFF789FE6079AE
:10577000FF2807D1A079FF2804D10020C043334976
:1057800008801FE06078EE280CD1A078FF2809D1AE
:1057900031482E49088004202E49087000202F49E6
:1057A00008700FE0607929490880084600780002F7
:1057B000A179401825490880032026490870002057
:1057C000264908703AE00422611C01A8FAF7FCFCA3
:1057D0000121684641730A22611C0E30FAF7F4FC7D
:1057E000002168460176112201A91C20FFF748FE1E
:1057F00024E00422611C1348FAF7E6FC0A22611C2B
:105800001048001DFAF7E0FC0E490A8868468280BD
:105810004988C18000210172052201A91B20FFF7E0
:105820002FFE0BE00420074908760A490870012280
:10583000611C1F20FFF724FE00E000BF00BF07B07F
:10584000F0BD000078000020280C00202C00002073
:105850002809002020000020FFEE00002400002086
:1058600030B58BB004460D46684604714571002181
:10587000817100200290049005900120C0070690DD
:10588000002007900890012108A8017108020A90E1
:10589000012201A90448FBF7AFFE002801D000BF98
:1058A000FEE70BB030BD0000F012002001210148DE
:1058B00081707047240400200121014881777047DE
:1058C0000003002010B507494868074900F022F896
:1058D000002805D0FEF778FE0249486001200870D4
:1058E00010BD0000680000201027000010B5084817
:1058F0000078002802D0012806D102E0FFF7E2FF7D
:1059000003E0FEF7B1F900E000BF00BF10BD0000EA
:1059100068000020024604480068801A884201D9C5
:10592000012070470020FCE71C0000200148807F18
:10593000704700000003002010B5FEF745FE024945
:1059400048600020087010BD6800002000B587B0D6
:1059500000BF1248C06A012108431049C8620846C6
:10596000C06AC007C00F019000BF00BF08200290AE
:10597000012003900490002005900948039002A99B
:1059800005200007FAF798FD002211460620FAF7D5
:10599000E1FE0620FAF7D2FE07B000BD001002407B
:1059A0000000111000B585B0042000900220019085
:1059B00000200290022003900420049069460520F4
:1059C0000007FAF779FD05B000BD00B585B00420E9
:1059D000009001200190029002200390694605206A
:1059E0000007FAF769FD05B000BDFFB581B00546B7
:1059F00016461F46642E02DD002005B0F0BD0024CF
:105A00001BE066206043401960300079002812D105
:105A100066216143481932460299FAF7D5FB6620A0
:105A20006043401960300671662060434019603061
:105A300047712046E1E7601CC4B2052CE1DB002081
:105A4000DBE70000010000005A5A000000000000DF
:105A5000000000000102030406070809000000001E
:105A600001020304030406080C1018203000000093
:105A70000001000000000000000000000100000024
:105A800002000000050000000800000009000000FE
:105A900006000000070000000C00000000000000ED
:105AA0000D000000030000000400000000000000E2
:105AB0001D00000000000000000400504000010034
:105AC00001000000000400508000010080808083FD
:105AD00086898C8F66800066C00067000067400082
